:040000006BEF33F07F
:08000800046ED8CF05F0E0CF33
:1000100006F00001E9CF0CF0EACF07F0E1CF08F0DD
:10002000E2CF09F0D9CF0AF0DACF0BF0F3CF12F01C
:10003000F4CF13F0FACF14F0F5CF15F0F6CF16F099
:10004000F7CF17F000C00EF001C00FF002C010F0A3
:1000500003C011F0F2AA30EF00F0F2B406EF0CF09A
:100060009DA036EF00F09EB086EF0CF09DA23CEF15
:1000700000F09EB23BEF0EF0A0A242EF00F0A1B262
:100080005BEF0EF09DAA48EF00F09EBA04EF0FF070
:10009000A0A04EEF00F0A1B08BEF0EF0A0A854EF9F
:1000A00000F0A1B899EF07F00EC000F00FC001F00A
:1000B00010C002F011C003F00CC0E9FF07C0EAFF56
:1000C000078E08C0E1FF09C0E2FF0AC0D9FF0BC0DC
:1000D000DAFF12C0F3FF13C0F4FF14C0FAFF15C01B
:1000E000F5FF16C0F6FF17C0F7FF045006C0E0FF8B
:1000F00005C0D8FF1000F76A060FF66E010EF72252
:100100000900F55012000003FFFFFFFFFFFFFFFF94
:10011000FFFFFFFFFFFFF76A260FF66E010EF722C3
:100120000900F550120040004000000000000000EF
:1001300000000000000000000000000000000000BF
:10014000000000000000F76A560FF66E010EF7225D
:100150000900F55012000600FF0901A1011901294B
:10016000081580257F7508953F81021901290875BA
:1001700008953F9102C0F76A860FF66E010EF722CE
:100180000900F55012000000F76A980FF66E010E94
:10019000F7220900F55012002000F76AAA0FF66E48
:1001A000010EF7220900F550120009022900010191
:1001B0000080FA0904000002030000000921000188
:1001C00000012220000705810340000A0705010302
:1001D00040000A00F76AE40FF66E010EF7220900EC
:1001E000F55012000100F76AF60FF66E010EF722C5
:1001F0000900F55012001200F76A080FF66E020EA1
:10020000F7220900F5501200120110010000004011
:1002100061042000000101020001F76A2A0FF66E56
:10022000020EF7220900F5501200040309040A0324
:1002300047006F0047006F00160347006F0047003C
:100240006F00200042006F00610072006400659240
:100250000F015C9562A402D06294FCD76298000101
:10026000AAEF07F0400E0401016F040E0E01486F63
:10027000100E48CE03F4E8CF02F4880E0401006F9C
:10028000046B040E076F500E066F000112000F0181
:100290004CA104D00001E6DF0F014C91629A0001ED
:1002A000B6EF07F0636A6292C0EF07F00E01549157
:1002B00053BF5481539F5351100803E2000E016E47
:1002C0001AD054A10DD0036A5351000114DFFF0866
:1002D00002E1000E01D0010E016E0E010CD00BD018
:1002E000036A5351000107DFFF0802E1000E01D04D
:1002F000010E016E0E01000112000E015351550353
:10030000F3CF01F0F4CF00F05603F3500026545120
:100310005503F3500020026E00011200036A0E0123
:1003200052514C0FE96E0F0E0320EA6EEF6A52CE67
:1003300053FE0001BBDF015228E00E01546B52CE88
:1003400053FE566B080E556F0001D7DF0E0101C03A
:10035000E9FF040E0224EA6EEF6A546B52CE53FE9C
:10036000566B080E556F0001C8DF02C054FE01C075
:1003700053FE040E0E015327000E542353CEE9FF03
:10038000040E5425EA6EEF6A00011200010E0E0100
:10039000516F51510F0807E351CE52FE0001BEDFED
:1003A0000E01512BF6D700011200286A276A0E01B0
:1003B000476B47530AE1036A4751290FE96E000E64
:1003C0000320EA6EEF6A472BF4D71B6A010E1C6EFE
:1003D0001A6A00011200629612000F015D6B5C6BDD
:1003E000636A626A5E6B4C6B0001D0DFDEDF160E63
:1003F0000F014C6F62A604D00001EDDF0F01FAD7A8
:100400009F0E5D6F3D0E5C6F659800012BDF030E44
:10041000226ECAEF07F00F015C855C9965820001CE
:10042000D4EF07F0629CDEEF07F04DCE23F0120010
:10043000236812000E014B6B275028103DE04B51F2
:100440003F083AE31D50FC0F25E2040F000168EF5E
:1004500002F026C003F02550A0DEE8CF4CFE0E01CE
:1004600019D026C003F025506EDEE8CF4CFE0E01F9
:1004700011D026C003F02550D0DEE8CF4CFE0E018F
:1004800009D026C003F02550B7DEE8CF4CFE0E01A0
:1004900001D00E01252AD8B4262A2750D8B4280620
:1004A00027064B514B2B500FE96E040EEA6ED8B065
:1004B000EA2A4CCEEFFFC0D72750281004E14B5159
:1004C000400801E01A6A4BCE4DFE0001AEDF12007B
:1004D000E824F76AF736EB0FF66E040EF7220A00EF
:1004E000F550FA6E0800F550F96E52046204720479
:1004F00082040E014A6B266A256A1D6A04011351A3
:10050000010A000109E0030A0DE0010A0FE0220AD6
:100510002BE0030A42E05DD0286A120E276E030E1C
:100520001D6E59D0286A290E276E55D0020E1D6EF9
:100530000E014A6B040112510E014A5D0BE226C006
:1005400003F02550000169DE2526000E26220E014B
:100550004A2BF0D726C003F0255000015EDE036A67
:10056000276E03C028F037D0036A0401125100013E
:100570003ADE036A256E03C026F0253C02D02652DF
:100580000AE026C003F0255008DE036A276E03C088
:1005900028F021D002D04CDF2DD0036A0401145181
:1005A0000001E9DD036A256E03C026F0253C02D078
:1005B00026520DE0010E1D6E036A04011451000164
:1005C000E3DD036A276E03C028F005D002D030DFD8
:1005D00011D02EDF0FD00401175308E1285203E198
:1005E0002750165D03E2286A16C427F0010E1A6E22
:1005F000000120DF12000E01495306E1040E226EB5
:100600000001C4DEEAD00E01050E226E040E4C6F0E
:10061000900E4B6F010E4A6F4A510F08D8A0DDD0E3
:100620004ACE52FE00017ADE0E014D6B036A4A513A
:10063000000161DDFF0867E0040E0E014D6FD890E8
:100640004A35036A000167DD0900F5CF03F00E01AA
:100650004E6F03C04FFE546B4ACE53FE566B080ECE
:10066000556F00014ADE01C051FE010E0E0101244A
:10067000016E000E0220036E01C0E9FF040E032488
:10068000EA6E4ECEEFFF546B4ACE53FE566B080E09
:10069000556F000132DE01C051FE020E0E01012431
:1006A000016E000E0220036E01C0E9FF040E032458
:1006B000EA6E4CCEECFFED524BCEEFFFD8904A35B0
:1006C000036A000128DD0900F5CF03F00E014B2776
:1006D00003504C23880E506F4FA101D050814FA37F
:1006E00001D05083546B4ACE53FE566B080E556FA3
:1006F000000103DE0E0101C0E9FF040E0224EA6ED0
:1007000050CEEFFF0001036A0E014A510001F3DCF5
:10071000FF0848E00E014D83546B4ACE53FE566BE2
:10072000080E556F0001E9DD02C052FE01C051FE06
:10073000040E0E015127000E5223020E5125016EA8
:10074000000E5221036E01C0E9FF040E0324EA6E7D
:100750004CCEECFFED524BCEEFFFD8904A35036AFA
:100760000001D9DC0900F5CF03F00E014B2703503F
:100770004C23546B4ACE53FE566B080E556F000146
:10078000BCDD02C052FE01C051FE040E0E01512715
:10079000000E522351CEE9FF040E5225EA6E400EA0
:1007A000EF6E00010E014D51060802E10E0E4D6F75
:1007B000036A4A5100019FDC010803E00E014D89E4
:1007C0000001036A0E014A514C0FE96E0F0E03201F
:1007D000EA6E4DCEEFFF4A2B1FD7000144EF04F025
:1007E00004011151000A00010DE0010A15E0020A9E
:1007F00021E0060A2CE0030A33E00E0A33E0010A86
:1008000039E049D01CC050F40401516B020E0E01B6
:100810004D6F00010ADE40D00401122D08D0010EF8
:100820001C160E014D6B000100DE03D00401000117
:10083000FFDD32D00401122D07D01C820E014D6B5A
:100840000001F3DD03D004010001F2DD25D0020E2A
:100850001A6E12C424F00E014D6B0001E6DD1CD0AF
:1008600048DE1AD01BC050F4010E0E014D6F00017E
:10087000DCDD12D00401125101080BE312C41BF09D
:1008800012C449FE0001B7D60E014D6B0001CDDD4B
:100890000401000101D0CCDD9FEF05F01BC049FE33
:1008A00004011151000A000107E00A0A0EE0010AE2
:1008B0002EE00D0A42E043D00401506B516B020E52
:1008C0000E014D6F0001B1DD3BD00E0149531CE01C
:1008D000010E495D036A00017DDC016E0401145DB7
:1008E000D8A002D00E0110D0036A1451290FE96E6E
:1008F000000E0320EA6EEFCF50F4010E0E014D6F93
:10090000000193DD03D00E01000192DD19D00E012C
:10091000495310E0036A04011451290FE96E000ED7
:100920000320EA6E12C4EFFF0E014D6B00017DDD66
:1009300003D00E0100017CDD03D0DBDD01D078DDCA
:100940009FEF05F00E014A9149BF4A81499F4AA194
:1009500019D0546B49CE53FE566B080E556F0001EB
:10096000CCDC02C04CFE01C04BFE040E0E014B2736
:10097000000E4C234BCEE9FF040E4C25EA6E880E88
:10098000EF6E0FD0546B49CE53FE566B080E556F69
:100990000001B3DC0E0101C0E9FF040E0224EA6E7F
:1009A000EF6A036A49514C0F016E0F0E032201C01A
:1009B000E9FF03C0EAFFEF9000015FEF05F00E01D1
:1009C0004A9149BF4A81499F4AA119D0546B49CEE7
:1009D00053FE566B080E556F00018FDC02C04CFEB3
:1009E00001C04BFE040E0E014B27000E4C234BCED4
:1009F000E9FF040E4C25EA6E840EEF6E10D0546BA6
:100A000049CE53FE566B080E556F000176DC0E0181
:100A100001C0E9FF040E0224EA6E840EEF6E0001AD
:100A200067EF05F00E014A9149BF4A81499F4AA1EB
:100A300019D0546B49CE53FE566B080E556F00010A
:100A40005CDC02C04DFE01C04CFE040E0E014C27C2
:100A5000000E4D234CCEE9FF040E4D25EA6EEFCF7C
:100A60004BFE10D0546B49CE53FE566B080E556F9B
:100A7000000143DC0E0101C0E9FF040E0224EA6E0E
:100A8000EFCF4BFE4BAF02D04BB502D0000E01D0E2
:100A9000010E016E000173EF05F014C453FE06DC75
:100AA00001522EE004011151010A000105E0020A81
:100AB0000BE0030A11E023D014C449FE43D70E0112
:100AC0004D6B0001B2DC1CD014C449FE78D70E0176
:100AD0004D6B0001AADC14D00401506B516B14C49F
:100AE00049FE00019FD7015204E0010E0401506F3E
:100AF0000001020E0E014D6F000197DC01D098DC61
:100B00009FEF05F004011151000192DC9FEF05F009
:100B10001A6A040110517F0B000A000107E0010A64
:100B200007E0030A07E0230A07E008D059D607D0F8
:100B3000B5D605D0B2D703D0E5D701D079DC39EFEF
:100B400007F00E01546B49CE53FE566B080E556FDD
:100B500000017DEC01F00E0101C0E9FF040E02244A
:100B6000EA6EEFCF4BFE4A51020806E14BAD02D0D0
:100B70004A6B02D0010E4A6F4A5103081CE1840EF1
:100B80004B6F546B49CE53FE566B080E556F0001E8
:100B90007DEC01F002C04FFE01C04EFE040E0E01BE
:100BA0004E27000E4F234ECEE9FF040E4F25EA6E6E
:100BB000840EEF6E07D04A2D03D0C80E4B6F02D0C3
:100BC000880E4B6FD8904935036A00018BEC00F01A
:100BD0000900F5CF03F00E014C6F03C04DFE546BBE
:100BE00049CE53FE566B080E556F00017DEC01F0A7
:100BF00001C04EFE010E0E010124016E000E022006
:100C0000036E01C0E9FF040E0324EA6E4CCEEFFF31
:100C10004DA101D04B814DA301D04B83546B49CEE4
:100C200053FE566B080E556F00017DEC01F00E016E
:100C300001C0E9FF040E0224EA6E4BCEEFFF000173
:100C40001200036A0E014E514C0FE96E0F0E032085
:100C5000EA6EEF521BE0546B4ECE53FE566B080EFD
:100C6000556F00017DEC01F002C050FE01C04FFE47
:100C7000040E0E014F27000E50234FCEE9FF040E45
:100C80005025EA6EEFCF51FE51AF02D0000E01D0D9
:100C9000010E016E0001120049CE4EFED2DF01525C
:100CA000D8B49BD00E01546B49CE53FE566B080E40
:100CB000556F00017DEC01F002C04FFE01C04EFEF9
:100CC000040E0E014E27000E4F23010E4E25016E1D
:100CD000000E4F21036E01C0E9FF040E0324EA6EEB
:100CE0004ACEEFFF4C51020820E1546B49CE53FE2F
:100CF000566B080E556F00017DEC01F002C04FFEEF
:100D000001C04EFE040E0E014E27000E4F234ECEA4
:100D1000E9FF040E4F25EA6EEFCF4DFE4DAD02D038
:100D20004C6B02D0010E4C6F1AD04C51040817E1E5
:100D3000546B49CE53FE566B080E556F00017DEC87
:100D400001F00E0101C0E9FF040E0224EA6EEFCFAC
:100D50004DFE4DAD03D0010E4C6F01D04C6B4C2DB0
:100D600003D0480E4D6F02D0080E4D6F546B49CE24
:100D700053FE566B080E556F00017DEC01F002C06A
:100D80004FFE01C04EFE040E0E014E27000E4F23F3
:100D90004ECEE9FF040E4F25EA6E4DCEEFFF546BA9
:100DA00049CE53FE566B080E556F00017DEC01F0E5
:100DB00002C04FFE01C04EFE040E0E014E27000E73
:100DC0004F234ECEE9FF040E4F25EA6EEF50800907
:100DD000EF6E010E016E04D00001000E016E0E01D7
:100DE000000112000E01495300E1000112004ACE39
:100DF0005EFF0E014A5303E0040E226E02D0020E83
:100E0000226E000109EF07F01B6A1A6A24C04AFE2D
:100E1000EED71AEF07F00E0149530DE11A2C05D059
:100E200000011AEC02F006D00E011A50020803E18C
:100E30000001EAD70E010001120021300E01476FB8
:100E4000473347331F0E471721524EE1040100512B
:100E50003C0B0E01486F430E040100170E01485170
:100E6000340825E104010451800B01E0046B00010A
:100E70004FD66598233C07D00E01496B030E4A6F8D
:100E800000015FDE12D00E01496B020E4A6F0001B5
:100E900058DE2350FE0809E00E01496B4B6B23C05E
:100EA0004AFE040E4C6F0001F7DE1CD00E014851C3
:100EB000040819E1496B000195DF0E01496B020E30
:100EC0004A6F00013EDE2350FE080CE0233C01D0B7
:100ED00009D00E01496B4B6B23C04AFE010E4C6FCB
:100EE0000001DADE0E0122D02150040812E123684D
:100EF000496B000190DF233C01D009D00E01496B02
:100F00004B6B23C04AFE020E4C6F0001C5DE0DD0B4
:100F10000E0121B406D047CE49FE000163DF05D0A3
:100F20000E0147CE49FE000176DF0E010001EDEF14
:100F300007F0A1982252D8B45AD06252D8B457D0F0
:100F400062A408D00F015CB502D0000103D00001FB
:100F500027EF01F065B24BD062AA08D00F015CBB4D
:100F600002D0000103D0000147EF01F062A208D0D7
:100F70000F015CB302D0000103D0000152EF01F079
:100F800062A008D00F015CB102D0000103D00001C3
:100F9000EDEF01F062A808D00F015CB902D00001AA
:100FA00003D000010BEF02F062AC08D00F015CBD72
:100FB00002D0000103D0000112EF02F00E01466BD7
:100FC00062A60DD00F015CB702D00E0108D064CF2D
:100FD00021F00001EBEC01F030D703D00E0106D078
:100FE00000010E014651462B0308EAE2000154EFCE
:100FF00000F049CE5EF248CE5DF247CE5CF246CEBE
:101000005BF2120001012D6B2DC12BF000011200CB
:10101000C69AC69CC69EC68A12000E01E80E4B25D3
:10102000F2CF50FEF29EF86AF76E4ACEF6FF090044
:10103000F5500800F5CF03F0F86A50BFF28E4C6F00
:1010400003C04DFE4D6B4CCE01F0000112000E01AD
:10105000476B466B475102081BE3100E4625016E95
:10106000050E4721036E01C048FE496F47CE4BFE77
:1010700046CE4AFE0001D1DF49CEEAFF48CEE9FF65
:1010800001C0EFFF8B700E01462BD8B4472BE2D77F
:10109000000112000801DF6BDE6B020132910E01CC
:1010A000496B486BE3C847FEE2C846FE0001A1DF7A
:1010B0008B820201566B556B0001A4DF0301AD9FCB
:1010C0000801DD812C6A020132850001A1DF9488CC
:1010D0009486BDDF120002016A6B6B6B6C6B6D6BEB
:1010E000000112000801DF6BDE6B02013291080182
:1010F000DD910301AD8D0001EEDF8B92120008013E
:10110000DDB104D00001C6DF03D008010001EADF31
:101110001200140E0801FD6F000112000E0147516C
:10112000016A465D03E246CE00F00CD0006A080E6C
:10113000486F463700364751005CD8B0006E013624
:10114000482FF7D70001B8EF08F080B81AD0020195
:10115000605315E10001DDDF0201615109080BE375
:10116000622B62C246FE0A0E0E01476F0001D6D7FF
:1011700000C062F20201616B010E606F328503D024
:1011800000010201606B6151090805E3612B6151A7
:101190000A0801E13285000135EF0CF00E014D51D6
:1011A000000A0001D8B4BED0300AD8B4BBD0310A8E
:1011B000D8B4BCD0300AD8B4B9D0330AD8B4BAD075
:1011C000300AD8B4B7D0310AD8B4B8D0300AD8B4BD
:1011D000B5D0370AD8B4B6D0300AD8B4B3D0310AB3
:1011E000D8B4B4D0300AD8B4B1D0330AD8B4B2D05D
:1011F000300AD8B4AFD0310AD8B4B0D0300AD8B49D
:10120000ADD03F0AD8B4AED0300AD8B4ABD0310A92
:10121000D8B4ACD0300AD8B4A9D0330AD8B4AAD044
:101220004B0AD8B4ABD0200AD8B4A8D0230AD8B47B
:10123000A9D0200AD8B4A6D0210AD8B4A7D0200AB1
:10124000D8B4A4D0270AD8B4A5D0200AD8B4A2D044
:10125000210AD8B4A3D0200AD8B4A0D0230AD8B485
:10126000A1D0200AD8B49ED0210AD8B49FD0200A99
:10127000D8B49CD02F0AD8B49DD0200AD8B49AD024
:10128000210AD8B49BD0200AD8B498D0230AD8B465
:1012900099D0200AD8B496D0260AD8B497D0200A7C
:1012A000D8B494D0220AD8B495D0200AD8B492D019
:1012B000210AD8B493D0200AD8B490D03F0AD8B429
:1012C00091D0200AD8B48ED0210AD8B48FD0200A69
:1012D000D8B48CD0230AD8B48DD0200AD8B48AD000
:1012E000210AD8B48BD0200AD8B488D0270AD8B421
:1012F00089D0200AD8B486D0210AD8B487D0200A51
:10130000D8B484D02C0AD8B485D0200AD8B482D0DE
:10131000050AD8B483D05C0AD8B484D0370AD8B4CC
:1013200081D080D03F0E016E80D07FD0060E016E3E
:101330007CD07BD05B0E016E78D077D04F0E016EE3
:1013400074D073D0660E016E70D06FD06D0E016ECA
:101350006CD06BD07D0E016E68D067D0070E016E29
:1013600064D063D07F0E016E60D05FD06F0E016ECF
:101370005CD05BD0000E016E58D057D0770E016E56
:1013800054D053D07C0E016E50D04FD0390E016E28
:101390004CD04BD05E0E016E48D047D0790E016E16
:1013A00044D043D0710E016E40D03FD03D0E016E4F
:1013B0003CD03BD0760E016E38D037D0040E016E93
:1013C00034D033D00E0E016E30D02FD0380E016ED7
:1013D0002CD02BD0540E016E28D027D05C0E016E7D
:1013E00024D023D0730E016E20D01FD0670E016E63
:1013F0001CD01BD0500E016E18D017D06D0E016E90
:1014000014D013D0780E016E10D00FD03E0E016EA6
:101410000CD00BD06E0E016E08D007D0360E016EC8
:1014200004D003D0000E016E00D01200D8900E013F
:101430004935010F036AAE0FE96E030E0320EA6E11
:10144000EFCF4BFE4A6BD8904935010F010F036A6D
:10145000AE0FE96E030E0320EA6EEF504A27000E2E
:101460004B234ACE01F04BCE02F000011200016A7C
:10147000026A006A036A0E01505102E14F5118E0FE
:10148000100E516FD8904D374E37003603365051FD
:10149000035C02E14F51005C07E34F51005ED8A0AE
:1014A00003065051035ED88001360236512FEAD729
:1014B000000112004BCE4EFE4ACE4DFE0E01506B87
:1014C0000A0E4F6F0001D3DF02C04EFE01C04DFE79
:1014D00002C054FE01C053FE0E01566B0A0E556F3A
:1014E00000017DEC01F001500E014A5D4C6F4CCEC5
:1014F0004DFE000153DE01C06AF24BCE4EFE4ACED5
:101500004DFE0E01506B0A0E4F6F0001B0DF02C09E
:101510004BFE01C04AFE0E014A5306E14B5304E163
:1015200002016B6B24D00E014BCE4EFE4ACE4DFE17
:10153000506B0A0E4F6F00019ADF02C04EFE01C0D1
:101540004DFE02C054FE01C053FE0E01566B0A0E42
:10155000556F00017DEC01F001500E014A5D4C6FAA
:101560004CCE4DFE00011ADE01C06BF202014BCEE3
:101570004EFE4ACE4DFE0E01506B0A0E4F6F00011B
:1015800076DF02C04BFE01C04AFE0E014A5306E15F
:101590004B5304E102016C6B24D00E014BCE4EFE86
:1015A0004ACE4DFE506B0A0E4F6F000160DF02C045
:1015B0004EFE01C04DFE02C054FE01C053FE0E019E
:1015C000566B0A0E556F00017DEC01F001500E01C3
:1015D0004A5D4C6F4CCE4DFE0001E0DD01C06CF267
:1015E00002014BCE4EFE4ACE4DFE0E01506B0A0E4E
:1015F0004F6F00013CDF02C04BFE01C04AFE0E01EE
:101600004A5306E14B5304E102016D6B24D00E01F5
:101610004BCE4EFE4ACE4DFE506B0A0E4F6F000170
:1016200026DF02C04EFE01C04DFE02C054FE01C0C6
:1016300053FE0E01566B0A0E556F00017DEC01F052
:1016400001500E014A5D4C6F4CCE4DFE0001A6DDEF
:1016500001C06DF2020132850001120002016351E6
:10166000625D02E132A5A8D062C263F23295615197
:101670000908D8A07CD06251000A000103E0010AE9
:1016800041E05AD0020132A71FD0470E0E014D6F24
:10169000000184DD01C06DF26F0E0E014D6F00017F
:1016A0007DDD01C06CF2470E0E014D6F000176DD4D
:1016B00001C06BF26F0E0E014D6F00016FDD01C0B6
:1016C0006AF2020132971DD0750E0E014D6F0001B6
:1016D00065DD01C06DF2730E0E014D6F00015EDD20
:1016E00001C06CF2650E0E014D6F000157DD01C0A7
:1016F0006BF2720E0E014D6F000150DD01C06AF2F7
:10170000020134D002016D6B6F0E0E014D6F0001AE
:1017100045DD01C06CF2660E0E014D6F00013EDD2D
:1017200001C06BF2660E0E014D6F000137DD01C086
:101730006AF202011BD0000102016A6B010E625DB8
:101740000E01486F4D6F000129DD01C06BF2730E71
:101750000E014D6F000122DD01C06CF2730E0E010F
:101760004D6F00011BDD01C06DF2020124D06251FA
:10177000000A000103E0010A0AE00BD066C26AF227
:1017800067C26BF268C26CF269C26DF213D0A3DC5F
:1017900011D0020E0201625D0E01486F496F000117
:1017A00045DE02C049FE01C048FE02C04BFE01C03A
:1017B0004AFE80DE020127D06251010824E2615115
:1017C000090821E2020E625D0E01486F496F0001B7
:1017D0002DDE02C047FE01C046FE020164510E012B
:1017E000465D05E1020165510E01475D0BE047CE04
:1017F00065F246CE64F247CE4BFE46CE4AFE00016D
:1018000059DE0E010201000136EF0CF0DB0ED76E3F
:10181000610ED66E0801E22BD8B4E32BE42BD8B4CA
:10182000E52BE851E45D08E1E951E55D05E1E62BD2
:10183000D8B4E72BE56BE46BDE5302E1DF5304E041
:10184000DE51D8B4DF07DE0781B009D0DDA501D0B5
:1018500005D0DD73DD85000152DC080103D0DDA574
:1018600001D0DD95EB2B000170D4F8D602016E514A
:10187000270801E36E2BF294000154EF00F048CEEC
:1018800000F00E014951016E04E0D8900032012EA3
:10189000FCD70050010B016E000112000E014C51EB
:1018A000070B006E4C31016E013201321F0E011622
:1018B00001504E25E96E000E4F21EA6E016A012AA1
:1018C000002A01D00136002EFDD74D5303E0015010
:1018D000EF1203D0011E0150EF16000112004ACE94
:1018E0004CFE0E014D6B0F0E4F6F890E4E6F0001B7
:1018F000D5DF12004ACE4CFE010E0E014D6F0F0EC9
:101900004F6F890E4E6F0001C9DF12000801D851D8
:10191000DB5DD8B077D0036ADB51D40FE96E080ED7
:101920000320EA6EEFCF46FE0E01476B47510308D6
:101930004AE346CE48FE47CE49FE0001A0DF0152F1
:101940003FE0C1C848FE47CE49FE99DF012C38D0A0
:10195000BEC848FE47CE49FE92DF015221E1D89031
:101960000E014735036AEE0FE96E030E0320EA6E9F
:10197000ECCF4BFEED52EFCF4AFE0001B0DFD89026
:101980000E014735036AF60FE96E030E0320EA6E77
:10199000ECCF4BFEED52EFCF4AFE0001A0DF10D09E
:1019A000D8900E014735036AF60FE96E030E032047
:1019B000EA6EECCF4BFEED52EFCF4AFE00018FDF17
:1019C0000E01472BB3D70801DB2BD851DB5D12E2A8
:1019D000D890DB35036ACC0FE96E080E0320EA6E5F
:1019E000ECCF49FEED52EFCF48FE49CECFFF48CEB7
:1019F000CEFF07D0DAC8CFFFD9C8CEFF0301AD8B29
:101A00000801E0D00301AD9B0E01476B475103086D
:101A1000D8A0C9D0C1C848FE47CE49FE00012FDF7B
:101A2000012C9ED0036A0E014751C20FE96E080EC9
:101A30000320EA6EEF52D8B473D0BEC848FE47CE3A
:101A400049FE00011CDF015249E1C0C848FE47CEF3
:101A500049FE15DF015221E0D8900E014735036A97
:101A6000EE0FE96E030E0320EA6EECCF4BFEED5253
:101A7000EFCF4AFE00013EDFD8900E014735036AE2
:101A8000F60FE96E030E0320EA6EECCF4BFEED522B
:101A9000EFCF4AFE000123DF20D0D8900E0147355A
:101AA000036AF60FE96E030E0320EA6EECCF4BFEDD
:101AB000ED52EFCF4AFE00011DDFD8900E014735F1
:101AC000036AEE0FE96E030E0320EA6EECCF4BFEC5
:101AD000ED52EFCF4AFE000102DF20D0D8900E0178
:101AE0004735036AF60FE96E030E0320EA6EECCF6A
:101AF0004BFEED52EFCF4AFE0001FCDED8900E0106
:101B00004735036AEE0FE96E030E0320EA6EECCF51
:101B10004BFEED52EFCF4AFE0001ECDE20D00E016D
:101B2000D8904735036AEE0FE96E030E0320EA6E84
:101B3000ECCF4BFEED52EFCF4AFE0001D0DED89045
:101B40000E014735036AF60FE96E030E0320EA6EB5
:101B5000ECCF4BFEED52EFCF4AFE0001C0DE20D0AD
:101B6000D8900E014735036AEE0FE96E030E03208D
:101B7000EA6EECCF4BFEED52EFCF4AFE0001AFDE36
:101B8000D8900E014735036AF60FE96E030E032065
:101B9000EA6EECCF4BFEED52EFCF4AFE00019FDE26
:101BA0000E01472B33D70801D85306E0DB6BCDC8B5
:101BB000CFFFCCC8CEFF06D0690ECF6ECE68030132
:101BC000AD8B08019E90000154EF00F08D928D9432
:101BD0008F968F928F908D9A8F988F94F1EF0DF052
:101BE000F5D702015F5302E18E9E01D08E8E5F2DEC
:101BF00002D08D9601D08D865F51020802E18D984A
:101C000001D08D885F51030802E18D9001D08D8055
:101C10005F53D8B46AC247FE5F2D02D06BC247FE45
:101C20005F510208D8B46CC247FE5F510308D8B4B4
:101C30006DC247FE0E0147A101D08D8247A301D09E
:101C40008D8447A501D08F8647A701D08F8247A9F1
:101C500001D08F8047AB01D08D8A47AD01D08F88EE
:101C600047AF01D08F84010E02015F25030B5F6F28
:101C7000000158EF0EF00301AD870801EC2BE05393
:101C800002E1E15304E0E051D8B4E107E007FD537D
:101C90000DE0FE51FE2B000A03E1320EBC6E06D0B1
:101CA000FE51140803E1BC6AFE6BFD6B000198D77E
:101CB0009E9254EF00F00801DDBF28D0F45302E1FA
:101CC000F5531DE0F8510C081AE1F451F25D03E1FF
:101CD000F551F35D14E0F451950807E1F55305E182
:101CE00000017FEC08F007D00801F5C8F3F8F4C84C
:101CF000F2F8FC8100010801FB6BF56BF46BFB5102
:101D0000FB2B320803E2F36BF26BFB6BDD9FA192BE
:101D1000000154EF00F00801DD8FDDAD0BD0B66A95
:101D2000050EB66EB96ABA6ADD9DB8CFF7F8B7CFBF
:101D3000F6F85AD0B66A040EB66EB96ABA6ADD8D84
:101D4000F751B85C0FE303E1B750F65D0BE2F651D3
:101D5000B75C0E01466F0801F751B8580E01476F86
:101D600011D00801FF0ED880F6550E01486FFF0E06
:101D70000801F7550E01496FB7504825466FB85016
:101D80004921476F47510B080AE303E14651B70861
:101D900006E30801F56BF46BF86B26D00E01475192
:101DA000130808E303E14651870804E30801F82B10
:101DB0001BD00E014751230813E303E146512708C6
:101DC0000FE3010E006E0801F851016E04E0D89097
:101DD0000036012EFCD70050F413F82B05D00E016D
:101DE0000801F56BF46BF86BA190000154EF00F063
:101DF0009EAAFED7ACCF2AF0AFCF01F02AA202D024
:101E0000AC98AC8805EF0FF0F3D701C046FE030194
:101E1000305322E0302D0BD00E0146515408D8B477
:101E200002D0030104D0020E0301306F12D03051F2
:101E300002080DE10E014651FE08D8B402D003019C
:101E400006D00301306B0201328D04D00301010E74
:101E5000306F020153D00301020132AD10D046CEE3
:101E600032F303013251020803E13F0E336F04D015
:101E70003251070801E1AD810201329D20D00301FA
:101E8000ADA104D046CE33F3AD9118D033512F5DC0
:101E900015E10E0146510301315D05E18B70020130
:101EA000327B6E6B0301316B2F6B010E306F325141
:101EB000070803E10201328F03011FD0020132AB98
:101EC0000DD003012F512F2B036AB10FE96E020EC3
:101ED0000320EA6E46CEEFFF0CD0020103012F5122
:101EE0002F2B036AF00FE96E020E0320EA6E46CE36
:101EF000EFFF0E0146510301312702019E9A0001B6
:101F000054EF00F00A0EEA6E340EE96EEF500EE068
:101F10000F0E016E006A002EFED7012EFBD78F0E2A
:101F2000006E002EFED70000EF2EF2D7120008013F
:101F3000BB6B010E0301FE6F0801DD912B6A0101ED
:101F40002D6B2C6A020E0301BF6F510EC06F2B0E5A
:101F5000C26FF2CF82F9F29EF86AF90EF76EF00EB8
:101F6000F66E0900F5500800F5CF03F0F86A090194
:101F700082BFF28E0201536F03C054F2000154EF8E
:101F800034F08D9C8A920901846B856B845103081F
:101F90002EE3D8908435036AEE0FE96E030E03201A
:101FA000EA6EECCF4BFEED52EFCF4AFE196AF2BE5D
:101FB000198EF29E000193DC19BEF28ED8900901B1
:101FC0008435036AF60FE96E030E0320EA6EECCF48
:101FD0004BFEED52EFCF4AFE196AF2BE198EF29E09
:101FE00000017DDC19BEF28E0901842BCFD70001E0
:101FF0001200948694888DEF10F0320EBC6E8B82A6
:102000000A01346F00017EDFBC6A8B92960E0A01D2
:10201000346F000177DF320EBC6E8B800A01346FA3
:10202000000170DFBC6A320E0A01346F00016ADF02
:102030008B90320EBC6E8B800A01346F000162DF20
:10204000BC6A320E0A01346F00015CDF8B908EEFA8
:1020500010F06592656A0F015C6B080E5F6F975018
:1020600018090901976E226A196AF2BE198EF29E4A
:102070000001D5EC01F019BEF28E40EF10F0E9D767
:102080008FEF10F00301C46B3F0E926E010E936E42
:10209000900E946E000E956E800E966E7C0E976E6E
:1020A000000E986EC150C00B0609C16EC18EC28071
:1020B000C18CC282C2B2FED7C19C0801BD6B000EAA
:1020C000016EC250C30B0110C26E00015ADF860EB2
:1020D000D56EDB0ED76E610ED66EF28AA10ECD6E76
:1020E0009D80CF6ACE6A380E0609CA6EFF0ECB6E8F
:1020F0009D829D0E796E7B6A7A6AA082B66A040E12
:10210000B66EB96ABA6AA0808B940C0EBB6EBE6ABA
:10211000BF6A9D8AC00EF2126CD76FD7B0D756EF48
:1021200034F0020E0201B16FF06F000158EF34F08D
:102130001B50016ED5EF1AF0036A0A0126514C0FAD
:10214000E96E0F0E0320EA6EEF521EE0196AF2BE2E
:10215000198EF29E0E01546B26CA53FE566B080E62
:10216000556F00017DEC01F019BEF28E02C028FA15
:1021700001C027FA0A0101C0E9FF040E0224EA6E39
:10218000EFCF29FA29AF02D0000E01D0010E016E67
:102190000001DEEF1AF0196AF2BE198EF29E0E01EE
:1021A000546B2BCA53FE566B080E556F00017DEC25
:1021B00001F019BEF28E01C035FA020E0A010124A7
:1021C000016E000E0220036E01C0E9FF040E03241D
:1021D000EA6EECCF31FAED52EFCF30FA196AF2BE67
:1021E000198EF29E0E01546B2BCA53FE566B080ECD
:1021F000556F00017DEC01F019BEF28E01C035FA79
:10220000010E0A010124016E000E0220036E01C0BE
:10221000E9FF040E0324EA6E346BEFCF33FA196A38
:10222000F2BE198EF29E0E01546B2BCA53FE566BF2
:10223000080E556F00017DEC01F019BEF28E0A0107
:1022400001C0E9FF040E0224EA6EEFCF32FA32A198
:1022500001D0348132A301D0348334512F5D08E39F
:1022600003E12E51335D04E234CA2FFA33CA2EFA49
:102270002DCAEAFF2CCAE9FF31CAE2FF30CAE1FFEA
:102280002FCA02F02ECA01F0015202E0022A02D047
:10229000025206E0E6CFEEFF012EFCD7022EFAD75F
:1022A0002ECA01F02FCA02F0000162EF11F026CA17
:1022B0002BFA28CA2DFA27CA2CFA2ACA2FFA29CAB9
:1022C0002EFA69D702C02AFA01C029FA196AF2BEA9
:1022D000198EF29E26CA49FE020E0E014A6F0001B7
:1022E000A1EC05F019BEF28E0A0129CA01F02ACA32
:1022F00002F00001EEEF1AF02ECA03F00A012DCA17
:10230000E9FF03C0EAFF010E006E2F51016E04E0E9
:10231000D8900036012EFCD70050FF0AEF14EF6E64
:10232000000112002DCA03F00A012CCAE9FF03C004
:10233000EAFF010E006E2E51016E04E0D8900036C7
:10234000012EFCD70050EF10EF6E000112000A01C1
:10235000296B2951030823E3C4C300F02951016EFE
:1023600004E0D8900032012EFCD70050010B15E09C
:1023700028530AE1080E2E6FBE0E2D6F29CA2FFAC0
:102380000001BADF09D00A01080E2D6FBE0E2C6FB6
:1023900029CA2EFA0001C6DF0A01292BDAD700016B
:1023A000BBEF12F0D8900A012E372E5302E18D8C2C
:1023B00001D08A8200011200D8900A012B312C6FC3
:1023C0002E6F0001EFDF080E0A012D6FC10E2C6F7A
:1023D0002BCA2EFA0001A6DF1200D8900A01283578
:1023E000036AEE0FE96E030E0320EA6EECCF2CFABF
:1023F000ED52EFCF2BFAD8902835036AF60FE96E2D
:10240000030E0320EA6EECCF2AFAED52EFCF29FA41
:10241000196AF2BE198EF29E2ACA4BFE29CA4AFEDA
:1024200000017AEC0CF019BEF28E196AF2BE198E18
:10243000F29E2CCA4BFE2BCA4AFE7AEC0CF019BE57
:10244000F28E080E0A012E6FC10E2D6F28CA2FFAC8
:10245000000152DFD8900A0128312D6F2E6F000144
:10246000A1DFCBEF12F0196AF2BE198EF29EC0C83E
:1024700048FE28CA49FE3FEC0CF019BEF28E01520C
:102480000AE0080E0A012E6FC00E2D6F28CA2FFA1F
:10249000000132DF09D0080E0A012D6FC00E2C6F2B
:1024A00028CA2EFA00013EDFD0EF12F0080E0A0112
:1024B0002D6FC00E2C6F2BCA2EFA000133DF1200D5
:1024C000080E0A012E6FC00E2D6F28CA2FFA0001C8
:1024D00013DFDAEF12F0D8900A012A372A5302E10B
:1024E0008D9C01D08A920001A3EF12F0080E0A0120
:1024F0002E6FC10E2D6F28CA2FFA0001FDDE0A01D2
:102500002851020B016EC1C800F0015204E0D890BE
:102510000032012EFCD70050010B16E12851020BAE
:10252000010F016EC1C800F0015204E0D8900032E2
:10253000012EFCD70050010B07E1D8902831296FFC
:102540002A6F0001C8D70A010001DFEF12F00A016B
:10255000276B2751030838E3C4C300F02751016EED
:1025600004E0D8900032012EFCD70050010B2AE085
:10257000286B0001ECD60A012651FA0F23E2060F60
:102580000001E6EF12F027CA2BFA16DF0A011AD073
:1025900027CA28FA22D70A0115D027CA28FA63D7F2
:1025A0000A0110D027CA2BFA81DF0A010BD027CAF3
:1025B00028FA86D70A0106D027CA28FA97D70A012F
:1025C00001D00A01272BC5D700011200E824F76AC1
:1025D000F736E70FF66E250EF7220A00F550FA6E71
:1025E0000800F550F96E862590259A25A425AE257C
:1025F000B8258E0E006E29CA01F028CA02F0036ABF
:10260000015209E102C001F0026A080E005E0152A7
:1026100002E1006A08D0D89001BE04D0023601362B
:102620000006F9D7019E12000A012C51D8B4A5D09A
:10263000386F3051D8B4A1D0385F05E37F0E38270A
:10264000D8B09BD006D0810E385FD8A096D0D8B431
:1026500094D038CA00F0016A026A036A376B2DCA47
:1026600036FA368F2ECA35FA2FCA34FA190E386F59
:102670003351345F0DE2010E355F0AE2365F08E246
:10268000375F06E2372B362B352B3351342728D0D2
:102690003251355F12E2010E365F0FE2375F0DE215
:1026A000372B362B325135273351342719E3352B4D
:1026B00017E1362B15E1372B13D031518009365FE6
:1026C0000EE2010E375F0BE2372B315180093627BE
:1026D00032513527E9E3362BE7E1372BE5D7038085
:1026E000382F01D00BD0D8903437353736373737BD
:1026F000D8900336023601363937BAD739A106D019
:10270000D890013202320332393302D0000635E06C
:1027100039BF1ED0D8903437353736373737335135
:10272000345F07E2010E355F04E2365F02E2375F95
:102730001AE33251355F05E2010E365F02E2375F80
:1027400012E331518009365F03E2010E375F0BE37C
:10275000032A09E1022A07E1012A05E1002A0DE026
:102760000132023203322DCA38FA3151381B38AFE8
:1027700002D0018E06D0019E04D0006A016A026A6E
:10278000036A000112000A012C51D8B471D0006E06
:102790003051D8B46DD0002604E3810E002668E2E3
:1027A00004D07F0E005E64E363E02DCA34FA315139
:1027B000341B2D8F318F2F513303F4CF36FA2E5126
:1027C0003203F4CF03F0F3CF35FA3303F350362757
:1027D000F4503523000E03222F513203F3503627D5
:1027E000F4503523000E026A032202222D513303D6
:1027F000F3503527F4500322000E02222D513203EC
:10280000F3500326F4500222000E016A01222F51D8
:102810003103F3503527F4500322000E0222012227
:102820002E513103F3500326F4500222000E0122F0
:102830002D513103F3500226F4500122002A01BE2B
:1028400005D035370336023601360006000E35AFA7
:102850000AD0032A02220122015005E1025003E1BD
:10286000035001E1002A34BF018E34AF019E04D031
:10287000006A016A026A036A000112008E0E006E8D
:102880000A012851005E29CA02F02ACA01F0028E0C
:10289000005209E0D890025202E1015204E00232F3
:1028A0000132002EF7D729AF05D0011E021E012AE2
:1028B000D8B4022A000112000A012A6B2A51030827
:1028C0004CE3C4C300F02A51016E04E0D8900032FA
:1028D000012EFCD70050010B3EE0292D1DD0BEC8B3
:1028E00000F02A51016E04E0D8900032012EFCD78E
:1028F0000050010B11E12ACA2BFA00015DDD2ACA42
:102900002BFAD4DD080E0A012D6FBE0E2C6F2ACAD9
:102910002EFA000107DD0A01036A2A51C20FE96E8F
:10292000080E0320EA6E28CAEFFF036A2A51C70F78
:10293000E96E080E0320EA6EEF50285D0CE00301FB
:10294000AD89036A0A012A51C70FE96E080E0320F8
:10295000EA6E28CAEFFF2A2BB1D7000112000A0144
:10296000296B27CA28FA000144DE03C02BFA02C0F3
:102970002AFA01C029FA00C028FA03C02FFA02C0BF
:102980002EFA01C02DFA00C02CFA0A01336B326B0B
:10299000480E316F850E306F000146DE03C02BFA02
:1029A00002C02AFA01C029FA00C028FA03C02FFA8F
:1029B00002C02EFA01C02DFA00C02CFA0A01336BB6
:1029C000326B7F0E316F860E306F0001DCDE03C08C
:1029D0002BFA02C02AFA01C029FA00C028FA4EDFF9
:1029E00001C027FA27CA28FA0A01296B000164DF0F
:1029F000120026CAC4F31200C4C300F00A01265113
:102A0000016E04E0D8900032012EFCD700A00FD058
:102A1000010E006E2651016E04E0D8900036012EA2
:102A2000FCD70050FF0A0301C4170DD00A01010EA4
:102A3000006E2651016E04E0D8900036012EFCD7BE
:102A400000500301C4130001A4EF1CF02FCA43F986
:102A50002ECA42F90901426BFC0E431742510A018A
:102A60002E5D0901406F43510A012F590901416F41
:102A7000456B446B000112003CCE01F03BCE00F0F0
:102A80000066012A0900F5CFEEFF002EFBD7012ECC
:102A9000F9D7F86A96EF15F0F250036EF29EA6840D
:102AA0000F01550EA76EAA0EA76EA6820000035056
:102AB000F21200011200F6503F0B006EC00EF61627
:102AC0000A003FCE01F000660BD0F650010F08E17E
:102AD000000EF720030B04E1A6880900DDDF0A00E1
:102AE000006607D0EECFF5FF015204E00F000106AB
:102AF00003D000060B000C003F0EF6143F0AE3E182
:102B0000CBDF0166E0D7F86A32EF16F00E013A81AA
:102B1000F86A2DCAF7FF2CCAF6FF0A0EEA6E340EC9
:102B2000E96E040E3C6F3B6B0001A6D7000ED88007
:102B30000A012E55006E040E2F55036E00C001F0E1
:102B40000350315D10E303E13051015C0CE2000EF3
:102B5000D8802E550E01386F040E0A012F550E0134
:102B6000396F06D00A0131CA39FE30CA38FE0E016B
:102B70002FCA35FE2ECA34FE376B366B3751395D9E
:102B80002AE303E13851365D26E2340E3425016E26
:102B90000A0E352101C03BFE3C6F36510A01322539
:102BA000016E0E0137510A01332101C0E9FFEA6EBF
:102BB000EFCF3DFE0E013CCEEAFF3BCEE9FF3DCE1E
:102BC000EFFF35CE03F03451342BD8B4352B362BF0
:102BD000D8B4372BD3D7F29CF29EF2BEFDD7356B1B
:102BE000346B355344E134510F0841E33435026E00
:102BF0003535036E023603360236033602360336A7
:102C00000236033602360336C00E021602500A019F
:102C10002C250E013B6F03500A012D210E013C6F44
:102C20003435026E3535036E02360336023603360E
:102C3000023603360236033602360336C00E02165B
:102C40000250340F3D6F0A0E03203E6FF86A3CCEEF
:102C5000F7FF3BCEF6FFEA6E3DCEE9FF400E3F6F39
:102C6000000129D70E01342BD8B4352BBAD7C00EAA
:102C7000F2120A0130512E250E013B6F0A0131512B
:102C80002F210E013C6F030822E2FF0A03E13B51B2
:102C900000081DE2040E0A012D27000ED8802E55D3
:102CA000006E040E2F55036E0050305F0350315BF1
:102CB000000ED8802E55006E040E2F55036E005066
:102CC0003227035033232F6B2E6B03D00E013A9122
:102CD0000A018B700E013AB11BD7000187EF16F085
:102CE0000901445302E145532BE043C92DFA42C97F
:102CF0002CFA41C92FFA40C92EFA45C931FA44C904
:102D000030FA090E0A01336F326B0001FFD6090158
:102D1000405142250A012C6F0901415143210A010A
:102D20002D6F090144510A012C27090145510A015F
:102D30002D232DCA2FFA2CCA2EFA000187DE090195
:102D400000011200090145C903F04451442BD8B4D5
:102D5000452B0A01E96E090E0324EA6E2ACAEFFF29
:102D60000901455303E144513F0803E20001B8DF84
:102D700009010001120029CA2BFA28CA2AFAE2DF47
:102D8000AFDF12000A0126530EE0F90E2F6FF20E8C
:102D90002E6F00015BDE0A01296B010E286F000116
:102DA000EADF0CD00A01F90E2F6FF20E2E6F000130
:102DB0004DDE0A01296B286B0001DDDFA4EF1CF05A
:102DC000C69E9E9635CAC9FF020EC6BE05D09EA6F7
:102DD000FED7000EC5BC010E016E1200C69CC58652
:102DE000C5B6FED700B0C59A00A0C58AC588C5B8CB
:102DF000FED7C9CF01F01200C6BC04D0C6BE02D0B7
:102E0000000E01D0010E016E67EF17F0C580C5B04E
:102E1000FED72ECA34FA2ECA35FA0001D1DF01528C
:102E200005E008EC08F0000E016E57D02FCA35FA05
:102E3000C7DF015205E008EC08F0000E016E4DD02E
:102E4000C582C5B2FED70A012E510109346F356F14
:102E50000001B6DF015205E008EC08F0000E016E3B
:102E60003CD0020E0A01346F000182EC0FF00A011F
:102E7000336B3051335D26E2010E305D335D10E17E
:102E800033513125016E000E3221036E01C0E9FF7E
:102E9000EA6E006A0001A2DF01C0EFFF10D00A0154
:102EA00033513125016E000E3221036E01C0E9FF5E
:102EB000EA6E010E006E000191DF01C0EFFF0A0112
:102EC000332BD7D7C584C5B4FED7000195D701529F
:102ED000D8A408EC08F0010E016E7CEF17F02ACAA6
:102EE0002EFA2BCA2FFA010E0A01306F2DCA32FAC0
:102EF0002CCA31FA00018AD71200C580C5B0FED7AE
:102F00002DCA33FA2DCA35FA00015ADF015205E005
:102F100008EC08F0000E016E2CD02ECA35FA50DFF6
:102F2000015205E008EC08F0000E016E22D00A0103
:102F3000326B2F51325D17E232513025016E000E97
:102F40003121036E01C0E9FFEA6EEFCF35FA0001CF
:102F500037DF015205E008EC08F0000E016E09D0E1
:102F60000A01322BE6D7C584C5B4FED7010E016E27
:102F7000000112002ACA2DFA2BCA2EFA010E0A01EC
:102F80002F6F0A0E316F2C0E306F0001B6DF12006A
:102F9000036A0A0126CAE9FF03C0EAFFEFCF2CFA51
:102FA000D00E2A6F2B6B2D6B000199DF0A01269F33
:102FB000130E006E002EFED700D0D00E2A6F2B6BA2
:102FC00026CA2CFA0001D6DF036A0A0126CAE9FFE5
:102FD00003C0EAFFEFCF2CFAD00E2A6F020E2B6F40
:102FE0002D6B00017CDF0A01269D130E006E002E62
:102FF000FED700D0D00E2A6F020E2B6F26CA2CFAF5
:103000000001B8DFD00E0A012A6F070E2B6F100ED9
:103010002C6F0001AFDF120029CA2AFA0A012B6BBC
:103020002A51090805E20A0E2A5F100E2B2703D049
:103030002A512B2701D0F4D72BCA01F0000124EF2D
:1030400018F028CA29FAE8D701C029FAD00E0A01D7
:103050002A6F27CA2BFA01C02CFA00018BDFD8EFA8
:103060001BF02ACA2BFAD8900A012B33780E2B17A3
:103070002B31006E00323F0E001600502B252C6FB6
:103080002A510F0B2C25016E00015BEF18F0D00EBA
:103090000A012A6F28CA2BFA0A0E2D6F290E2C6FEF
:1030A00000011DDF012C01D003D0640E016E04D09D
:1030B00029CA2AFAD6D70150120030CA03F00A01F1
:1030C0002FCAE9FF03C0EAFFEFCF4DFE196AF2BE37
:1030D000198EF29E0001CEEC08F019BEF28E01C0EE
:1030E00069F2010E0A012F25016E000E3021036ED8
:1030F00001C0E9FFEA6EEFCF4DFE196AF2BE198EEC
:10310000F29E0001CEEC08F019BEF28E01C068F20A
:10311000020E0A012F25016E000E3021036E01C040
:10312000E9FFEA6EEFCF4DFE196AF2BE198EF29EEC
:103130000001CEEC08F019BEF28E01C067F2030E5A
:103140000A012F25016E000E3021036E01C0E9FF38
:10315000EA6EEFCF4DFE196AF2BE198EF29E0001A3
:10316000CEEC08F019BEF28E01C066F20201328583
:10317000000104EF19F00A01296B2A6B296B29BFA2
:1031800003D0295103083AE3036A2951006EE8BECF
:1031900003062725E96E28510320EA6EEF5213E15A
:1031A0002951292B006EE8BE03D0005003080AE322
:1031B000036A29512B0FE96E0A0E0320EA6E200ED6
:1031C000EF6EEED719D0036A29512B0F016E0A0E4C
:1031D000032203C030FA036A2951E8BE03062725FB
:1031E000E96E28510320EA6EEFCF31FA30CAEAFFC8
:1031F00001C0E9FF31CAEFFF292BC1D70A0E306F9A
:103200002B0E2F6F000159D70801ED51B40802E0D1
:10321000000E01D0010E0A012F6F0801ED51B60812
:1032200002E0000E01D0010E0A012F1102E0050E8E
:10323000266FC580C5B0FED7EDC835FA0001C0DDE8
:10324000015001E066D026CA35FABADD0A012651DE
:10325000050829E1296B036A2951006EE8BE0306BF
:103260002725E96E28510320EA6EEF5217E029BFA7
:1032700004D029511F0801E211D0036A2951006EC0
:10328000E8BE03062725E96E28510320EA6EEFCF3A
:1032900035FA000195DD0A01292BDDD7356B0001D8
:1032A0008FDD34D00A01296B29BF03D029510308CF
:1032B0002CE3036A2951006EE8BE03062725E96E58
:1032C00028510320EA6EEF520FE12951292B006E9D
:1032D000E8BE03D00050030806E3200E356F00015E
:1032E0006FDD0A01F2D70FD0036A2951006EE8BEE4
:1032F00003062725E96E28510320EA6EEFCF35FA41
:1033000000015EDD0A01292BCFD70001C584C5B4B9
:10331000FED71200C580C5B0FED7EDC835FA50DD26
:10332000060E0A01356F00014BDDC584C5B4FED71A
:103330001200196AF2BE198EF29ED5EC01F019BE88
:10334000F28E6592656A658C00D000D00000659CA5
:10335000140E0F015F6F5C6B6586010E226E00011B
:10336000B5EF19F065B601D0E4D7222C0DD065BABF
:103370000BD0626A0F015C6BA088C00EF212110EB6
:103380005C6F020E226E000112009EA8FED7AE6E88
:103390001200196AF2BE198EF29E2ECA4EFE21EC60
:1033A00006F019BEF28E015254E0196AF2BE198E6F
:1033B000F29E0E01546B2ECA53FE566B080E556FCB
:1033C00000017DEC01F019BEF28E02C037FA01C097
:1033D00036FA040E0A013627000E3723020E362570
:1033E000016E000E3721036E01C0E9FF040E0324B5
:1033F000EA6EECCF35FAED52EFCF34FA35CAEAFF78
:1034000034CAE9FF30CAE2FF2FCAE1FF32CA02F034
:1034100031CA01F0015202E0022A02D0025206E053
:10342000E6CFEEFF012EFCD7022EFAD7196AF2BEC4
:10343000198EF29E2ECA49FE32CA4BFE31CA4AFE8E
:1034400033CA4CFE00014CEC06F019BEF28E01505E
:1034500002D0000E016E12000301ED51ED2B036A44
:10346000100FE96E080E0320EA6E2DCAEFFF0A0165
:103470002D510A0805E00301ED513F0816E20A014B
:10348000010E0801106FEDC311F80A012E6F080E2E
:10349000306F100E2F6F326B3F0E316F020E336F95
:1034A000000177DF020E0301ED6F000168EF1AF0F3
:1034B0000901462D06D00A012C51000166DF08D013
:1034C00009014651020805E12CCA2DFA0001C4D7B2
:1034D0000901000112000A0129CA2BFA2851D8B4A7
:1034E000290728072A6F2A5302E12B5326E027CA0F
:1034F0002BFA2651262BD8B4272B2A6FD8902A35A1
:10350000026E2B35036EE80E03242B6FF2CF2CFADC
:10351000F29EF86AF76E02C0F6FF0900F550080047
:10352000F5CF03F0F86A2CBFF28E2A6F03C02BFA96
:103530002C6F0001BDDFCFD70A01000110EF1DF095
:10354000020132B912D0036AAF516F0FE96E020E59
:103550000320EA6E27CAEFFFAF2BAF513F0801E20D
:10356000AF6BB051AF5D01E1328900011200050E71
:103570000A01276F0001E4DF12000D0E0A01276F18
:103580000001DEDF0A0E0A01276F0001D9DF1200F9
:10359000EEDF26CA27FAD4DFF0DF120009018381AB
:1035A0000A01036B000198EF10F00152D8B43BD32D
:1035B000010E0A01266F00019CEF10F00152D8B4F1
:1035C00032D3010E0A01266F090E286FC40E276F31
:1035D0002A6B3F0E296F000157EF11F00901C45308
:1035E000D8A4B4D1C5C903FA0A010351020A0001E3
:1035F00045E0010A54E0070AD8B463D0020AD8B4FF
:1036000067D00F0AD8B46ED00E0AD8B477D00F0A9C
:10361000D8B479D0030AD8B47BD0070AD8B47BD009
:10362000010AD8B47DD0070AD8B4A4D0380AD8B4D7
:10363000ABD0010AD8B4C1D00F0AD8B4DDD0010A8A
:10364000D8B4DAD0030AD8B416D1780AD8B415D1D0
:10365000010AD8B41DD10F0AD8B425D1010AD8B4B3
:103660002DD1030AD8B439D1440AD8B441D1010AC2
:10367000D8B44DD16B0AD8B466D166D10901C72D33
:1036800007D00A01266B0001A7EC12F007D0090150
:10369000010E0A01266F0001A7EC12F055D10901B5
:1036A000C72D08D0030E0A01266F0001A7EC12F007
:1036B00007D00901040E0A01266F0001A7EC12F0E1
:1036C00043D1020E0A01266F0001A7EC12F03CD193
:1036D000000E0901C8250A01266F276F0001AFEC13
:1036E00014F032D1000E0901C8250A01266F286F97
:1036F000010E296F00015CEC14F026D1C6C926FA30
:10370000F9EC14F021D1C6C926FAFCEF14F01CD153
:1037100089EC08F019D1C6C926FAC2EF16F014D107
:103720000901C6530BE1196AF2BE198EF29E00011F
:1037300072EC08F019BEF28E1AD00901C62D0BD01A
:10374000196AF2BE198EF29E00014AEC08F019BE09
:10375000F28E0DD00901C65102080AE1196AF2BEC3
:10376000198EF29E00017FEC08F019BEF28E09015D
:103770000001EAD00901C751010B010802E18B8069
:1037800001D08B900001E0D003DC0901846B8451EF
:10379000060811E3020E8425036AC40FE96E090EC0
:1037A0000320EA6EEFCF28FA84C927FA000149D432
:1037B0000901842BECD70001C7D00901846B845127
:1037C000060818E3240E8425036AAE0F016E030E6B
:1037D000032201C026FA03C027FA84C928FA00018F
:1037E00056DC27CAEAFF26CAE9FF01C0EFFF09013C
:1037F000842BE5D70001A8D00901846B036A8451AA
:10380000050F016E0A0E032203C027FA020E0901FA
:103810008425036AC40FE96E090E0320EA6EEFCF18
:1038200028FA0A0127CAEAFF01C0E9FF28CAEFFF08
:1038300009018451842B020F036AC40FE96E090E3B
:103840000320EA6EEF52DAE10A0103513C080AE173
:10385000030E266F0A0E286F050E276F00018BDC02
:1038600009D00A01050E266F0A0E286F050E276F74
:10387000000181DC69D04EDD67D0B80E0A012A6FE5
:10388000010E2B6F060E2C6F0001BAEC17F05CD006
:10389000B80E0A012A6F010E2B6F090E2C6F000162
:1038A000BAEC17F051D0B80E0A012A6F010E2B6F37
:1038B000120E2C6F0001BAEC17F046D0300E090141
:1038C000C6250A01266FB80E2A6F030E2B6F26CA73
:1038D0002CFA0001BAEC17F037D0B80E0A012A6FA3
:1038E000010E2B6F0C0E2C6F0001BAEC17F02CD0D0
:1038F000C6C92DFAC7C92EFAC8C92FFA090E0A017E
:10390000316FC90E306F00017DEC17F01DD0080E2D
:1039100008014F6FC6C92DFAC7C92EFAC8C92FFAB8
:103920000A01316F510E306F00017DEC17F0012C50
:1039300003D0C8C950F803D00801506B000108013A
:10394000FC87000101D0FF006ED10901C42D6DD0AC
:10395000C5C903FA196AF2BE198EF29E000172EC13
:1039600008F019BEF28E010E0A01035DFC0F5BE246
:10397000040F000118EF1EF00A01276BC6C926FAD2
:1039800026CA27FA266B0901C7510A01262502011A
:10399000556F000E0A0127210201566F0A01032DFF
:1039A0000DD055C22EFAE80E020156250A01276FE6
:1039B0002F6F000126EC15F008D00A0156C22FFA2D
:1039C00055C22EFA000126EC15F00A012CD009018F
:1039D000846BC651845D13E2030E8425036AC40F11
:1039E000E96E090E0320EA6EEFCF2AFA0A012B6B6B
:1039F0000001A2EC16F0B6DC0901842BEAD7000125
:103A000070EC16F00A010FD0C6C904FA56C227FAA4
:103A100055C226FA0A01296B04CA28FA00015BD5AF
:103A20000A0101D00A0100D10901C4510208D8A439
:103A3000FCD0C5C903FA010E0A01035DE60FD8B038
:103A4000F3D01A0F000129EF1EF0DD0E0A01266FD8
:103A500000019EDD0A01E8D0DC0E0A01266F00019C
:103A600097DD0A01E1D083DDDA0E0A01276F00013C
:103A700067DD0901846BC651845D0FE2030E842566
:103A8000036AC40FE96E090E0320EA6EEFCF27FA2E
:103A9000000156DD0901842BEED700016EDD0A011D
:103AA000C3D0DB0E0A01266F000172DD0A01BCD013
:103AB0000901C65307E1C90E0A01266F000168DD3E
:103AC00006D00901C80E0A01266F000161DD0A0156
:103AD000ABD00901C65307E1CB0E0A01266F0001E6
:103AE00057DD06D00901CA0E0A01266F000150DD1C
:103AF0000A019AD00901C65307E1D00E0A01266FC8
:103B0000000146DD06D00901CD0E0A01266F000135
:103B10003FDD0A0189D02BDDE10E0A01276F00018C
:103B20000FDD0901846BC651845D0FE2030E84250D
:103B3000036AC40FE96E090E0320EA6EEFCF27FA7D
:103B40000001FEDC0901842BEED7000116DD0A011D
:103B50006BD00DDDE20E0A01276F0001F1DC0901D7
:103B6000846BC651845D0FE2030E8425036AC40F83
:103B7000E96E090E0320EA6EEFCF27FA0001E0DCC0
:103B80000901842BEED70001F8DC0A014DD0EFDCEF
:103B9000D30E0A01276F0001D3DC0901846BC651E3
:103BA000845D0FE2030E8425036AC40FE96E090EDB
:103BB0000320EA6EEFCF27FA0001C2DC0901842B53
:103BC000EED70001DADC0A012FD00901C62D07D09B
:103BD000E30E0A01266F0001DBDC08D00901C653A1
:103BE00006E1E40E0A01266F0001D2DC09010A0198
:103BF0001BD00901C65307E1E50E0A01266F00013B
:103C0000C7DC0ED00901C62D0CD00001B0DCE70ED8
:103C10000A01276F000194DCC7C927FA91DCADDCEB
:103C200009010A0101D00A01090100017CEF34F009
:103C3000E824F76AF7364B0FF66E3C0EF7220A00BF
:103C4000F550FA6E0800F550F96E78397839CE39AA
:103C5000083AE824F76AF7366D0FF66E3C0EF72245
:103C60000A00F550FA6E0800F550F96E4A3A583AD3
:103C7000263C263C263C263C263C263C263CB03AAC
:103C8000D23AF43A263C263C663AA23A163B523BDC
:103C90008E3B263C263C263C263C263CCA3BF23B3F
:103CA0000301ADA748D0C282C2B2FED7C4CF83F908
:103CB0000901C3CF82F9D8900801BC35010F036A0E
:103CC000AE0FE96E030E0320EA6E09018351EF6E19
:103CD000D8900801BC35010F010F036AAE0FE96EE1
:103CE000030E0320EA6E090182C900F000C0EFFF55
:103CF000010E0801BC25070BBC6FBC5302E1FC851B
:103D000005D0BC51040802E1010EFF6F036ABC51EB
:103D1000B30FE96E080E0320EA6EEFCF84F90901B4
:103D20008435006E0036FC0E0016C250C30B001026
:103D3000C26E0301AD9700017EEF34F00801DDABE8
:103D400001D011D0FCA301D00ED0EB510A080BE238
:103D5000DDA909D0ED5302E0010E01D0000EDD9780
:103D6000E8B0DD87EB6B000180EF34F00901826B76
:103D7000836B846B8669876B886B0801DB6B090139
:103D800082510F08D8B48CD0836B835103084CE365
:103D9000196AF2BE198EF29E82C948FE83C949FE95
:103DA00000013FEC0CF019BEF28E015201E039D057
:103DB000036A09018351C20FE96E080E0320EA6EFF
:103DC000EFCF85F9853D01D002D085530CE1090E76
:103DD0000A012D6F820E2C6F83C92EFA000192EC1E
:103DE00011F01FD009018651855D0CE285C986F965
:103DF000010E876F8351016E04E0D8908737012E42
:103E0000FCD70ED08651855D0BE1010E006E83510B
:103E1000016E04E0D8900036012EFCD700508713C5
:103E200000010901832BB1D787518213863D01D050
:103E300036D0D8908435036ACC0FE96E080E032083
:103E4000EA6E8851865D8C6B8B6F196AF2BE198E93
:103E5000F29E8CC954FEE8CF53FE0E01566B960EAF
:103E6000556F00017DEC01F019BEF28E02C003F027
:103E70000150FF08006EFF0E035600C0EFFF03C0A5
:103E8000ECFF036A09018451D40FE96E080E032088
:103E9000EA6E87C9EFFF86C988F98669842B70D7D7
:103EA00084C9D8F884531FE08A6B88C989F9196AD4
:103EB000F2BE198EF29E8AC954FE88C953FE0E01C5
:103EC000566B960E556F00017DEC01F019BEF28E17
:103ED00002C003F00150FF0F0801D96F690E0220E4
:103EE000DA6F05D00901690E0801DA6FD96900019E
:103EF00081EF1FF00301ADAB06D0ADA904D00001E6
:103F000035D70301AD99000182EF34F0C1C8C5F384
:103F1000C0C8C6F3C2C8C7F3C3C8C8F3C4C8C9F38E
:103F2000C5C8CAF3F2C8CFF30301D06B82B0D02B5F
:103F3000D16B81B0D12B000184EF34F00201B0517C
:103F4000AF5D02E0000E01D0010E016E0001120013
:103F50000201AF51B05D0BE10901866B85C903F029
:103F600084C9E9FF03C0EAFFEF6A20D0020185C9D6
:103F700003F0090103C088F9036A0201B0516F0F11
:103F8000E96E020E0320EA6EEFCF89F9090188C9B4
:103F9000EAFF84C9E9FF89C9EFFF0201B02BB051E4
:103FA0003F0801E2B06B010E0901866F86C901F07E
:103FB0000001E2EF1FF0090E0901856F830E846F87
:103FC0000001C6D7090183C901F00001F5EF1FF018
:103FD0000901826B8251040812E30001AFDF015234
:103FE00003E009010CD00001E6D701C083F9090103
:103FF00083510001C5EC19F00901822BEBD70001B8
:104000005DEF21F0CBC903F00901CAC9E9FF03C084
:10401000EAFFEFCFCEF9CDC903F0CCC9E9FF03C069
:10402000EAFFEF50CE5D17E1CBC903F0CAC9E9FF43
:1040300003C0EAFFEF5203E1000E016E21D0CBC9AD
:1040400003F0CA51CA2BD8B4CB2BCC2BD8B4CD2B70
:104050000001D8D70901CBC903F0CAC9E9FF03C0E1
:10406000EAFFEFCFCEF9CDC903F0CCC9E9FF03C019
:10407000EAFFEF50CE5D02E2FF0E01D0010E016EAD
:10408000000112000901C76BC751030820E3C751A3
:104090000C0DF350036A340F016E030E032201C0AE
:1040A000C8F903C0C9F903C0CBF901C0CAF9C6C930
:1040B000CDF9C5C9CCF90001A5DF015205E109011F
:1040C000C7C901F006D000010901C72BDDD7FF0EDB
:1040D000016E00011200006A016A0901C351D89003
:1040E000C4B1002600320132C4B3002600320132CE
:1040F000C4B5002600320132C4B7002600320132B6
:10410000C4B9002600320132C4BB0026003201329D
:10411000C4BD002600320132C4BF00260032013285
:10412000000112000901846B856B866B876B886BBD
:10413000896B8A6B8B6B8C6B8D6B8E6B8F6B906BC3
:10414000926B020132AB07D0020E0901836FF00EB1
:10415000826F06D00201020E0901836FB10E826FD9
:10416000020E8227000E8323906B90518225016EF0
:10417000000E8321036E01C0E9FFEA6EEF502C08A8
:104180001CE0036A9051840F016E090E032201C0E6
:1041900093F903C094F990518225016E000E83219A
:1041A00001C0E9FFEA6EEFCF95F994C9EAFF93C920
:1041B000E9FF95C9EFFF902BD8D7090EC66F840E83
:1041C000C56F00015FDF01C092F909019251FF083C
:1041D00034E10301AC2B030EAC17ACC392F9090117
:1041E000916B92C9C3F90C0EC46F000174DF0150CA
:1041F0000901946B936F036A91519325016E945159
:1042000003220150340F016E030E032201C093F903
:1042100003C094F9036A9151840FE96E090E0320DB
:10422000EA6EEFCF95F994C9EAFF01C0E9FF95C99D
:10423000EFFF955302E0912BD4D7916B92C9C3F94C
:104240000C0EC46F000147DF01500901946B936F9E
:10425000036A91519325016E945103220150640F1A
:10426000016E030E032201C093F903C094F990512B
:104270008225956F000E8321966F91519527000E30
:104280009623010E9525016E000E9621036E01C046
:10429000E9FFEA6EEFCF95F994C9EAFF93C9E9FF08
:1042A00095C9EFFF955302E0912BC8D7000162EF4B
:1042B00021F044DE015201E18BD6020132AF04D07D
:1042C000000130D70201329F000186EF34F0020175
:1042D00032A105D03291330E016E14D013D056C2E4
:1042E00003F05551552BD8B4562B0901926F03C0DA
:1042F00093F9100E9225E96E050E0320EA6EEFCFBA
:1043000001F0020100011200196AF2BE198EF29E3C
:1043100072EC08F019BEF28E89EC08F0640E0A0106
:10432000346F000182EC0FF089EC08F012002B5280
:1043300010E02B06D8902B34036A2D0FE96E000E87
:104340000320EA6EEFCF01F0EE52EDCF02F003D082
:1043500002D02C82D9DF120001012D517F0812E317
:104360002D512D2B006ED89000360050036A2E0F71
:10437000E96E010E0320EA6E93C9ECFFED5292C97B
:10438000EFFF04D00001C0DF2C8401010001120006
:104390002B507F0812E32B502B2A006ED89000364A
:1043A0000050036A2D0FE96E000E0320EA6EC6C9A5
:1043B000ECFFED52C5C9EFFF02D0A6DF2C80120042
:1043C00001012D5310E02D07D8902D35036A2E0FD3
:1043D000E96E010E0320EA6EEFCF01F0EE52EDCF51
:1043E00002F005D004D02C8600018EDF010100010F
:1043F0001200010E0901C05F0DE3090EEA6EC00E46
:10440000E96EEF5007E0020E006E002EFED700D0DE
:10441000EF2EF9D7000112000901C76BC86B010E1E
:10442000C96FDA6AD96A090ECC6FBF0ECB6F090E5D
:10443000EA6EC30EE96ECCC9E2FFCBC9E1FFC9C980
:10444000CAF9D890E550EE02F350C723F450C823C0
:10445000CA2FF7D7C7C9DEFFC8C9C7F9C86BD8B01C
:10446000C82BCB2BD8B4CC2BC92BC9510508DFE105
:1044700000014EEF22F05EC2C2F95DC2C1F95CC21A
:10448000C0F95BC2BFF9410E0901C66FC60EC56F08
:104490004E0EC46F6D0EC36F0001BED7390E0901F9
:1044A000002402015B6F300E0901012002015C6FE4
:1044B000000E0901022002015D6F000E09010320B8
:1044C00002015E6F5DC200F05EC201F0026A036A23
:1044D00001C0C1F900C0C0F9196AF2BE198EF29E7E
:1044E00001C04EFE00C04DFE0E0150694F69000133
:1044F00037EC0AF019BEF28E00C001F003C002F0E2
:1045000036EF2BF00901C16BC151030824E3C4C38A
:1045100000F0C151016E04E0D8900032012EFCD7AA
:104520000050010B16E0036AC151C20F016E080E64
:10453000032203C0C3F9036AC151C20FE96E080E1A
:104540000320EA6EC051EF24C3C9EAFF01C0E9FFAE
:10455000EF6EC12BD9D70301AD8900011200196A92
:10456000F2BE198EF29EC6C94EFEC5C94DFE0E01A1
:10457000506B0A0E4F6F000137EC0AF019BEF28E35
:1045800002C0C9F901C0C8F9196AF2BE198EF29EBB
:1045900002C054FE01C053FE0E01566B0A0E556F49
:1045A00000017DEC01F019BEF28E01500901C55DDC
:1045B000C76F196AF2BE198EF29EC7C94DFE00017F
:1045C000CEEC08F019BEF28E01C066F2196AF2BE96
:1045D000198EF29EC6C94EFEC5C94DFE0E01506B26
:1045E0000A0E4F6F000137EC0AF019BEF28E02C0BE
:1045F000C6F901C0C5F90901C55306E1C65304E176
:104600000201676B39D00901196AF2BE198EF29E58
:10461000C6C94EFEC5C94DFE0E01506B0A0E4F6F46
:10462000000137EC0AF019BEF28E02C0C9F901C0D0
:10463000C8F9196AF2BE198EF29E02C054FE01C07A
:1046400053FE0E01566B0A0E556F00017DEC01F012
:1046500019BEF28E01500901C55DC76F196AF2BE1D
:10466000198EF29EC7C94DFE0001CEEC08F019BEAE
:10467000F28E01C067F20201196AF2BE198EF29E33
:10468000C6C94EFEC5C94DFE0E01506B0A0E4F6FD6
:10469000000137EC0AF019BEF28E02C0C6F901C063
:1046A000C5F90901C55306E1C65304E10201686B6F
:1046B00039D00901196AF2BE198EF29EC6C94EFEA2
:1046C000C5C94DFE0E01506B0A0E4F6F000137EC4D
:1046D0000AF019BEF28E02C0C9F901C0C8F9196A00
:1046E000F2BE198EF29E02C054FE01C053FE0E01AE
:1046F000566B0A0E556F00017DEC01F019BEF28E6B
:1047000001500901C55DC76F196AF2BE198EF29E8C
:10471000C7C94DFE0001CEEC08F019BEF28E01C0F3
:1047200068F20201196AF2BE198EF29EC6C94EFEE7
:10473000C5C94DFE0E01506B0A0E4F6F000137ECDC
:104740000AF019BEF28E02C0C6F901C0C5F909010E
:10475000C55306E1C65304E10201696B39D0090172
:10476000196AF2BE198EF29EC6C94EFEC5C94DFE2B
:104770000E01506B0A0E4F6F000137EC0AF019BEA4
:10478000F28E02C0C9F901C0C8F9196AF2BE198EC9
:10479000F29E02C054FE01C053FE0E01566B0A0E7B
:1047A000556F00017DEC01F019BEF28E0150090138
:1047B000C55DC76F196AF2BE198EF29EC7C94DFE5C
:1047C0000001CEEC08F019BEF28E01C069F20201C0
:1047D00032850001F1EF23F0C2C9C6F9C1C9C5F99C
:1047E000BED6C580C5B0FED7EDC835FAE0EC16F0F0
:1047F000015003E008EC08F01DD0020E0A01356FED
:104800000001E0EC16F00901C251036AC56FE8CF60
:1048100035FA0001E0EC16F00901C1C900F0036AA5
:1048200000C0C5F900C035FA0001E0EC16F0C584FF
:10483000C5B4FED794EF2EF00901BF6BC580C5B09B
:10484000FED70801ED5101090901C06FE8CF35FA23
:104850000001E0EC16F0006AEEEC16F001C0BFF9C2
:104860000901BF2BC584C5B4FED7BFC901F0000143
:10487000EEEF2EF0C580C5B0FED7EDC835FAE0ECFE
:1048800016F0080E0A01356F0001E0EC16F0C1C900
:1048900035FAE0EC16F0C584C5B4FED703EF2FF06F
:1048A000020132AB0DD0036A0901C451F00FE96E69
:1048B000020E0320EA6EEFCF01F00CD00BD0020104
:1048C000036A0901C451B10FE96E020E0320EA6EBA
:1048D000EFCF01F000011200120E0901C46F0001B8
:1048E000DFDF0901C39101B0C381000EC3B1010E26
:1048F000016E000146EF27F0120E0901C46F00019E
:10490000CFDF0901C39101B2C381000EC3B1010E13
:10491000016E00015FEF27F0120E0901C46F000164
:10492000BFDF0901C39101B4C381000EC3B1010E01
:10493000016E00016AEF27F0FADC01C0C3F9010E35
:104940000901C46FC451C35D0DE30001F0DC02C076
:10495000C6F901C0C5F901C027FAA0EC1AF0090197
:10496000C42BF0D700011200B7EC1AF0140E0A01A4
:10497000276F0001A0EC1AF0C4C927FAA0EC1AF0C6
:10498000C5C927FAA0EC1AF0BDEC1AF0EDEF24F03F
:10499000036A0901C451F00FE96E020E0320EA6EAA
:1049A000C5C9EFFF036AC451B10FE96E020E0320BF
:1049B000EA6EC5C9EFFF0001F3EF24F0140E090100
:1049C000C46F00016DDF01C0C3F90901C3530CE0DE
:1049D000140EC46FC56B0001C7D7140E0901C46F54
:1049E000C56B0001D5D70901C3C901F00001E2EF91
:1049F00027F00901CA6BCB6BCC6BCD6BCE6BCF6B49
:104A0000196AF2BE198EF29EC8C94EFEC7C94DFE84
:104A10000E01506B0A0E4F6F000137EC0AF019BE01
:104A2000F28E02C0D1F901C0D0F9196AF2BE198E16
:104A3000F29E02C054FE01C053FE0E01566B0A0ED8
:104A4000556F00017DEC01F019BEF28E0150090195
:104A5000C75DC96F196AF2BE198EF29EC8C94EFEB3
:104A6000C7C94DFE0E01506B0A0E4F6F000137ECA7
:104A70000AF019BEF28E02C0C8F901C0C7F90901D7
:104A8000CF51CF2B036ACA0FE96E090E0320EA6EDD
:104A9000C9C9EFFFC753B4E1C853B2E1CF07036AF6
:104AA000CF51CA0FE96E090E0320EA6EEF50300FA6
:104AB000D06FE8CF27FA0001A0EC1AF00901CF531C
:104AC000EDE1000169EF25F0C6C9C8F9C5C9C7F90C
:104AD00090D712001D0E0901C46F0001E1DE0150E4
:104AE00062EF28F01C0E0901C46F0001D9DE01C07D
:104AF000C3F9000E090101B2010E016E000180EF41
:104B000028F01C0E0901C46F0001CADE01C0C3F900
:104B1000000E090101B0010E016E00018BEF28F0BB
:104B2000C4C9C6F9C3C9C5F942EC20F0015012004E
:104B30000901CE51D019800BD26FCEAF05D0CD1F59
:104B4000CE1FCD2BD8B4CE2BD0AF05D0CF1FD01FCA
:104B5000CF2BD8B4D02BCD51CF03F3CF01F0F4CF6E
:104B600000F0D003F3500026CE51CF03F3500020C5
:104B7000026ED2AF05D0011E021E012AD8B4022A4D
:104B8000000130EF26F00901CB6BC96B0A0ECA6F2A
:104B9000C86BC76BC551C61104E1000E016E026EF1
:104BA000E2D0CB51CB2BC525E96E000EC621EA6EB3
:104BB000EFCFCCF9CC512D080CE1010EC96FCB51D0
:104BC000CB2BC525E96E000EC621EA6EEFCFCCF9DE
:104BD0000CD0CC512B0809E1CB51CB2BC525E96E6C
:104BE000000EC621EA6EEFCFCCF9CC512F08D8B019
:104BF000ACD0CC513908D8A0A8D0CC5130081EE197
:104C0000CB51C525E96E000EC621EA6EEF5078083B
:104C100009E0CB51C525E96E000EC621EA6EEF50C2
:104C200058080CE1100ECA6FCB2BCB51CB2BC525EE
:104C3000E96E000EC621EA6EEFCFCCF9CA510A0820
:104C400022E1CC512F081EE2CC5139081BE3CE6B78
:104C50000A0ECD6FC8C9D0F9C7C9CFF9000168D70E
:104C6000300E0901CC5D0124C76F000E0220C86F11
:104C7000CB51CB2BC525E96E000EC621EA6EEFCFD6
:104C8000CCF9DFD762D0CA5110085FE1CC5160087F
:104C900006E2CC517A0803E3CC51DF0B01D0CC51B2
:104CA000CC6FCC512F0803E2CC51390806E2CC512D
:104CB00040084BE2CC51460848E3CC512F081AE299
:104CC000CC51390817E3C735CD6FC835CE6FCD3716
:104CD000CE37CD37CE37CD37CE37F00ECD17300E9D
:104CE000CC5DCD25016E000ECE21036E01C0C7F94B
:104CF000C86F16D0C735CD6FC835CE6FCD37CE371C
:104D0000CD37CE37CD37CE37F00ECD17410ECC5D37
:104D10000A0FCD25016E000ECE2101C0C7F9C86F64
:104D2000CB51CB2BC525E96E000EC621EA6EEFCF25
:104D3000CCF9CC51600806E2CC517A0803E3CC519F
:104D4000DF0B01D0CC51CC6FACD7CA510A0807E1B8
:104D5000C92D05D0C71FC81FC72BD8B4C82BC7C9BA
:104D600001F0C8C902F000011CEF29F00901BF5190
:104D7000020A0001D8B46DD0030AD8B471D0C90AB0
:104D8000D8B475D0010AD8B479D0070AD8B47DD088
:104D9000040AD8B485D0010AD8B489D0040AD8B49A
:104DA0008DD0030AD8B495D0010AD8B49DD01D0A7D
:104DB000D8B4A1D0020AD8B4A4D0010AD8B4A8D0DB
:104DC000070AD8B4B8D0010AD8B4CFD0030AD8B4EF
:104DD000CDD0010AD8B4D6D03D0AD8B4DAD0320A40
:104DE000D8B4E3D0010AD8B4ECD0030AD8B4F4D0D4
:104DF000010AD8B404D1050AD8B408D1010AD8B43C
:104E000011D13F0AD8B42BD1030AD8B445D1070A2F
:104E1000D8B449D1010AD8B44DD1030AD8B451D17C
:104E2000010AD8B459D10F0AD8B469D1010AD8B44B
:104E300071D1020AD8B479D1060AD8B4ADD1010A29
:104E4000D8B405D2020AD8B46CD2010AD8B48DD233
:104E5000BDD2020E0A01266F0001C8EC1AF0B8D2CA
:104E6000010E0A01266F0001C8EC1AF0B1D2C80E7B
:104E70000A01266F0001C8EC1AF0AAD2C90E0A0175
:104E8000266F0001C8EC1AF0A3D226D501C0C3F9E1
:104E90000901C66B01C0C5F90001C8EC21F098D228
:104EA000CA0E0A01266F0001C8EC1AF091D2CB0E8F
:104EB0000A01266F0001C8EC1AF08AD21DD501C084
:104EC000C3F90901C66B01C0C5F90001C8EC21F0A6
:104ED0007FD222D501C0C3F90901C66B01C0C5F953
:104EE0000001C8EC21F074D2CD0E0A01266F00013A
:104EF000C8EC1AF06DD2D00E0A01266F0001C8EC82
:104F00001AF0D20E0A01266F0001C8EC1AF060D226
:104F1000B7EC1AF0D30E0A01276F0001A0EC1AF0CB
:104F20000BDD2C0E0A01276F0001A0EC1AF004DD46
:104F3000BDEC1AF04DD2B7EC1AF0D40E0A01276F6F
:104F40000001A0EC1AF0F8DC2C0E0A01276F00011A
:104F5000A0EC1AF0F1DC2C0E0A01276F0001A0EC86
:104F60001AF0EADCBDEC1AF033D232D2B7EC1AF008
:104F7000D60E0A01276F0001A0EC1AF0DDDCBDECB3
:104F80001AF026D2D70E0A01266F0001C8EC1AF0DB
:104F90001FD2B7EC1AF0EA0E0A01276F0001A0EC4D
:104FA0001AF0CADCBDEC1AF013D2B7EC1AF0D80E26
:104FB0000A01276F0001A0EC1AF0BEDCBDEC1AF06C
:104FC00007D2FCD401C0C3F90901C66B01C0C5F901
:104FD0000001C8EC21F0FCD1B7EC1AF0DA0E0A019E
:104FE000276F0001A0EC1AF0A7DC2C0E0A01276F36
:104FF0000001A0EC1AF0A0DCBDEC1AF0E9D1DB0E48
:105000000A01266F0001C8EC1AF0E2D1B7EC1AF0E1
:10501000DE0E0A01276F0001A0EC1AF08DDCBDEC5A
:105020001AF0D6D1B7EC1AF0DF0E0A01276F000193
:10503000A0EC1AF081DC2C0E0A01276F0001A0EC15
:105040001AF097EC21F002C0C4F901C0C3F902C004
:10505000C6F901C0C5F938DDBDEC1AF0B9D1B7EC1D
:105060001AF0E00E0A01276F0001A0EC1AF064DCD0
:105070003B0E0A01276F0001A0EC1AF097EC21F01B
:1050800002C0C4F901C0C3F902C0C6F901C0C5F924
:105090001BDDBDEC1AF09CD1E30E0A01266F000166
:1050A000C8EC1AF095D1E40E0A01266F0001C8EC95
:1050B0001AF08ED1E50E0A01266F0001C8EC1AF035
:1050C00087D108D501C0C3F90901C66B01C0C5F974
:1050D0000001C8EC21F07CD1B7EC1AF0E70E0A0110
:1050E000276F0001A0EC1AF097EC21F001C0C3F982
:1050F00001C027FAA0EC1AF0BDEC1AF069D1F2D485
:1051000001C0C3F90901C66B01C0C5F90001C8ECB3
:1051100021F05ED1F6D401C0C3F90901C66B01C00C
:10512000C5F90001C8EC21F053D197EC21F001C082
:10513000C0F90901C16BC051C15D16E2036AC151DA
:10514000940F016E030E032201C0C3F903C0C4F91A
:10515000000197EC21F0C4C9EAFFC3C9E9FF01C00F
:10516000EFFF0901C12BE7D7036AC151940FE96E24
:10517000030E0320EA6EEF6A030EC46F940EC36F32
:105180000001CEDC01C0C3F90901C66B01C0C5F93D
:105190000001C8EC21F01CD197EC21F001C0C0F94E
:1051A0000901C16BC051C15D16E2036AC151940F80
:1051B000016E030E032201C0C3F903C0C4F900014C
:1051C00097EC21F0C4C9EAFFC3C9E9FF01C0EFFFB2
:1051D0000901C12BE7D7036AC151940FE96E030E91
:1051E0000320EA6EEF6A030EC46F940EC36F0001D2
:1051F00097DC01C0C2F90901C251FF0806E1C66986
:10520000C5690001C8EC21F00901C2C9C3F90C0E3F
:10521000C46F00016BEC20F00150036A640F016E53
:10522000030E032201C0C3F903C0C4F903C0C6F9C9
:1052300001C0C5F90001A7D402C0C4F901C0C3F977
:1052400002C0C6F901C0C5F9C8EC21F0C1D097EC85
:1052500021F001C0C0F90901C16BC051C15D16E266
:10526000036AC151A00F016E030E032201C0C3F9EE
:1052700003C0C4F9000197EC21F0C4C9EAFFC3C917
:10528000E9FF01C0EFFF0901C12BE7D7036AC15154
:10529000A00FE96E030E0320EA6EEF6A000197EC9F
:1052A00021F001C0C2F90901C251FF0805E0C2BFE7
:1052B0000AD0C251040807E2C66BC56B0001C8ECF6
:1052C00021F086D00901C2C9C3F90C0EC46F0001D8
:1052D0006BEC20F00150036A640F016E030E032291
:1052E00001C0C3F9090103C0C4F903C0CBF901C06F
:1052F000CAF9030ECD6FA00ECC6F000102EC20F0B6
:10530000015208E10901C66B010EC56F0001C8EC2E
:1053100021F006D00901C66BC56B0001C8EC21F075
:1053200057D00901C16BC15103081DE3C1510C0DD8
:10533000F350C46BC36F340EC325E96E030EC42152
:10534000EA6EEF6AC1510C0DF350C46BC36F640E6B
:10535000C325E96E030EC421EA6EEF6A0301AC6B4C
:105360000901C12BE0D7000133D0B7EC1AF0EF0EE2
:105370000A01276F0001A0EC1AF09CEC24F02C0E1F
:105380000A01276F0001A0EC1AF097EC21F001C090
:10539000C1F90901C12D0FD0000197EC21F002C025
:1053A000C4F901C0C3F902C0C6F901C0C5F964EC73
:1053B00025F007D00901C151020804E100019CEC6D
:1053C00024F009010001BDEC1AF002D084EC21F0B8
:1053D00075EF2FF00901916B996B986B9051140A3E
:1053E0000001D8B4E8D0010AD8B4FDD04A0AD8B434
:1053F00008D13F0AD8B424D1760AD8B42FD1010AF3
:10540000D8B456D10F0AD8B453D1010AD8B450D168
:10541000030AD8B44DD1010AD8B44AD1070AD8B486
:1054200047D1010AD8B444D1030AD8B441D1010A02
:10543000D8B43ED13F0AD8B43BD1010AD8B438D150
:105440001F0AD8B435D1030AD8B432D11F0AD8B450
:1054500002D2010AD8B40FD2070AD8B429D2080A56
:10546000D8B440D2010AD8B43FD2030AD8B43ED24D
:10547000010AD8B440D21C0AD8B442D2060AD8B421
:1054800042D2010AD8B442D2020AD8B442D20A0A9D
:10549000D8B442D20D0AD8B442D2030AD8B43FD20B
:1054A000090AD8B450D2040AD8B459D27F0AD8B461
:1054B0005AD2010AD8B475D2030AD8B490D2010ADC
:1054C000D8B4ABD20A0AD8B4C6D20D0AD8B420D305
:1054D000010AD8B427D3030AD8B426D3010AD8B412
:1054E00025D30F0AD8B431D37F0AD8B43DD30F0ADD
:1054F000D8B459D36D0AD8B47CD3030AD8B47CD3BA
:10550000010AD8B47CD30F0AD8B479D3010AD8B42D
:1055100076D3030AD8B429EF2EF0010AD8B435EFB8
:105520002EF0070AD8B43BEF2EF0010AD8B441EFB1
:105530002EF0030AD8B44DEF2EF03F0AD8B462EF34
:105540002EF0030AD8B466EF2EF0010AD8B47BEF30
:105550002EF0070AD8B4E8EF2EF0010AD8B4ECEF29
:105560002EF0030AD8B4F9EF2EF0010AD8B405EFF3
:105570002FF00F0AD8B40AEF2FF0010AD8B40FEFBA
:105580002FF0030AD8B414EF2FF0010AD8B419EFA2
:105590002FF0070AD8B435EF2FF01C0AD8B456EF15
:1055A0002FF0010AD8B462EF2FF0030AD8B46AEFE3
:1055B0002FF071EF2FF00801FCB10AD0DDA108D067
:1055C000010E0A01346F000182EC0FF0F4D70801DC
:1055D000F3C8C6F9F2C8C5F90001C8EC21F008010A
:1055E000FC9176EF2FF0000E0801FCB1010E0901CD
:1055F000BF6FC66BC56F0001C8EC21F0080176EFE4
:105600002FF00801DC5310E1DDA10ED0020E0901DC
:10561000BF6FFA0EC06F0001F9EC21F00901BF2F36
:10562000F8D70001EED708010901C66BDCC8C5F93F
:105630000001C8EC21F00301AD9F080176EF2FF0C7
:10564000000E0301ADBF010E0901BF6FC66BC56F30
:105650000001C8EC21F0080176EF2FF097EC21F063
:1056600002C093F901C092F93BEF22F002C0C0F9E9
:1056700001C0BFF9196AF2BE198EF29E02C04EFE39
:1056800001C04DFE93C950FE92C94FFE37EC0AF09F
:1056900019BEF28E00C0BFF903C0C0F903C0C6F93D
:1056A00000C0C5F90001C8EC21F0080176EF2FF029
:1056B00097EC21F002C095F901C094F997EC21F024
:1056C00002C093F901C092F9170E0901905DD80F3D
:1056D000D8B0B8D0280F000179EF2FF0090194510C
:1056E000922795519323AED009019451925F955121
:1056F000935BA8D0196AF2BE198EF29E93C954FE2C
:1057000092C953FE95C956FE94C955FE7DEC01F031
:1057100019BEF28E02C093F901C092F9090192D02C
:10572000196AF2BE198EF29E93C94EFE92C94DFEC1
:1057300095C950FE94C94FFE37EC0AF019BEF28E9F
:1057400002C093F901C092F909017CD0196AF2BE36
:10575000198EF29E93C94EFE92C94DFE95C950FE18
:1057600094C94FFE37EC0AF019BEF28E00C092F9D0
:10577000090103C093F966D009019451925D03E1D8
:105780009551935D02E0000E01D0010E936B926F74
:1057900059D009019551935D04E305E19251945D5F
:1057A00002E3000E01D0010E936B926F4BD0090102
:1057B0009351955D04E305E19451925D02E3000E7F
:1057C00001D0010E936B926F3DD00901925193115C
:1057D00003E09451951102E1000E01D0010E936B8C
:1057E000926F30D009019251931105E194519511B6
:1057F00002E1000E01D0010E936B926F23D00901DC
:105800009451921B9551931B1DD009019351955DA5
:1058100004E305E19251945D02E2000E01D0010E15
:10582000936B926F0FD009019551935D04E305E1ED
:105830009451925D02E2000E01D0010E936B926FC3
:1058400001D0090193C9C6F992C9C5F90001C8EC94
:1058500021F008014BD397EC21F001500210000E0B
:10586000D8B4010E0901BF6FC66BC56F0001C8EC4B
:1058700021F008013BD397EC21F002C099F901C057
:1058800098F997EC21F002C0C0F9D89009010134D1
:10589000026EC035036E0250330FE96E020E032014
:1058A000EA6E99C9ECFFED5298C9EFFF08011ED3CB
:1058B00097EC21F002C0C0F9D89009010134026EC2
:1058C000C035036E0250330FE96E020E0320EA6EFC
:1058D000ECCFC6F9ED52EFCFC5F90001C8EC21F0CD
:1058E000080104D3080102D3080100D3010E03010B
:1058F000C46F0801FBD2020E0301C46F0801F6D287
:105900000901912B00010901912B00010901912B43
:1059100000010901912B00010901912B000191C99E
:1059200026FAA7EC12F00901905132080AE10001B1
:1059300097EC21F002C0DFF801C0DEF802013281ED
:1059400009010801D3D297EC21F002C0C0F901C0CF
:10595000BFF901C027FAAFEC14F00801C7D297ECE9
:1059600021F00801C3D297EC21F002C093F901C0E5
:1059700092F9090192510801C115006E036A0050A5
:105980000901925D03E10350935D02E0000E01D036
:10599000010EBF6FC66BC56F0001C8EC21F0080196
:1059A000A5D297EC21F002C093F901C092F9080149
:1059B000C151FF0A09019215006E036A0050925D01
:1059C00003E10350935D02E0000E01D0010EBF6FB2
:1059D000C66BC56F0001C8EC21F0080187D297ECB7
:1059E00021F002C093F901C092F909019251080116
:1059F000C015006E036A00500901925D03E1035077
:105A0000935D02E0000E01D0010EBF6FC66BC56F43
:105A10000001C8EC21F0080169D297EC21F002C026
:105A200093F901C092F90801C051FF0A09019215CA
:105A3000006E036A0050925D03E10350935D02E043
:105A4000000E01D0010EBF6FC66BC56F0001C8EC20
:105A500021F008014BD297EC21F002C0C0F901C03F
:105A6000BFF9C20E09010124E96E080E0220EA6E98
:105A7000EF500A01296B286F0001F9EC12F003C006
:105A8000C4F902C0C3F901C0C2F900C0C1F903C022
:105A90002FFA02C02EFA01C02DFA00C02CFA0A011A
:105AA000336B326B7F0E316F860E306F000114EC5A
:105AB00013F003C0C4F902C0C3F901C0C2F900C0A9
:105AC000C1F903C02FFA02C02EFA01C02DFA00C09E
:105AD0002CFA0A01336B326B480E316F850E306F32
:105AE0000001C3EC13F003C02BFA02C02AFA01C074
:105AF00029FA00C028FA3EEC14F001C0C1F90901EE
:105B0000C66B01C0C5F90001C8EC21F00801EED157
:105B1000196AF2BE198EF29E72EC08F019BEF28E6E
:105B20000801E4D10801E2D10801E0D197EC21F0AD
:105B300001C0BFF90901C06BC0C9C6F901C0C5F9F0
:105B40000001C8EC21F00801D1D197EC21F002C08E
:105B5000BFF90901C06BC0C9C6F902C0C5F900018F
:105B6000C8EC21F00801C2D197EC21F001C091F9F5
:105B7000010E0901915DBF6F196AF2BE198EF29E86
:105B8000E8CF49FE000116EC0AF019BEF28E02C001
:105B9000C0F901C0BFF902C0C6F901C0C5F9C8EC1F
:105BA00021F00801A3D197EC21F001C091F9010E79
:105BB0000901915DBF6F196AF2BE198EF29EE8CF9E
:105BC00049FE000116EC0AF019BEF28E02C0C0F9BF
:105BD000D890036A09010230026E0310000ED8B497
:105BE000010EBF6FC66BC56F0001C8EC21F0080144
:105BF0007DD18B8008017AD18B90080177D197EC09
:105C000021F001C091F90901905157080AE191C9A9
:105C100028FA010E0A01296F00015CEC14F017D07C
:105C200009019051580807E191C9C0F9000182ECBF
:105C300022F00DD00901C36991C9C4F900016BECD0
:105C400020F001C0BFF901C0C0F982EC22F00801C8
:105C50004DD197EC21F002C093F901C092F992C99D
:105C600026FAF9EC14F0080141D10801DD8BC5805A
:105C7000C5B0FED73BD1C584C5B4FED70801DD9BB6
:105C800035D197EC21F002C0C0F901C0BFF901C0C5
:105C900035FAE0EC16F0080129D197EC21F002C0AA
:105CA000C0F901C0BFF901C000F0EEEC16F001C070
:105CB000BFF90901C66B01C0C5F90001C8EC21F0AC
:105CC000080114D1C8EC17F0080110D197EC21F0AD
:105CD00002C0C0F901C0BFF901C028FA47EC18F0B2
:105CE00001C0BFF90901C66B01C0C5F90001C8ECCC
:105CF00021F00801FBD097EC21F002C093F901C01C
:105D000092F90901925102081BE1935319E1000134
:105D100097EC21F002C0C0F901C0BFF902C0C2F97E
:105D200001C0C1F9ECEF23F0020E0901BF6F960E1E
:105D3000C06F0001F9EC21F00901BF2FF8D746D060
:105D40009251030802E1935302E0000E01D0010ECC
:105D5000BF6F9251050802E1935302E0000E01D09B
:105D6000010EBF1133E0000197EC21F001C09DF955
:105D70000901916B9D51915D16E2036A91519E0F4D
:105D8000016E090E032201C0BFF903C0C0F9000172
:105D900097EC21F0C0C9EAFFBFC9E9FF01C0EFFFDE
:105DA0000901912BE7D7036A9D519E0FE96E090EF9
:105DB0000320EA6EEF6A92C926FA090E0A01286FDB
:105DC0009E0E276F0001BBEC18F0090108018ED070
:105DD0008AEC19F008018AD01CEF24F001C0BFF949
:105DE0000901C66B01C0C5F90001C8EC21F008012A
:105DF0007DD097EC21F002C0C0F901C0BFF901C00D
:105E0000C1F93AEF24F0080171D00801DD99B00E14
:105E1000ED6F6CD00801DD99B20EED6F67D008010F
:105E2000DD99B40EED6F62D00801DD99B60EED6F0D
:105E30005DD097EC21F002C0C0F901C0BFF997EC2A
:105E400021F002C0C2F901C0C1F997EC21F002C0F3
:105E5000C4F901C0C3F9BFC92AFAC1C92BFA01C0EC
:105E60002CFABAEC17F0080141D097EC21F002C0EF
:105E7000C0F901C0BFF997EC21F002C0C2F901C01E
:105E8000C1F9BFC92AFA01C02BFA090E0A012D6F08
:105E90009A0E2C6F00016FEC17F00901C66B9AC9BE
:105EA000C5F90001C8EC21F0080120D097EC21F0E1
:105EB00002C0E9F801C0E8F80801E76BE66BE56BA2
:105EC000E46B14D0E7C8C6F9E6C8C5F9C8EC21F000
:105ED00008010CD00801E76BE66BE56BE46B06D0BC
:105EE000000190C9BFF9B6EF26F00801000167EF85
:105EF00033F0E824F76AF7360D0FF66E5F0EF722DF
:105F00000A00F550FA6E0800F550F96EDC56E856B6
:105F1000F45620574C5778579257AE57CA57E45704
:105F2000FE574258425842584258425842584258E6
:105F30004258425842584258425842584258425891
:105F40004258425842584258425842584258425881
:105F5000425842584258425826580A5809018C6BF8
:105F60008B6B83516E085EE1020E0201552509011B
:105F70008B6F000E0201562109018C6F000167EC46
:105F800021F0090101C091F9906B000167EC21F04B
:105F90000150090190250201556F000E0901912160
:105FA0000201566F000167EC21F00901866B01C008
:105FB00085F9846B865303E18551845D10E200010D
:105FC00097EC21F002C091F901C090F902C093F959
:105FD00001C092F9ACEC21F00901842BEBD7936B53
:105FE0002BC092F90001ACEC21F08CC993F98BC95C
:105FF00092F9ACEC21F0020E09018525016E000E2C
:106000008621036E015001012D5D0901906F000E84
:106010000354916F936F90C992F90001ACEC21F099
:1060200056D309018351000A000141E0010A48E00A
:10603000030A53E06D0AD8B467D06C0AD8B4B6D05E
:106040006E0AD8B4CBD0690AD8B4EED0010AD8B45D
:1060500032D1030AD8B450D1010AD8B47CD10F0A86
:10606000D8B479D1010AD8B4B9D1030AD8B4F3D1DC
:10607000010AD8B40ED23B0AD8B432D23C0AD8B402
:10608000BBD2010AD8B4BCD2030AD8B4BBD2010A2D
:10609000D8B4D0D21F0AD8B4E8D2010AD8B4EDD20D
:1060A000030AD8B4F2D2010AD8B4F4D20CD308014E
:1060B000DD918B9202012F6B2E6B316B306B08D30D
:1060C00067EC21F001C090F90901C66B01C0C5F968
:1060D0000001C8EC21F00201FBD267EC21F00901BC
:1060E00001C091F9906B000167EC21F001500901AA
:1060F0009027000E912391C9C6F990C9C5F90001F6
:10610000C8EC21F00201E4D267EC21F00901866BB2
:1061100001C085F98551020155250901906F86510D
:10612000020156210901916F010E905D8D6F000EE5
:1061300091598E6F010E8D250201556F000E0901D8
:106140008E210201566F0901846B865303E185514C
:10615000845D23E28DC990F9E80E8E25916F8451FC
:10616000905F000E915BF2CF92F9F29EF86A91C9AE
:10617000F7FF90C9F6FF0900F5500800F5CF03F0CE
:10618000F86A92BFF28E8F6FC66B8FC9C5F9000196
:10619000C8EC21F00901842BD8D786C9C6F985C976
:1061A000C5F90001C8EC21F0020192D2010E0201F2
:1061B00055250901906F000E020156210901916FCA
:1061C000C66F90C9C5F90001C8EC21F067EC21F059
:1061D000015002015527000E56237AD2020E020109
:1061E00055250901906F000E020156210901916F9A
:1061F000C66F90C9C5F90001C8EC21F067EC21F029
:10620000090101C091F9906B000167EC21F0015088
:1062100009019025016E000E9121036E01500201CB
:1062200055270350562354D297EC21F002C08CF925
:1062300001C08BF90201565109018C5D0EE308E1A2
:106240008B510201555DD8A002D0090106D0090189
:106250008CC956F28BC955F228D08CC956F28BC91D
:1062600055F2000197EC21F002C031F201C030F28A
:106270000201315303E13051010804E23051D8B436
:1062800031073007302D02D031530EE031C2C6F94C
:1062900030C2C5F90001C8EC21F056C2C6F955C29A
:1062A000C5F9C8EC21F0020109010801E16B050EF6
:1062B000E06F02010DD297EC21F00150021009E0CD
:1062C00097EC21F097EC21F002C056F201C055F294
:1062D00011D097EC21F002C056F201C055F256C21F
:1062E000C6F955C2C5F9C8EC21F00801E16B050EED
:1062F000E06F00010201ECD167EC21F009018C6B29
:1063000001C08BF90001E0EC21F002C086F901C068
:1063100085F986C993F985C992F9ACEC21F0090198
:106320008B518525906F8C518621916FD890903537
:10633000026E9135036E02502E0FE96E010E03209E
:10634000EA6EECCFC6F9ED52EFCFC5F90001C8EC0B
:1063500021F00201BDD109018351080808E10001C3
:1063600097EC21F002C08CF901C08BF90901000102
:10637000E0EC21F002C086F901C085F9E0EC21F0E3
:1063800002C056F201C055F2E0EC21F002C088F9DB
:1063900001C087F90901885308E12B50875D05E2A8
:1063A000000197EC21F0F6D7090186530AE10101BB
:1063B0002D510901855D05E20001E0EC21F00901A4
:1063C000F4D78351080808E18CC9C6F98BC9C5F90F
:1063D0000001C8EC21F0090102017AD197EC21F00B
:1063E00002C02FF201C02EF297EC21F002C031F270
:1063F00001C030F256C2C6F955C2C5F9C8EC21F049
:106400000201315303E13051010813E231C2C6F9F0
:1064100030C2C5F90001C8EC21F02FC2C6F92EC266
:10642000C5F9C8EC21F02FC256F22EC255F211D098
:106430000201302D07D0315305E12FC256F22EC292
:1064400055F208D0000197EC21F002C056F201C0CD
:1064500055F202013DD197EC21F002C086F901C04E
:1064600085F997EC21F002C088F901C087F909018C
:10647000875188110CE056C2C6F955C2C5F9000112
:10648000C8EC21F086C956F285C955F2090102010E
:106490001FD197EC21F002C086F901C085F997EC75
:1064A00021F002C088F901C087F997EC21F002C001
:1064B0008AF901C089F956C2C6F955C2C5F9C8ECB6
:1064C00021F0090189518A1105E088C956F287C96E
:1064D00055F204D086C956F285C955F20201F8D0AA
:1064E00097EC21F002C086F901C085F997EC21F004
:1064F00002C088F901C087F997EC21F002C08AF93F
:1065000001C089F90901875188114EE08A31916FE4
:106510008931906F91339033913390331F0E9117DF
:10652000680E9025E96E090E9121EA6EEFCF00F01A
:106530008951070B936F946B9351016E04E0D890CF
:106540000032012EFCD700B02FD056C2C6F955C27A
:10655000C5F90001C8EC21F086C956F285C955F28B
:1065600009018A31916F8931906F91339033913362
:1065700090331F0E9117680E9025016E090E912120
:10658000036E01C0E9FFEA6E8951070B926F936BAE
:10659000010E006E9251016E04E0D8900036012E7B
:1065A000FCD70050EF1226D08751881123E18A31A1
:1065B000916F8931906F91339033913390331F0EE7
:1065C0009117680E9025016E090E9121036E01C08E
:1065D000E9FFEA6E8951070B926F936B010E006E13
:1065E0009251016E04E0D8900036012EFCD7005085
:1065F000FF0AEF1602016CD089EC08F0020168D0A6
:10660000020166D097EC21F002C02FF201C02EF2F9
:1066100056C2C6F955C2C5F9C8EC21F02FC2C6F959
:106620002EC2C5F9C8EC21F02FC256F22EC255F287
:1066300002014ED097EC21F002C02FF201C02EF2E1
:106640000201316B306B0901C66BC56B0001C8ECF0
:1066500021F02FC2C6F92EC2C5F9C8EC21F02FC215
:1066600056F22EC255F2020133D097EC21F002C04F
:10667000DFF801C0DEF802012BD0E3C8C6F9E2C89A
:10668000C5F9C8EC21F0020123D00801E36BE26BED
:1066900002011ED097EC21F002C08CF901C08BF9E9
:1066A0008CC990F90901916B8BC992F9936B8CC9D4
:1066B0002CFA000158EC1AF092C92CFA58EC1AF096
:1066C000020106D0000183C990F9EAEF29F0020126
:1066D0000001EAEF34F0F86AD09E078E9486948821
:1066E000770EC86E280EC66EC78EC79C2A6A7E9625
:1066F000190EB06EA60EAD6E900EAC6E02012F6B31
:106700002E6B316B306B329132835F6B606B616BE0
:10671000626B636B656B646B3285666B676B686B12
:10672000696B32876A6B6B6B6C6B6D6B280E6E6F6F
:106730003299AF6BB06B328B03012F6B010E306F50
:10674000316B0201329D0301326B336B0201329FC8
:106750000301AC6BAD91020EED6FAD930801BC6B04
:106760000301AD95AD970801BE6BC06BC16B030112
:10677000AD99AD9BAD9D0801D86B690EDA6FD969F3
:10678000DB6B0301AD9F0801DD91DD93DD95DF6BD0
:10679000DE6BE16BE06BE36BE26BE56BE46BE76B8D
:1067A000E66BE96B0A0EE86FEA6BEB6BDD97EC6B5F
:1067B000B40EED6FDD89DD9BF36BF26BF56BF46B63
:1067C000DD8DF76BF66BF86BDD8FFB6BFC91FD6B72
:1067D000FC93FE6BFC95FF6BFC970901416B406BD2
:1067E000456B446B020E466F676B0801FC9909010B
:1067F000786BC088FF0EC16EC098C29CC29EC088D4
:10680000C26EC098D26AD16A26D003001E00040C62
:10681000204233000202590000784334003F43AE67
:10682000001003EE187C1A7C0A7C0D7C197C1B7C02
:106830000B7C0C7C7E4810000808B30B0A0703028F
:106840000100040A48C2FF0CC0000408EEB0B2B454
:10685000B61049680000000EF86E680EF76E0A0E5A
:10686000F66E0900F550006E000A13E00900F550BD
:10687000016EE8BE05D00F0BEA6E0900F5CFE9FF07
:1068800001BC090001AC0900F5CFEEFF004EE9D7CD
:10689000F9D7F86AF19E9B8C010E0A01346F000152
:1068A00082EC0FF097EF0FF042EF10F091EF10F045
:1068B000F2CF82F9F29EF86AF90EF76EF20EF66EDA
:1068C0000900F5500800F5CF03F0F86A090182BF0E
:1068D000F28E826F836B822D0CD083530AE1196A8A
:1068E000F2BE198EF29E00017FEC08F019BEF28E06
:1068F00009010001CEEF1AF050EF1EF09EEF1EF0DE
:106900007AEF1FF086EF1FF059EF21F00801FCA588
:1069100011D0010E0A012E6F030E306FAE0E2F6FD5
:10692000326B3F0E316F020E336F0001C9EC19F06C
:106930000801FC95FCA711D0010E0A012E6F080E6C
:10694000306F4F0E2F6F326B3F0E316F020E336F71
:106950000001C9EC19F00801FC97FF532AE002017D
:106960006E51270802E2B26BF16B32AB11D0010E0F
:106970000A012E6F020E306FF00E2F6F326B3F0E3A
:10698000316F020E336F0001C9EC19F010D0020113
:10699000010E0A012E6F020E306FB10E2F6F326B97
:1069A0003F0E316F020E336F0001C9EC19F0080180
:1069B000FF6BDDA111D0DE51DF110DE1E051E111DE
:1069C0000AE1000167EC21F001C082F901C083F9FE
:1069D000AEEF2FF008010BD00301ADAD07D00801D9
:1069E000C16B0001C1EC0FF00301AD9D0801000176
:0869F000B2EC19F07FD703009F
:026B0000120081
:06FFF800A6F745F7F8FA38
:00000001FF
;PIC18F66J50
;CRC=B463  CREATED="18-Feb-20 17:00"
