:040000005BEF31F091
:08000800046ED8CF05F0E0CF33
:1000100006F00001E9CF0CF0EACF07F0E1CF08F0DD
:10002000E2CF09F0D9CF0AF0DACF0BF0F3CF12F01C
:10003000F4CF13F0FACF14F0F5CF15F0F6CF16F099
:10004000F7CF17F000C00EF001C00FF002C010F0A3
:1000500003C011F0F2AA30EF00F0F2B4C0EF0BF0E1
:100060009DA036EF00F09EB040EF0CF09DA23CEF5B
:1000700000F09EB2F5EF0DF0A0A242EF00F0A1B2A9
:1000800015EF0EF09DAA48EF00F09EBABEEF0EF0FD
:10009000A0A04EEF00F0A1B045EF0EF0A0A854EFE5
:1000A00000F0A1B899EF07F00EC000F00FC001F00A
:1000B00010C002F011C003F00CC0E9FF07C0EAFF56
:1000C000078E08C0E1FF09C0E2FF0AC0D9FF0BC0DC
:1000D000DAFF12C0F3FF13C0F4FF14C0FAFF15C01B
:1000E000F5FF16C0F6FF17C0F7FF045006C0E0FF8B
:1000F00005C0D8FF1000F76A060FF66E010EF72252
:100100000900F55012000003FFFFFFFFFFFFFFFF94
:10011000FFFFFFFFFFFFF76A260FF66E010EF722C3
:100120000900F550120040004000000000000000EF
:1001300000000000000000000000000000000000BF
:10014000000000000000F76A560FF66E010EF7225D
:100150000900F55012000600FF0901A1011901294B
:10016000081580257F7508953F81021901290875BA
:1001700008953F9102C0F76A860FF66E010EF722CE
:100180000900F55012000000F76A980FF66E010E94
:10019000F7220900F55012002000F76AAA0FF66E48
:1001A000010EF7220900F550120009022900010191
:1001B0000080FA0904000002030000000921000188
:1001C00000012220000705810340000A0705010302
:1001D00040000A00F76AE40FF66E010EF7220900EC
:1001E000F55012000100F76AF60FF66E010EF722C5
:1001F0000900F55012001200F76A080FF66E020EA1
:10020000F7220900F5501200120110010000004011
:1002100061042000000101020001F76A2A0FF66E56
:10022000020EF7220900F5501200040309040A0324
:1002300047006F0047006F00160347006F0047003C
:100240006F00200042006F00610072006400659240
:100250000F015C9562A402D06294FCD76298000101
:10026000AAEF07F0400E0401016F040E0B01096FA5
:10027000100E09CB03F4E8CF02F4880E0401006FDE
:10028000046B040E076F500E066F000112000F0181
:100290004CA104D00001E6DF0F014C91629A0001ED
:1002A000B6EF07F0636A6292C0EF07F00B01159199
:1002B00014BF1581149F1451100803E2000E016E43
:1002C0001AD015A10DD0036A1451000114DFFF08E4
:1002D00002E1000E01D0010E016E0B010CD00BD01B
:1002E000036A1451000107DFFF0802E1000E01D08C
:1002F000010E016E0B01000112000B0114511603D7
:10030000F3CF01F0F4CF00F01703F350002615519E
:100310001603F3500020026E00011200036A0B0165
:1003200013514C0FE96E0F0E0320EA6EEF6A13CBE8
:1003300014FB0001BBDF015228E00B01156B13CB4E
:1003400014FB176B080E166F0001D7DF0B0101C0FD
:10035000E9FF040E0224EA6EEF6A156B13CB14FB5F
:10036000176B080E166F0001C8DF02C015FB01C035
:1003700014FB040E0B011427000E152314CBE9FF08
:10038000040E1525EA6EEF6A00011200010E0B0142
:10039000126F12510F0807E312CB13FB0001BEDFEF
:1003A0000B01122BF6D700011200286A276A0B01F5
:1003B000086B08530AE1036A0851290FE96E000E21
:1003C0000320EA6EEF6A082BF4D71B6A010E1C6E3D
:1003D0001A6A00011200629612000F015D6B5C6BDD
:1003E000636A626A5E6B4C6B0001D0DFDEDF160E63
:1003F0000F014C6F62A604D00001EDDF0F01FAD7A8
:100400009F0E5D6F3D0E5C6F659800012BDF030E44
:10041000226ECAEF07F00F015C855C9965820001CE
:10042000D4EF07F0629CDEEF07F00ECB23F0120052
:10043000236812000B010C6B275028103DE00C5173
:100440003F083AE31D50FC0F25E2040F000168EF5E
:1004500002F026C003F02550A0DEE8CF0DFB0B0113
:1004600019D026C003F025506EDEE8CF0DFB0B013E
:1004700011D026C003F02550D0DEE8CF0DFB0B01D4
:1004800009D026C003F02550B7DEE8CF0DFB0B01E5
:1004900001D00B01252AD8B4262A2750D8B4280623
:1004A00027060C510C2B500FE96E040EEA6ED8B0E3
:1004B000EA2A0DCBEFFFC0D72750281004E10C51DA
:1004C000400801E01A6A0CCB0EFB0001AEDF1200FF
:1004D000E824F76AF736EB0FF66E040EF7220A00EF
:1004E000F550FA6E0800F550F96E52046204720479
:1004F00082040B010B6B266A256A1D6A04011351E5
:10050000010A000109E0030A0DE0010A0FE0220AD6
:100510002BE0030A42E05DD0286A120E276E030E1C
:100520001D6E59D0286A290E276E55D0020E1D6EF9
:100530000B010B6B040112510B010B5D0BE226C08A
:1005400003F02550000169DE2526000E26220B014E
:100550000B2BF0D726C003F0255000015EDE036AA6
:10056000276E03C028F037D0036A0401125100013E
:100570003ADE036A256E03C026F0253C02D02652DF
:100580000AE026C003F0255008DE036A276E03C088
:1005900028F021D002D04CDF2DD0036A0401145181
:1005A0000001E9DD036A256E03C026F0253C02D078
:1005B00026520DE0010E1D6E036A04011451000164
:1005C000E3DD036A276E03C028F005D002D030DFD8
:1005D00011D02EDF0FD00401175308E1285203E198
:1005E0002750165D03E2286A16C427F0010E1A6E22
:1005F000000120DF12000B010A5306E1040E226EF7
:100600000001C4DEEAD00B01050E226E040E0D6F50
:10061000900E0C6F010E0B6F0B510F08D8A0DDD0A0
:100620000BCB13FB00017ADE0B010E6B036A0B513F
:10063000000161DDFF0867E0040E0B010E6FD8902A
:100640000B35036A000167DD0900F5CF03F00B01EC
:100650000F6F03C010FB156B0BCB14FB176B080E51
:10066000166F00014ADE01C012FB010E0B010124CE
:10067000016E000E0220036E01C0E9FF040E032488
:10068000EA6E0FCBEFFF156B0BCB14FB176B080E4D
:10069000166F000132DE01C012FB020E0B010124B5
:1006A000016E000E0220036E01C0E9FF040E032458
:1006B000EA6E0DCBECFFED520CCBEFFFD8900B3573
:1006C000036A000128DD0900F5CF03F00B010C27B8
:1006D00003500D23880E116F10A101D0118110A3BA
:1006E00001D01183156B0BCB14FB176B080E166F23
:1006F000000103DE0B0101C0E9FF040E0224EA6ED3
:1007000011CBEFFF0001036A0B010B510001F3DC79
:10071000FF0848E00B010E83156B0BCB14FB176B26
:10072000080E166F0001E9DD02C013FB01C012FBC9
:10073000040E0B011227000E1323020E1225016E68
:10074000000E1321036E01C0E9FF040E0324EA6EBC
:100750000DCBECFFED520CCBEFFFD8900B35036ABD
:100760000001D9DC0900F5CF03F00B010C27035081
:100770000D23156B0BCB14FB176B080E166F0001C6
:10078000BCDD02C013FB01C012FB040E0B011227DB
:10079000000E132312CBE9FF040E1325EA6E400E60
:1007A000EF6E00010B010E51060802E10E0E0E6FF6
:1007B000036A0B5100019FDC010803E00B010E8965
:1007C0000001036A0B010B514C0FE96E0F0E032061
:1007D000EA6E0ECBEFFF0B2B1FD7000144EF04F0A6
:1007E00004011151000A00010DE0010A15E0020A9E
:1007F00021E0060A2CE0030A33E00E0A33E0010A86
:1008000039E049D01CC050F40401516B020E0B01B9
:100810000E6F00010ADE40D00401122D08D0010E37
:100820001C160B010E6B000100DE03D00401000159
:10083000FFDD32D00401122D07D01C820B010E6B9C
:100840000001F3DD03D004010001F2DD25D0020E2A
:100850001A6E12C424F00B010E6B0001E6DD1CD0F1
:1008600048DE1AD01BC050F4010E0B010E6F0001C0
:10087000DCDD12D00401125101080BE312C41BF09D
:1008800012C40AFB0001B7D60B010E6B0001CDDDCF
:100890000401000101D0CCDD9FEF05F01BC00AFB75
:1008A00004011151000A000107E00A0A0EE0010AE2
:1008B0002EE00D0A42E043D00401506B516B020E52
:1008C0000B010E6F0001B1DD3BD00B010A531CE0A0
:1008D000010E0A5D036A00017DDC016E0401145DF6
:1008E000D8A002D00B0110D0036A1451290FE96E71
:1008F000000E0320EA6EEFCF50F4010E0B010E6FD5
:10090000000193DD03D00B01000192DD19D00B0132
:100910000A5310E0036A04011451290FE96E000E16
:100920000320EA6E12C4EFFF0B010E6B00017DDDA8
:1009300003D00B0100017CDD03D0DBDD01D078DDCD
:100940009FEF05F00B010B910ABF0B810A9F0BA1D2
:1009500019D0156B0ACB14FB176B080E166F00012C
:10096000CCDC02C00DFB01C00CFB040E0B010C27FC
:10097000000E0D230CCBE9FF040E0D25EA6E880E48
:10098000EF6E0FD0156B0ACB14FB176B080E166FAA
:100990000001B3DC0B0101C0E9FF040E0224EA6E82
:1009A000EF6A036A0A514C0F016E0F0E032201C059
:1009B000E9FF03C0EAFFEF9000015FEF05F00B01D4
:1009C0000B910ABF0B810A9F0BA119D0156B0ACBA3
:1009D00014FB176B080E166F00018FDC02C00DFBB5
:1009E00001C00CFB040E0B010C27000E0D230CCBD9
:1009F000E9FF040E0D25EA6E840EEF6E10D0156B24
:100A00000ACB14FB176B080E166F000176DC0B0186
:100A100001C0E9FF040E0224EA6E840EEF6E0001AD
:100A200067EF05F00B010B910ABF0B810A9F0BA129
:100A300019D0156B0ACB14FB176B080E166F00014B
:100A40005CDC02C00EFB01C00DFB040E0B010D2788
:100A5000000E0E230DCBE9FF040E0E25EA6EEFCF3C
:100A60000CFB10D0156B0ACB14FB176B080E166F1E
:100A7000000143DC0B0101C0E9FF040E0224EA6E11
:100A8000EFCF0CFB0CAF02D00CB502D0000E01D0A2
:100A9000010E016E000173EF05F014C414FB06DCB7
:100AA00001522EE004011151010A000105E0020A81
:100AB0000BE0030A11E023D014C40AFB43D70B0157
:100AC0000E6B0001B2DC1CD014C40AFB78D70B01FA
:100AD0000E6B0001AADC14D00401506B516B14C4DE
:100AE0000AFB00019FD7015204E0010E0401506F80
:100AF0000001020E0B010E6F000197DC01D098DCA3
:100B00009FEF05F004011151000192DC9FEF05F009
:100B10001A6A040110517F0B000A000107E0010A64
:100B200007E0030A07E0230A07E008D059D607D0F8
:100B3000B5D605D0B2D703D0E5D701D079DC39EFEF
:100B400007F00B01156B0ACB14FB176B080E166F21
:100B500000017DEC01F00B0101C0E9FF040E02244D
:100B6000EA6EEFCF0CFB0B51020806E10CAD02D090
:100B70000B6B02D0010E0B6F0B5103081CE1840EAE
:100B80000C6F156B0ACB14FB176B080E166F000168
:100B90007DEC01F002C010FB01C00FFB040E0B0145
:100BA0000F27000E10230FCBE9FF040E1025EA6E6D
:100BB000840EEF6E07D00B2D03D0C80E0C6F02D041
:100BC000880E0C6FD8900A35036A00018BEC00F098
:100BD0000900F5CF03F00B010D6F03C00EFB156B81
:100BE0000ACB14FB176B080E166F00017DEC01F0A9
:100BF00001C00FFB010E0B010124016E000E02204B
:100C0000036E01C0E9FF040E0324EA6E0DCBEFFF73
:100C10000EA101D00C810EA301D00C83156B0ACB61
:100C200014FB176B080E166F00017DEC01F00B0131
:100C300001C0E9FF040E0224EA6E0CCBEFFF0001B5
:100C40001200036A0B010F514C0FE96E0F0E0320C7
:100C5000EA6EEF521BE0156B0FCB14FB176B080EFF
:100C6000166F00017DEC01F002C011FB01C010FB0A
:100C7000040E0B011027000E112310CBE9FF040E08
:100C80001125EA6EEFCF12FB12AF02D0000E01D099
:100C9000010E016E000112000ACB0FFBD2DF0152E0
:100CA000D8B49BD00B01156B0ACB14FB176B080E45
:100CB000166F00017DEC01F002C010FB01C00FFBBC
:100CC000040E0B010F27000E1023010E0F25016EDD
:100CD000000E1021036E01C0E9FF040E0324EA6E2A
:100CE0000BCBEFFF0D51020820E1156B0ACB14FB73
:100CF000176B080E166F00017DEC01F002C010FBAF
:100D000001C00FFB040E0B010F27000E10230FCBA9
:100D1000E9FF040E1025EA6EEFCF0EFB0EAD02D0F8
:100D20000D6B02D0010E0D6F1AD00D51040817E1A2
:100D3000156B0ACB14FB176B080E166F00017DECC8
:100D400001F00B0101C0E9FF040E0224EA6EEFCFAF
:100D50000EFB0EAD03D0010E0D6F01D00D6B0D2DEE
:100D600003D0480E0E6F02D0080E0E6F156B0ACB23
:100D700014FB176B080E166F00017DEC01F002C02A
:100D800010FB01C00FFB040E0B010F27000E1023F8
:100D90000FCBE9FF040E1025EA6E0ECBEFFF156BAB
:100DA0000ACB14FB176B080E166F00017DEC01F0E7
:100DB00002C010FB01C00FFB040E0B010F27000E39
:100DC00010230FCBE9FF040E1025EA6EEF508009C7
:100DD000EF6E010E016E04D00001000E016E0B01DA
:100DE000000112000B010A5300E1000112000BCBBD
:100DF0005EFF0B010B5303E0040E226E02D0020EC5
:100E0000226E000109EF07F01B6A1A6A24C00BFB6F
:100E1000EED71AEF07F00B010A530DE11A2C05D09B
:100E200000011AEC02F006D00B011A50020803E18F
:100E30000001EAD70B010001120021300B01086FFD
:100E4000083308331F0E081721524EE104010051E8
:100E50003C0B0B01096F430E040100170B010951F4
:100E6000340825E104010451800B01E0046B00010A
:100E70004FD66598233C07D00B010A6B030E0B6F0E
:100E800000015FDE12D00B010A6B020E0B6F000136
:100E900058DE2350FE0809E00B010A6B0C6B23C0DF
:100EA0000BFB040E0D6F0001F7DE1CD00B01095186
:100EB000040819E10A6B000195DF0B010A6B020EB1
:100EC0000B6F00013EDE2350FE080CE0233C01D0F6
:100ED00009D00B010A6B0C6B23C00BFB010E0D6FCD
:100EE0000001DADE0B0122D02150040812E1236850
:100EF0000A6B000190DF233C01D009D00B010A6B83
:100F00000C6B23C00BFB020E0D6F0001C5DE0DD074
:100F10000B0121B406D008CB0AFB000163DF05D02A
:100F20000B0108CB0AFB000176DF0B010001EDEF9E
:100F300007F0A1982252D8B45AD06252D8B457D0F0
:100F400062A408D00F015CB502D0000103D00001FB
:100F500027EF01F065B24BD062AA08D00F015CBB4D
:100F600002D0000103D0000147EF01F062A208D0D7
:100F70000F015CB302D0000103D0000152EF01F079
:100F800062A008D00F015CB102D0000103D00001C3
:100F9000EDEF01F062A808D00F015CB902D00001AA
:100FA00003D000010BEF02F062AC08D00F015CBD72
:100FB00002D0000103D0000112EF02F00B01076B19
:100FC00062A60DD00F015CB702D00B0108D064CF30
:100FD00021F00001EBEC01F030D703D00B0106D07B
:100FE00000010B010751072B0308EAE2000154EF4F
:100FF00000F00ACB5EF209CB5DF208CB5CF207CBC6
:101000005BF2120001012D6B2DC12BF000011200CB
:101010000501A06B9F6B020132910B010A6B096BFA
:10102000A4C508FBA3C507FB0001E3DF8B82020117
:10103000566B556B0001E6DF0301AD9F05019E81F4
:101040002C6A020132850001120002016A6B6B6B8F
:101050006C6B6D6B000112000501A06B9F6B0201B0
:10106000329105019E910301AD8D0001EEDF8B925F
:10107000120005019EB104D00001CADF03D00501B2
:101080000001EADF1200140E0501BE6F000112001C
:101090000B010851016A075D03E207CB00F00CD099
:1010A000006A080E096F073700360851005CD8B097
:1010B000006E0136092FF7D7000172EF08F080B8F3
:1010C0001AD00201605315E10001DDDF0201615118
:1010D00009080BE3622B62C207FB0A0E0B01086FC3
:1010E0000001D6D700C062F20201616B010E606F91
:1010F000328503D000010201606B6151090805E3EC
:10110000612B61510A0801E132850001EFEF0BF01C
:101110000B010E51000A0001D8B4BED0300AD8B479
:10112000BBD0310AD8B4BCD0300AD8B4B9D0330A55
:10113000D8B4BAD0300AD8B4B7D0310AD8B4B8D0FD
:10114000300AD8B4B5D0370AD8B4B6D0300AD8B43B
:10115000B3D0310AD8B4B4D0300AD8B4B1D0330A3D
:10116000D8B4B2D0300AD8B4AFD0310AD8B4B0D0E5
:10117000300AD8B4ADD03F0AD8B4AED0300AD8B413
:10118000ABD0310AD8B4ACD0300AD8B4A9D0330A25
:10119000D8B4AAD04B0AD8B4ABD0200AD8B4A8D0BF
:1011A000230AD8B4A9D0200AD8B4A6D0210AD8B42A
:1011B000A7D0200AD8B4A4D0270AD8B4A5D0200A32
:1011C000D8B4A2D0210AD8B4A3D0200AD8B4A0D0D1
:1011D000230AD8B4A1D0200AD8B49ED0210AD8B40A
:1011E0009FD0200AD8B49CD02F0AD8B49DD0200A12
:1011F000D8B49AD0210AD8B49BD0200AD8B498D0B9
:10120000230AD8B499D0200AD8B496D0260AD8B4E4
:1012100097D0200AD8B494D0220AD8B495D0200A06
:10122000D8B492D0210AD8B493D0200AD8B490D0A0
:101230003F0AD8B491D0200AD8B48ED0210AD8B4AD
:101240008FD0200AD8B48CD0230AD8B48DD0200AED
:10125000D8B48AD0210AD8B48BD0200AD8B488D088
:10126000270AD8B489D0200AD8B486D0210AD8B4A5
:1012700087D0200AD8B484D02C0AD8B485D0200ACC
:10128000D8B482D0050AD8B483D05C0AD8B484D04C
:10129000370AD8B481D080D03F0E016E80D07FD085
:1012A000060E016E7CD07BD05B0E016E78D077D0BD
:1012B0004F0E016E74D073D0660E016E70D06FD079
:1012C0006D0E016E6CD06BD07D0E016E68D067D054
:1012D000070E016E64D063D07F0E016E60D05FD0C8
:1012E0006F0E016E5CD05BD0000E016E58D057D0EF
:1012F000770E016E54D053D07C0E016E50D04FD07B
:10130000390E016E4CD04BD05E0E016E48D047D0E6
:10131000790E016E44D043D0710E016E40D03FD0A3
:101320003D0E016E3CD03BD0760E016E38D037D0EA
:10133000040E016E34D033D00E0E016E30D02FD09B
:10134000380E016E2CD02BD0540E016E28D027D031
:101350005C0E016E24D023D0730E016E20D01FD0FE
:10136000670E016E1CD01BD0500E016E18D017D026
:101370006D0E016E14D013D0780E016E10D00FD008
:101380003E0E016E0CD00BD06E0E016E08D007D051
:10139000360E016E04D003D0000E016E00D0120094
:1013A000D8900B010A35010F036AAE0FE96E030EE8
:1013B0000320EA6EEFCF0CFB0B6BD8900A35010FC0
:1013C000010F036AAE0FE96E030E0320EA6EEF50C1
:1013D0000B27000E0C230BCB01F00CCB02F000010D
:1013E0001200016A026A006A036A0B01115102E1EC
:1013F000105118E0100E126FD8900E370F370036CC
:1014000003361151035C02E11051005C07E31051F7
:10141000005ED8A003061151035ED8800136023663
:10142000122FEAD7000112000CCB0FFB0BCB0EFBE7
:101430000B01116B0A0E106F0001D3DF02C00FFB0E
:1014400001C00EFB02C015FB01C014FB0B01176BA2
:101450000A0E166F00017DEC01F001500B010B5DCF
:101460000D6F0DCB0EFB000153DE01C06AF20CCBF9
:101470000FFB0BCB0EFB0B01116B0A0E106F000163
:10148000B0DF02C00CFB01C00BFB0B010B5306E1EC
:101490000C5304E102016B6B24D00B010CCB0FFB4E
:1014A0000BCB0EFB116B0A0E106F00019ADF02C00E
:1014B0000FFB01C00EFB02C015FB01C014FB0B01AA
:1014C000176B0A0E166F00017DEC01F001500B0145
:1014D0000B5D0D6F0DCB0EFB00011ADE01C06BF230
:1014E00002010CCB0FFB0BCB0EFB0B01116B0A0E99
:1014F000106F000176DF02C00CFB01C00BFB0B017B
:101500000B5306E10C5304E102016C6B24D00B0178
:101510000CCB0FFB0BCB0EFB116B0A0E106F0001F7
:1015200060DF02C00FFB01C00EFB02C015FB01C053
:1015300014FB0B01176B0A0E166F00017DEC01F016
:1015400001500B010B5D0D6F0DCB0EFB0001E0DDBB
:1015500001C06CF202010CCB0FFB0BCB0EFB0B019D
:10156000116B0A0E106F00013CDF02C00CFB01C0C2
:101570000BFB0B010B5306E10C5304E102016D6BF5
:1015800024D00B010CCB0FFB0BCB0EFB116B0A0E07
:10159000106F000126DF02C00FFB01C00EFB02C06E
:1015A00015FB01C014FB0B01176B0A0E166F00012F
:1015B0007DEC01F001500B010B5D0D6F0DCB0EFBAF
:1015C0000001A6DD01C06DF20201328500011200AA
:1015D00002016351625D02E132A5A8D062C263F2EA
:1015E000329561510908D8A07CD06251000A0001EF
:1015F00003E0010A41E05AD0020132A71FD0470E92
:101600000B010E6F000184DD01C06DF26F0E0B0146
:101610000E6F00017DDD01C06CF2470E0B010E6FF5
:10162000000176DD01C06BF26F0E0B010E6F000141
:101630006FDD01C06AF2020132971DD0750E0B01F9
:101640000E6F000165DD01C06DF2730E0B010E6FB0
:1016500000015EDD01C06CF2650E0B010E6F000132
:1016600057DD01C06BF2720E0B010E6F000150DDF1
:1016700001C06AF2020134D002016D6B6F0E0B01E2
:101680000E6F000145DD01C06CF2660E0B010E6F9E
:1016900000013EDD01C06BF2660E0B010E6F000112
:1016A00037DD01C06AF202011BD0000102016A6B42
:1016B000010E625D0B01096F0E6F000129DD01C093
:1016C0006BF2730E0B010E6F000122DD01C06CF294
:1016D000730E0B010E6F00011BDD01C06DF20201E4
:1016E00024D06251000A000103E0010A0AE00BD095
:1016F00066C26AF267C26BF268C26CF269C26DF2CE
:1017000013D0A3DC11D0020E0201625D0B01096F40
:101710000A6F000145DE02C00AFB01C009FB02C0DE
:101720000CFB01C00BFB80DE020127D062510108D7
:1017300024E26151090821E2020E625D0B01096F8A
:101740000A6F00012DDE02C008FB01C007FB020189
:1017500064510B01075D05E1020165510B01085D54
:101760000BE008CB65F207CB64F208CB0CFB07CB90
:101770000BFB000159DE0B0102010001F0EF0BF041
:10178000DB0ED76E610ED66E0501A32BD8B4A42B49
:10179000A52BD8B4A62BA951A55D08E1AA51A65D39
:1017A00005E1A72BD8B4A82BA66BA56B9F5302E12C
:1017B000A05304E09F51D8B4A0079F0781B009D07F
:1017C0009EA501D005D09E739E85000152DC0501C7
:1017D00003D09EA501D09E95AC2B000170D4F8D605
:1017E00002016E51270801E36E2BF294000154EFC1
:1017F00000F009CB00F00B010A51016E04E0D89013
:101800000032012EFCD70050010B016E00011200C6
:101810000B010D51070B006E0D31016E01320132CB
:101820001F0E011601500F25E96E000E1021EA6E01
:10183000016A012A002A01D00136002EFDD70E537D
:1018400003E00150EF1203D0011E0150EF1600011A
:1018500012000BCB0DFB0B010E6B0F0E106F890EE0
:101860000F6F0001D5DF12000BCB0DFB010E0B013A
:101870000E6F0F0E106F890E0F6F0001C9DF12007F
:10188000050199519C5DD8B077D0036A9C51950FA2
:10189000E96E050E0320EA6EEFCF07FB0B01086B24
:1018A000085103084AE307CB09FB08CB0AFB0001F8
:1018B000A0DF01523FE082C509FB08CB0AFB99DF9C
:1018C000012C38D07FC509FB08CB0AFB92DF0152FF
:1018D00021E1D8900B010835036AEE0FE96E030E83
:1018E0000320EA6EECCF0CFBED52EFCF0BFB0001B7
:1018F000B0DFD8900B010835036AF60FE96E030ECE
:101900000320EA6EECCF0CFBED52EFCF0BFB000196
:10191000A0DF10D0D8900B010835036AF60FE96EEE
:10192000030E0320EA6EECCF0CFBED52EFCF0BFB66
:1019300000018FDF0B01082BB3D705019C2B9951B8
:101940009C5D12E2D8909C35036A8D0FE96E050EFE
:101950000320EA6EECCF0AFBED52EFCF09FB0ACB76
:10196000CFFF09CBCEFF07D09BC5CFFF9AC5CEFFD7
:101970000301AD8B0501E0D00301AD9B0B01086BAA
:1019800008510308D8A0C9D082C509FB08CB0AFBBF
:1019900000012FDF012C9ED0036A0B010851830F39
:1019A000E96E050E0320EA6EEF52D8B473D07FC5FE
:1019B00009FB08CB0AFB00011CDF015249E181C58C
:1019C00009FB08CB0AFB15DF015221E0D8900B017F
:1019D0000835036AEE0FE96E030E0320EA6EECCFC2
:1019E0000CFBED52EFCF0BFB00013EDFD8900B015B
:1019F0000835036AF60FE96E030E0320EA6EECCF9A
:101A00000CFBED52EFCF0BFB000123DF20D0D89071
:101A10000B010835036AF60FE96E030E0320EA6E28
:101A2000ECCF0CFBED52EFCF0BFB00011DDFD8908C
:101A30000B010835036AEE0FE96E030E0320EA6E10
:101A4000ECCF0CFBED52EFCF0BFB000102DF20D0FF
:101A5000D8900B010835036AF60FE96E030E0320D8
:101A6000EA6EECCF0CFBED52EFCF0BFB0001FCDE7E
:101A7000D8900B010835036AEE0FE96E030E0320C0
:101A8000EA6EECCF0CFBED52EFCF0BFB0001ECDE6E
:101A900020D00B01D8900835036AEE0FE96E030ED3
:101AA0000320EA6EECCF0CFBED52EFCF0BFB0001F5
:101AB000D0DED8900B010835036AF60FE96E030EED
:101AC0000320EA6EECCF0CFBED52EFCF0BFB0001D5
:101AD000C0DE20D0D8900B010835036AEE0FE96E06
:101AE000030E0320EA6EECCF0CFBED52EFCF0BFBA5
:101AF0000001AFDED8900B010835036AF60FE96EDE
:101B0000030E0320EA6EECCF0CFBED52EFCF0BFB84
:101B100000019FDE0B01082B33D70501995306E026
:101B20009C6B8EC5CFFF8DC5CEFF06D0690ECF6EE4
:101B3000CE680301AD8B05019E90000154EF00F0CB
:101B40008D928D948F968F928F908D9A8F988F947F
:101B5000ABEF0DF0F5D702015F5302E18E9E01D08D
:101B60008E8E5F2D02D08D9601D08D865F5102083A
:101B700002E18D9801D08D885F51030802E18D90BC
:101B800001D08D805F53D8B46AC208FB5F2D02D0AC
:101B90006BC208FB5F510208D8B46CC208FB5F51EE
:101BA0000308D8B46DC208FB0B0108A101D08D82D7
:101BB00008A301D08D8408A501D08F8608A701D085
:101BC0008F8208A901D08F8008AB01D08D8A08AD23
:101BD00001D08F8808AF01D08F84010E02015F25EC
:101BE000030B5F6F000112EF0EF00301AD870501DB
:101BF000AD2BA15302E1A25304E0A151D8B4A20736
:101C0000A107BE530DE0BF51BF2B000A03E1320E06
:101C1000BC6E06D0BF51140803E1BC6ABF6BBE6B3B
:101C2000000198D79E9254EF00F005019EBF28D086
:101C3000B55302E1B6531DE0B9510C081AE1B55194
:101C4000B35D03E1B651B45D14E0B551950807E109
:101C5000B65305E1000139EC08F007D00501B6C51F
:101C6000B4F5B5C5B3F5BD8100010501BC6BB66B1C
:101C7000B56BBC51BC2B320803E2B46BB36BBC6BCD
:101C80009E9FA192000154EF00F005019E8F9EAD32
:101C90000BD0B66A050EB66EB96ABA6A9E9DB8CF09
:101CA000B8F5B7CFB7F55AD0B66A040EB66EB96AB2
:101CB000BA6A9E8DB851B85C0FE303E1B750B75DC7
:101CC0000BE2B751B75C0B01076F0501B851B8586B
:101CD0000B01086F11D00501FF0ED880B7550B011D
:101CE000096FFF0E0501B8550B010A6FB7500925A2
:101CF000076FB8500A21086F08510B080AE303E187
:101D00000751B70806E30501B66BB56BB96B26D072
:101D10000B010851130808E303E10751870804E3A6
:101D20000501B92B1BD00B010851230813E303E174
:101D3000075127080FE3010E006E0501B951016E2E
:101D400004E0D8900036012EFCD70050B513B92B13
:101D500005D00B010501B66BB56BB96BA190000105
:101D600054EF00F09EAAFED7ACCF2AF0AFCF01F01F
:101D70002AA202D0AC98AC88BFEF0EF0F3D701C016
:101D800007FB0301305322E0302D0BD00B0107512C
:101D90005408D8B402D0030104D0020E0301306FFE
:101DA00012D0305102080DE10B010751FE08D8B4E2
:101DB00002D0030106D00301306B0201328D04D042
:101DC0000301010E306F020153D00301020132AD55
:101DD00010D007CB32F303013251020803E13F0E6A
:101DE000336F04D03251070801E1AD810201329D09
:101DF00020D00301ADA104D007CB33F3AD9118D0AF
:101E000033512F5D15E10B0107510301315D05E1F0
:101E10008B700201327B6E6B0301316B2F6B010EF5
:101E2000306F3251070803E10201328F03011FD0E6
:101E3000020132AB0DD003012F512F2B036AB10FDA
:101E4000E96E020E0320EA6E07CBEFFF0CD0020111
:101E500003012F512F2B036AF00FE96E020E0320AE
:101E6000EA6E07CBEFFF0B01075103013127020197
:101E70009E9A000154EF00F0060EEA6E890EE96E9C
:101E8000EF500EE00F0E016E006A002EFED7012EFD
:101E9000FBD78F0E006E002EFED70000EF2EF2D77C
:101EA000120005017C6B010E0301FE6F05019E917E
:101EB0002B6A01012D6B2C6A020E0301BF6F510EBC
:101EC000C06F1F0EC26FF2CF43F6F29EF86AF90E92
:101ED000F76EF00EF66E0900F5500800F5CF03F02E
:101EE000F86A060143BFF28E0201536F03C054F239
:101EF000000142EF32F08D9C8A920601456B466BE1
:101F0000455103082EE3D8904535036AEE0FE96E7C
:101F1000030E0320EA6EECCF0CFBED52EFCF0BFB70
:101F2000196AF2BE198EF29E000193DC19BEF28E80
:101F3000D89006014535036AF60FE96E030E0320BB
:101F4000EA6EECCF0CFBED52EFCF0BFB196AF2BE41
:101F5000198EF29E00017DDC19BEF28E0601452B22
:101F6000CFD7000112009486948847EF10F0320E0C
:101F7000BC6E8B820601896F00017EDFBC6A8B928A
:101F8000960E0601896F000177DF320EBC6E8B80E2
:101F90000601896F000170DFBC6A320E0601896F8D
:101FA00000016ADF8B90320EBC6E8B800601896F58
:101FB000000162DFBC6A320E0601896F00015CDF3E
:101FC0008B9048EF10F06592656A0F015C6B080E0C
:101FD0005F6F975018090601976E226A196AF2BE60
:101FE000198EF29E0001D5EC01F019BEF28EFAEFC7
:101FF0000FF0E9D749EF10F00301C46B3F0E926E6A
:10200000010E936E900E946E000E956E800E966E7D
:102010007C0E976E000E986EC150C00B0609C16E03
:10202000C18EC280C18CC282C2B2FED7C19C0501E2
:102030007E6B000E016EC250C30B0110C26E000118
:102040005ADF860ED56EDB0ED76E610ED66EF28A23
:10205000A10ECD6E9D80CF6ACE6A380E0609CA6E7B
:10206000FF0ECB6E9D829D0E796E7B6A7A6AA0828E
:10207000B66A040EB66EB96ABA6AA0808B940C0E6A
:10208000BB6EBE6ABF6A9D8AC00EF2126CD76FD754
:10209000B0D744EF32F0020E0201B16FF06F0001D1
:1020A00046EF32F01B50016E10EF1AF0036A060182
:1020B000E7514C0FE96E0F0E0320EA6EEF521EE05F
:1020C000196AF2BE198EF29E0B01156BE7C614FB5E
:1020D000176B080E166F00017DEC01F019BEF28E31
:1020E00002C0E9F601C0E8F6060101C0E9FF040EEE
:1020F0000224EA6EEFCFEAF6EAAF02D0000E01D07A
:10210000010E016E000119EF1AF0196AF2BE198E64
:10211000F29E0B01156BECC614FB176B080E166FC5
:1021200000017DEC01F019BEF28E01C0F6F6020E40
:1021300006010124016E000E0220036E01C0E9FFBA
:10214000040E0324EA6EECCFF2F6ED52EFCFF1F677
:10215000196AF2BE198EF29E0B01156BECC614FBC8
:10216000176B080E166F00017DEC01F019BEF28EA0
:1021700001C0F6F6010E06010124016E000E0220D8
:10218000036E01C0E9FF040E0324EA6EF56BEFCF86
:10219000F4F6196AF2BE198EF29E0B01156BECC6AD
:1021A00014FB176B080E166F00017DEC01F019BED1
:1021B000F28E060101C0E9FF040E0224EA6EEFCFA1
:1021C000F3F6F3A101D0F581F3A301D0F583F55126
:1021D000F05D08E303E1EF51F45D04E2F5C6F0F6CB
:1021E000F4C6EFF6EEC6EAFFEDC6E9FFF2C6E2FF7F
:1021F000F1C6E1FFF0C602F0EFC601F0015202E0C5
:10220000022A02D0025206E0E6CFEEFF012EFCD7F2
:10221000022EFAD7EFC601F0F0C602F000011CEF63
:1022200011F0E7C6ECF6E9C6EEF6E8C6EDF6EBC649
:10223000F0F6EAC6EFF669D702C0EBF601C0EAF69F
:10224000196AF2BE198EF29EE7C60AFB020E0B0156
:102250000B6F0001A1EC05F019BEF28E0601EAC673
:1022600001F0EBC602F0000129EF1AF0EFC603F00F
:102270000601EEC6E9FFEFC6EAFF010E006EF0515F
:10228000016E04E0D8900036012EFCD70050FF0A02
:10229000EF14EF6E00011200ECC603F00601EBC66E
:1022A000E9FFECC6EAFF010E006EED51016E04E09D
:1022B000D8900036012EFCD70050EF10EF6E0001D1
:1022C00012000601EA6BEA51030823E3C4C300F0DD
:1022D000EA51016E04E0D8900032012EFCD7005084
:1022E000010B15E0E9530AE1050EEF6F7F0EEE6F6B
:1022F000EAC6F0F60001BADF09D00601050EEC6F60
:102300007F0EEB6FEAC6EDF60001C6DF0601EA2B91
:10231000DAD700011200D8900601EF37EF5302E13F
:102320008D8C01D08A8200011200D8900601E9311B
:10233000EA6FEF6F0001EFDF050E0601EC6F820E12
:10234000EB6FE9C6EDF60001A7DF81EF12F0D89040
:102350000601E935036AEE0FE96E030E0320EA6E0B
:10236000ECCFEDF6ED52EFCFECF6D890E935036AFD
:10237000F60FE96E030E0320EA6EECCFEBF6ED529A
:10238000EFCFEAF6196AF2BE198EF29EEBC60CFB8D
:10239000EAC60BFB000134EC0CF019BEF28E196A90
:1023A000F2BE198EF29EEDC60CFBECC60BFB34ECB4
:1023B0000CF019BEF28E050E0601EF6F820EEE6F65
:1023C000E9C6F0F6000152DFD8900601E931EE6F60
:1023D000EF6F0001A0DF86EF12F0196AF2BE198ECE
:1023E000F29E81C509FBE9C60AFBF9EC0BF019BEA8
:1023F000F28E01520AE0050E0601EF6F810EEE6FBC
:10240000E9C6F0F6000132DF09D0050E0601EC6FD7
:10241000810EEB6FE9C6EDF600013EDF8BEF12F0A7
:10242000050E0601EC6F810EEB6FE9C6EDF60001BB
:1024300033DF90EF12F0050E0601EF6F810EEE6FA5
:10244000E9C6F0F6000112DF95EF12F0D890060110
:10245000EB37EB5302E18D9C01D08A9200015EEFD5
:1024600012F0050E0601EF6F820EEE6FE9C6F0F670
:102470000001FCDE0601E951020B016E82C500F08D
:10248000015204E0D8900032012EFCD70050010B1D
:1024900016E1E951020B010F016E82C500F00152F5
:1024A00004E0D8900032012EFCD70050010B07E168
:1024B000D890E931EA6FEB6F0001C8D7060100013F
:1024C0009AEF12F00601E86BE851030838E3C4C341
:1024D00000F0E851016E04E0D8900032012EFCD7E4
:1024E0000050010B2AE0E96B0001EBDE0601E75129
:1024F000FA0F23E2060F0001A1EF12F0E8C6E9F699
:1025000014D706011AD0E8C6E9F621D7060115D07E
:10251000E8C6E9F662D7060110D0E8C6E9F680D72A
:1025200006010BD0E8C6E9F686D7060106D0E8C654
:10253000E9F697D7060101D00601E82BC5D70001BF
:102540001200E824F76AF7365D0FF66E250EF722C3
:102550000A00F550FA6E0800F550F96EFC240625C5
:1025600010251A2524252E258E0E006EEAC601F0B0
:10257000E9C602F0036A015209E102C001F0026AF1
:10258000080E005E015202E1006A08D0D89001BE38
:1025900004D0023601360006F9D7019E120006016A
:1025A000ED51D8B4A5D0F96FF151D8B4A1D0F95FED
:1025B00005E37F0EF927D8B09BD006D0810EF95FD6
:1025C000D8A096D0D8B494D0F9C600F0016A026AB7
:1025D000036AF86BEEC6F7F6F78FEFC6F6F6F0C6AD
:1025E000F5F6190EF96FF451F55F0DE2010EF65F85
:1025F0000AE2F75F08E2F85F06E2F82BF72BF62B0A
:10260000F451F52728D0F351F65F12E2010EF75F7F
:102610000FE2F85F0DE2F82BF72BF351F627F45198
:10262000F52719E3F62B17E1F72B15E1F82B13D05B
:10263000F2518009F75F0EE2010EF85F0BE2F82B12
:10264000F2518009F727F351F627E9E3F72BE7E189
:10265000F82BE5D70380F92F01D00BD0D890F537B0
:10266000F637F737F837D890033602360136FA379F
:10267000BAD7FAA106D0D890013202320332FA3327
:1026800002D0000635E0FABF1ED0D890F537F637F5
:10269000F737F837F451F55F07E2010EF65F04E211
:1026A000F75F02E2F85F1AE3F351F65F05E2010E0D
:1026B000F75F02E2F85F12E3F2518009F75F03E28D
:1026C000010EF85F0BE3032A09E1022A07E1012A60
:1026D00005E1002A0DE0013202320332EEC6F9F6BE
:1026E000F251F91BF9AF02D0018E06D0019E04D041
:1026F000006A016A026A036A000112000601ED51D4
:10270000D8B471D0006EF151D8B46DD0002604E376
:10271000810E002668E204D07F0E005E64E363E071
:10272000EEC6F5F6F251F51BEE8FF28FF051F40381
:10273000F4CFF7F6EF51F303F4CF03F0F3CFF6F64F
:10274000F403F350F727F450F623000E0322F05160
:10275000F303F350F727F450F623000E026A032226
:102760000222EE51F403F350F627F4500322000E38
:102770000222EE51F303F3500326F4500222000E1E
:10278000016A0122F051F203F350F627F4500322BC
:10279000000E02220122EF51F203F3500326F450FF
:1027A0000222000E0122EE51F203F3500226F450F1
:1027B0000122002A01BE05D0F63703360236013663
:1027C0000006000EF6AF0AD0032A022201220150B1
:1027D00005E1025003E1035001E1002AF5BF018E3B
:1027E000F5AF019E04D0006A016A026A036A000123
:1027F00012008E0E006E0601E951005EEAC602F07C
:10280000EBC601F0028E005209E0D890025202E1BC
:10281000015204E002320132002EF7D7EAAF05D0B0
:10282000011E021E012AD8B4022A0001120006016C
:10283000EA6BEA5103082DE3C4C300F0EA51016ECC
:1028400004E0D8900032012EFCD70050010B1FE0AD
:10285000036AEA51830FE96E050E0320EA6EE9C6AA
:10286000EFFF036AEA51880FE96E050E0320EA6E56
:10287000EF50E95D0CE00301AD89036A0601EA51FE
:10288000880FE96E050E0320EA6EE9C6EFFFEA2B1A
:10289000D0D7000112000601EA6BE8C6E9F6000194
:1028A00063DE03C0ECF602C0EBF601C0EAF600C03E
:1028B000E9F603C0F0F602C0EFF601C0EEF600C084
:1028C000EDF60601F46BF36B480EF26F850EF16FB7
:1028D000000165DE03C0ECF602C0EBF601C0EAF6CB
:1028E00000C0E9F603C0F0F602C0EFF601C0EEF654
:1028F00000C0EDF60601F46BF36B7F0EF26F860EEF
:10290000F16F0001FBDE03C0ECF602C0EBF601C084
:10291000EAF600C0E9F66DDF01C0E8F6E8C6E9F6C0
:1029200086DF1200E7C6C4F31200C4C300F006013C
:10293000E751016E04E0D8900032012EFCD700A0D0
:102940000FD0010E006EE751016E04E0D890003602
:10295000012EFCD70050FF0A0301C4170DD0060159
:10296000010E006EE751016E04E0D8900036012E92
:10297000FCD700500301C4130001AEEF1BF0F0C6FA
:1029800004F6EFC603F60601036BFC0E04170351B1
:10299000EF5D016F0451F059026F066B056B00018A
:1029A0001200FDCA01F0FCCA00F00066012A09000D
:1029B000F5CFEEFF002EFBD7012EF9D7F86A2CEFEA
:1029C00015F0F250036EF29EA6840F01550EA76E0D
:1029D000AA0EA76EA68200000350F2120001120098
:1029E000D08CF6503F0B006EC00EF6160A0000CBDE
:1029F00001F000660BD0F650010F08E1000EF72041
:102A0000030B04E1A6880900DCDF0A00006607D09A
:102A1000EECFF5FF015204E00F00010603D00006DF
:102A20000B000C003F0EF6143F0AE3E1CADF01661B
:102A3000E0D7F86AC9EF15F00A01FB81F86AEEC623
:102A4000F7FFEDC6F6FF060EEA6EF50EE96E040E10
:102A5000FD6FFC6B0001A5D7000ED8800601EF5575
:102A6000006E040EF055036E00C001F00350F25DDD
:102A700010E303E1F151015C0CE2000ED880EF5548
:102A80000A01F96F040E0601F0550A01FA6F06D02B
:102A90000601F2C6FAFAF1C6F9FA0A01F0C6F6FA28
:102AA000EFC6F5FAF86BF76BF851FA5D2AE303E12C
:102AB000F951F75D26E2F50EF525016E060EF621B9
:102AC00001C0FCFAFD6FF7510601F325016E0A0102
:102AD000F8510601F42101C0E9FFEA6EEFCFFEFADA
:102AE0000A01FDCAEAFFFCCAE9FFFECAEFFFF6CA07
:102AF00003F0F551F52BD8B4F62BF72BD8B4F82BFF
:102B0000D3D7F29CF29EF2BEFDD7F66BF56BF6536F
:102B100045E1F5510F0842E3F535026EF635036ED7
:102B200002360336023603360236033602360336E1
:102B300002360336C00E021602500601ED250A01C8
:102B4000FC6F03500601EE210A01FD6FF535026EA0
:102B5000F635036E02360336023603360236033686
:102B60000236033602360336C00E02160250F50F47
:102B7000FE6F060E0320FF6FF86AFDCAF7FFFCCA5E
:102B8000F6FFEA6EFECAE9FF400E0B01006F00017E
:102B900027D70A01F52BD8B4F62BB9D7C00EF212FD
:102BA0000601F151EF250A01FC6F0601F251F021F7
:102BB0000A01FD6F030822E2FF0A03E1FC5100084D
:102BC0001DE2040E0601EE27000ED880EF55006EC0
:102BD000040EF055036E0050F15F0350F25B000EDF
:102BE000D880EF55006E040EF055036E0050F327A9
:102BF0000350F423F06BEF6B03D00A01FB91060145
:102C00008B700A01FBB11AD700011EEF16F0060106
:102C1000055302E1065324E004C6EEF603C6EDF6C2
:102C200002C6F0F601C6EFF606C6F2F605C6F1F6E4
:102C3000050EF46FC10EF36F0001FED606010151BF
:102C40000325ED6F02510421EE6F0551ED2706516A
:102C5000EE23EEC6F0F6EDC6EFF6000190DE0601BB
:102C600000011200060106C603F00551052BD8B479
:102C7000062BED6FC10EED25E96E050E0320EA6E01
:102C8000EBC6EFFF065303E105513F0803E20001E5
:102C9000BEDF060100011200EAC6ECF6E9C6EBF65B
:102CA000E1DFB5DF12000601E7530EE0F90EF06F29
:102CB000F20EEF6F000163DE0601EA6B010EE96FB1
:102CC0000001EADF0CD00601F90EF06FF20EEF6F93
:102CD000000155DE0601EA6BE96B0001DDDFAEEFB6
:102CE0001BF0C69E9E96F1C6C9FF020EC6BE05D059
:102CF0009EA6FED7000EC5BC010E016E1200C69A3C
:102D0000C69CC69EC68A1200010E0601F05F0DE346
:102D1000060EEA6EF00EE96EEF5007E0020E006E4E
:102D2000002EFED700D0EF2EF9D700011200C69C6E
:102D3000C586C5B6FED700B0C59A00A0C58AC588AD
:102D4000C5B8FED7C9CF01F01200C6BC04D0C6BEBC
:102D500002D0000E01D0010E016EE4EF16F0C58026
:102D6000C5B0FED7EBC6EFF6EBC6F1F60001B9DF52
:102D7000015204E0C4DF000E016E2BD0ECC6F1F668
:102D8000B0DFC582C5B2FED70601EB510109EF6F76
:102D9000F16F0001A6DF020E0601EF6FFA0EF06F71
:102DA0000001B2DF0601EF2FF9D7EEC603F0EDC642
:102DB000E9FFEEC6EAFF006A0001B9DF01C0EFFFDC
:102DC000C584C5B4FED7C1D70152D8A498DF010E7F
:102DD000016E1200C580C5B0FED7EBC6EEF6EBC69D
:102DE000F1F600017EDF015204E089DF000E016E82
:102DF0000BD0ECC6F1F675DFEDC6F1F672DFC584D7
:102E0000C5B4FED7010E016E1200036A0601E7C6C3
:102E1000E9FF03C0EAFFEFCFEDF6D00EEB6FEC6BEE
:102E2000EE6B00019CDF0601E79F130E006E002E83
:102E3000FED700D0D00EEB6FEC6BE7C6EDF60001CD
:102E4000C9DF036A0601E7C6E9FF03C0EAFFEFCF67
:102E5000EDF6D00EEB6F020EEC6FEE6B00017FDF34
:102E60000601E79D130E006E002EFED700D0D00E97
:102E7000EB6F020EEC6FE7C6EDF60001ABDFD00E94
:102E80000601EB6F070EEC6F100EED6F0001A2DF75
:102E90001200EAC6EBF60601EC6BEB51090805E2FD
:102EA0000A0EEB5F100EEC2703D0EB51EC2701D09C
:102EB000F4D7ECC601F0000161EF17F0E9C6EAF6BD
:102EC000E8D701C0EAF6D00E0601EB6FE8C6ECF6D3
:102ED00001C0EDF600017EDF12EF1BF0EBC6ECF651
:102EE000D8900601EC33780EEC17EC31006E00320E
:102EF0003F0E00160050EC25ED6FEB510F0BED254A
:102F0000016E000198EF17F0D00E0601EB6FE9C6D5
:102F1000ECF6060EEE6FEA0EED6F000120DF012CDD
:102F200001D003D0640E016E04D0EAC6EBF6D6D70A
:102F300001501200F1C603F00601F0C6E9FFF1C628
:102F4000EAFFEFCF0EFB196AF2BE198EF29E000166
:102F500088EC08F019BEF28E01C069F2010E06017C
:102F6000F025016E000EF121036E01C0E9FFEA6E4B
:102F7000EFCF0EFB196AF2BE198EF29E000188ECAB
:102F800008F019BEF28E01C068F2020E0601F025AB
:102F9000016E000EF121036E01C0E9FFEA6EEFCF72
:102FA0000EFB196AF2BE198EF29E000188EC08F041
:102FB00019BEF28E01C067F2030E0601F025016E04
:102FC000000EF121036E01C0E9FFEA6EEFCF0EFBA8
:102FD000196AF2BE198EF29E000188EC08F019BE43
:102FE000F28E01C066F202013285000141EF18F055
:102FF0000601EA6BEB6BEA6BEABF03D0EA51030808
:103000003AE3036AEA51006EE8BE0306E825E96E7A
:10301000E9510320EA6EEF5213E1EA51EA2B006E08
:10302000E8BE03D0005003080AE3036AEA51EC0F3C
:10303000E96E060E0320EA6E200EEF6EEED719D071
:10304000036AEA51EC0F016E060E032203C0F1F68B
:10305000036AEA51E8BE0306E825E96EE951032058
:10306000EA6EEFCFF2F6F1C6EAFF01C0E9FFF2C661
:10307000EFFFEA2BC1D7060EF16FEC0EF06F0001E7
:1030800059D70501AE51B40802E0000E01D0010E7F
:103090000601F06F0501AE51B60802E0000E01D046
:1030A000010E0601F01102E0050EE76FC580C5B004
:1030B000FED7AEC5F1F6000114DE015001E066D086
:1030C000E7C6F1F60EDE0601E751050829E1EA6BD5
:1030D000036AEA51006EE8BE0306E825E96EE9518D
:1030E0000320EA6EEF5217E0EABF04D0EA511F084E
:1030F000D8A011D0036AEA51006EE8BE0306E825A5
:10310000E96EE9510320EA6EEFCFF1F60001E9DD47
:103110000601EA2BDDD7F16B0001E3DD34D00601B7
:10312000EA6BEABF03D0EA5103082CE3036AEA51D1
:10313000006EE8BE0306E825E96EE9510320EA6E59
:10314000EF520FE1EA51EA2B006EE8BE03D00050C7
:10315000030806E3200EF16F0001C3DD0601F2D77C
:103160000FD0036AEA51006EE8BE0306E825E96E57
:10317000E9510320EA6EEFCFF1F60001B2DD06015E
:10318000EA2BCFD70001C584C5B4FED71200C58095
:10319000C5B0FED7AEC5F1F6A4DD060E0601F16F8F
:1031A00000019FDDC584C5B4FED71200196AF2BEC6
:1031B000198EF29ED5EC01F019BEF28E6592656A09
:1031C000658C00D000D00000659C140E0F015F6F6D
:1031D0005C6B6586010E226E0001F2EF18F065B699
:1031E00001D0E4D7222C0DD065BA0BD0626A0F0152
:1031F0005C6BA088C00EF212110E5C6F020E226E84
:10320000000112009EA8FED7AE6E1200196AF2BE2F
:10321000198EF29EEFC60FFB21EC06F019BEF28E5E
:10322000015254E0196AF2BE198EF29E0B01156B21
:10323000EFC614FB176B080E166F00017DEC01F052
:1032400019BEF28E02C0F8F601C0F7F6040E0601B0
:10325000F727000EF823020EF725016E000EF82165
:10326000036E01C0E9FF040E0324EA6EECCFF6F60C
:10327000ED52EFCFF5F6F6C6EAFFF5C6E9FFF1C667
:10328000E2FFF0C6E1FFF3C602F0F2C601F0015220
:1032900002E0022A02D0025206E0E6CFEEFF012E43
:1032A000FCD7022EFAD7196AF2BE198EF29EEFC62B
:1032B0000AFBF3C60CFBF2C60BFBF4C60DFB0001C8
:1032C0004CEC06F019BEF28E015002D0000E016ED9
:1032D00012000301ED51ED2B036A100FE96E050E8C
:1032E0000320EA6EEEC6EFFF0601EE510A0805E084
:1032F0000301ED513F0816E20601010E0501106FB2
:10330000EDC311F50601EF6F050EF16F100EF06FB2
:10331000F36B3F0EF26F020EF46F000177DF020EC7
:103320000301ED6F0001A4EF19F00601072D05D090
:10333000ED51000167DF08D006010751020805E1E1
:10334000EDC6EEF60001C5D7060100011200060128
:10335000EAC6ECF6E951D8B4EA07E907EB6FEB539C
:1033600002E1EC5326E0E8C6ECF6E751E72BD8B4CF
:10337000E82BEB6FD890EB35026EEC35036EE80E60
:103380000324EC6FF2CFEDF6F29EF86AF76E02C0FE
:10339000F6FF0900F5500800F5CF03F0F86AEDBF1D
:1033A000F28EEB6F03C0ECF6ED6F0001BEDFCFD7FE
:1033B0000601000114EF1CF0020132B912D0036AB9
:1033C000AF516F0FE96E020E0320EA6EE8C6EFFF01
:1033D000AF2BAF513F0801E2AF6BB051AF5D01E1E0
:1033E000328900011200050E0601E86F0001E4DFDA
:1033F00012000D0E0601E86F0001DEDF0A0E060165
:10340000E86F0001D9DF1200EEDFE7C6E8F6D4DF8F
:10341000F0DF120006014481C46B000152EF10F08E
:103420000152D8B4F7D2010E0601E76F000156EF42
:1034300010F00152D8B4EED2010E0601E76F060E6D
:10344000E96F850EE86FEB6B3F0EEA6F000111EF3D
:1034500011F006018553D8A483D186C6C4F6C451A1
:10346000020A00013CE0010A49E0070A57E0020AAB
:103470005CE00F0A63E00E0AD8B47AD00F0AD8B421
:103480007CD0030AD8B47ED0070AD8B47ED0010A13
:10349000D8B480D0070AD8B4A7D0380AD8B4AED0F0
:1034A000010AD8B4C4D00F0AD8B4E0D0010AD8B405
:1034B000DDD0030AD8B415D1780AD8B414D1010AE2
:1034C000D8B41CD10F0AD8B424D1010AD8B42CD155
:1034D000030AD8B437D12E0AD8B43FD13FD1060160
:1034E000882D06D0E76B000162EC12F006D00601D1
:1034F000010EE76F000162EC12F030D10601882D59
:1035000007D0030EE76F000162EC12F006D006014F
:10351000040EE76F000162EC12F020D1020E0601EA
:10352000E76F000162EC12F019D1000E0601892547
:10353000E76FE86F00014BEC14F010D10601E76B68
:10354000000162EC12F0030E0601E76F000162EC6D
:1035500012F0010E0601E96F000161EC11F0000E9E
:1035600006018925E76FE96F000117EC14F0F6D02A
:1035700087C6E7F692EC14F0F1D087C6E7F695EF30
:1035800014F0ECD043EC08F0E9D087C6E7F653EF2F
:1035900016F0E4D0060187530BE1196AF2BE198ECA
:1035A000F29E00012CEC08F019BEF28E1AD0060132
:1035B000872D0BD0196AF2BE198EF29E000108EC1D
:1035C00008F019BEF28E0DD00601875102080AE1FB
:1035D000196AF2BE198EF29E000139EC08F019BE8C
:1035E000F28E06010001BAD006018851010B0108D4
:1035F00002E18B8001D08B900001B0D006DC060187
:10360000456B4551060811E3020E4525036A850FF7
:10361000E96E060E0320EA6EEFCFE9F645C6E8F63E
:1036200000014CD40601452BECD7000197D00601D0
:10363000456B4551060818E3240E4525036AAE0F75
:10364000016E030E032201C0E7F603C0E8F645C68B
:10365000E9F6000159DCE8C6EAFFE7C6E9FF01C068
:10366000EFFF0601452BE5D7000178D00601456B39
:10367000036A4551C60F016E060E032203C0E8F629
:10368000020E4525036A850FE96E060E0320EA6ED9
:10369000EFCFE9F6E8C6EAFF01C0E9FFE9C6EFFFB0
:1036A0004551452B020F036A850FE96E060E032074
:1036B000EA6EEF52DDE1C4513C080AE1030EE76F08
:1036C000060EE96FC60EE86F000192DC09D0060114
:1036D000050EE76F060EE96FC60EE86F000188DC85
:1036E0003DD055DD3BD0B80E0601EB6F010EEC6FFF
:1036F000060EED6F0001EAEC16F030D0B80E0601B0
:10370000EB6F010EEC6F090EED6F0001EAEC16F0A5
:1037100025D0B80E0601EB6F010EEC6F120EED6FA7
:103720000001EAEC16F01AD0300E06018725E76F8B
:10373000B80EEB6F030EEC6FE7C6EDF60001EAEC96
:1037400016F00CD0B80E0601EB6F010EEC6F0C0EEC
:10375000ED6F0001EAEC16F001D0FF005BD106012D
:10376000852D66D086C6C4F6196AF2BE198EF29E01
:1037700000012CEC08F019BEF28E010E0601C45DAA
:10378000FC0F55E2040F00010EEF1DF00601E76B80
:103790008851E7250201556F000E060187210201BD
:1037A000566F0601C42D0FD055C2E7F6E80E020190
:1037B00056250601E86FF06F55C2EFF60001BFEC29
:1037C00014F008D0060156C2F0F655C2EFF600011B
:1037D000BFEC14F006012BD00601456B8751455D07
:1037E00012E2030E4525036A850FE96E060E0320DB
:1037F000EA6EEFCFEBF6EC6B000132EC16F0EFDC8B
:103800000601452BEBD7000107EC16F006010FD09F
:1038100087C6C5F656C2E8F655C2E7F60601EA6B5A
:10382000C5C6E9F6000193D5060101D00601F3D023
:1038300085510208D8A4EFD086C6C4F6010EC45D37
:10384000E60FD8B0E8D01A0F00011FEF1DF0DD0E13
:103850000601E76F0001D8DD0601DDD0DC0E0601B0
:10386000E76F0001D1DD0601D6D0BDDDDA0E06011D
:10387000E86F0001A1DD0601456B8751455D0FE250
:10388000030E4525036A850FE96E060E0320EA6ED6
:10389000EFCFE8F6000190DD0601452BEED70001E1
:1038A000A8DD0601B8D0DB0E0601E76F0001ACDD34
:1038B0000601B1D00601875306E1C90EE76F00018A
:1038C000A3DD05D00601C80EE76F00019DDD0601EE
:1038D000A2D00601875306E1CB0EE76F000194DD0D
:1038E00005D00601CA0EE76F00018EDD060193D0F8
:1038F0000601875306E1D00EE76F000185DD05D094
:103900000601CD0EE76F00017FDD060184D06BDD7F
:10391000E10E0601E86F00014FDD0601456B87519E
:10392000455D0FE2030E4525036A850FE96E060E1D
:103930000320EA6EEFCFE8F600013EDD0601452BDD
:10394000EED7000156DD060166D04DDDE20E060120
:10395000E86F000131DD0601456B8751455D0FE2DF
:10396000030E4525036A850FE96E060E0320EA6EF5
:10397000EFCFE8F6000120DD0601452BEED7000170
:1039800038DD060148D02FDDD30E0601E86F0001B7
:1039900013DD0601456B8751455D0FE2030E45259A
:1039A000036A850FE96E060E0320EA6EEFCFE8F694
:1039B000000102DD0601452BEED700011ADD0601EC
:1039C0002AD00601872D06D0E30EE76F00011CDD2B
:1039D00007D00601875305E1E40EE76F000114DD0F
:1039E000060119D00601875306E1E50EE76F0001D5
:1039F0000BDD0ED00601872D0CD00001F4DCE70EA4
:103A00000601E86F0001D8DC88C6E8F6D5DCF1DCF9
:103A1000060101D0060100016AEF32F0E824F76ADE
:103A2000F736370FF66E3A0EF7220A00F550FA6EA7
:103A30000800F550F96E8C378C37D8371038E824E9
:103A4000F76AF736590FF66E3A0EF7220A00F5506C
:103A5000FA6E0800F550F96E4E385C38143A143A94
:103A6000143A143A143A143A143AB438D238F038B2
:103A7000143A143A6A38A6380E394A398639143A53
:103A8000143A143A143A143AC239E4390301ADA78E
:103A900046D0C282C2B2FED7C4CF44F60601C3CF1D
:103AA00043F6D89005017D35010F036AAE0FE96E2C
:103AB000030E0320EA6E06014451EF6ED890050113
:103AC0007D35010F010F036AAE0FE96E030E03206F
:103AD000EA6E060143C6EFFF010E05017D25070BC7
:103AE0007D6F7D5302E1BD8505D07D51040802E163
:103AF000010EC06F036A7D51740FE96E050E03203D
:103B0000EA6EEFCF45F606014535006E0036FC0E35
:103B10000016C250C30B0010C26E0301AD97000126
:103B20006CEF32F005019EAB01D011D0BDA301D0E6
:103B30000ED0AC510A080BE29EA909D0AE5302E0A8
:103B4000010E01D0000E9E97E8B09E87AC6B00017D
:103B50006EEF32F00601436B446B456B4769486B6F
:103B6000496B05019C6B060143510F08D8B48BD0FB
:103B7000446B445103084BE3196AF2BE198EF29E5E
:103B800043C609FB44C60AFB0001F9EC0BF019BE61
:103B9000F28E015201E038D0036A06014451830FCE
:103BA000E96E050E0320EA6EEFCF46F6463D01D0E2
:103BB00002D046530BE1060EEC6F430EEB6F44C68A
:103BC000EDF600014CEC11F01FD006014751465DA7
:103BD0000CE246C647F6010E486F4451016E04E000
:103BE000D8904837012EFCD70ED04751465D0BE1E7
:103BF000010E006E4451016E04E0D8900036012E93
:103C0000FCD70050481300010601442BB2D748519D
:103C10004313473D01D036D0D8904535036A8D0F08
:103C2000E96E050E0320EA6E4951475D4D6B4C6FFE
:103C3000196AF2BE198EF29E4DC615FBE8CF14FB31
:103C40000B01176B960E166F00017DEC01F019BE8B
:103C5000F28E02C003F00150FF08006EFF0E035603
:103C600000C0EFFF03C0ECFF036A06014551950F4A
:103C7000E96E050E0320EA6E48C6EFFF47C649F617
:103C80004769452B71D745C699F545531FE04B6BE6
:103C900049C64AF6196AF2BE198EF29E4BC615FB4A
:103CA00049C614FB0B01176B960E166F00017DECD5
:103CB00001F019BEF28E02C003F00150FF0F0501A2
:103CC0009A6F690E02209B6F05D00601690E0501EF
:103CD0009B6F9A69000174EF1EF00301ADAB06D033
:103CE000ADA904D0000136D70301AD99000170EFF2
:103CF00032F082C5C5F381C5C6F383C5C7F384C559
:103D0000C8F385C5C9F386C5CAF3B3C5CFF30301AC
:103D1000D06B82B0D02BD16B81B0D12B000172EF70
:103D200032F00201B051AF5D02E0000E01D0010E91
:103D3000016E000112000201AF51B05D09E1060100
:103D4000476B45C6E9FF46C6EAFFEF6A1CD0020191
:103D50000601036A0201B0516F0FE96E020E0320E3
:103D6000EA6EEFCF4AF6060146C6EAFF45C6E9FF0E
:103D70004AC6EFFF0201B02BB0513F0801E2B06B21
:103D8000010E0601476F47C601F00001CFEF1EF09C
:103D9000060E0601466F440E456F0001CCD70601A2
:103DA00044C601F00001E2EF1EF00601436B4351EF
:103DB000040812E30001B5DF015203E006010CD054
:103DC0000001E6D701C044F606014451000102ECAF
:103DD00019F00601432BEBD7000146EF20F0060156
:103DE0008AC6E9FF8BC6EAFFEFCF8EF68DC603F0D9
:103DF0008CC6E9FF8DC6EAFFEF508E5D15E18BC6DC
:103E000003F08AC6E9FF03C0EAFFEF5203E1000EA8
:103E1000016E1FD08BC603F08A518A2BD8B48B2B2E
:103E20008C2BD8B48D2BDCD78BC603F08AC6E9FF68
:103E30008BC6EAFFEFCF8EF68DC603F08CC6E9FF86
:103E40008DC6EAFFEF508E5D02E2FF0E01D0010E3B
:103E5000016E000112000601876B8751030820E301
:103E600087510C0DF350036A340F016E030E0322C9
:103E700001C088F603C089F603C08BF601C08AF63C
:103E800086C68DF685C68CF60001A9DF015205E1D4
:103E9000060187C601F006D000010601872BDDD799
:103EA000FF0E016E00011200006A016A06018351D3
:103EB000D89084B100260032013284B3002600324B
:103EC000013284B500260032013284B70026003268
:103ED000013284B900260032013284BB0026003250
:103EE000013284BD00260032013284BF0026003238
:103EF0000132000112000601456B466B476B486BAF
:103F0000496B4A6B4B6B4C6B4D6B4E6B4F6B506BF5
:103F1000516B536B020132AB07D0020E0601446FA6
:103F2000F00E436F06D00201020E0601446FB10E7F
:103F3000436F020E4327000E4423516B515143251A
:103F4000016E000E4421036E01C0E9FFEA6EEF50DE
:103F50002C081CE0036A5151450F016E060E032226
:103F600001C054F603C055F651514325016E000EB1
:103F7000442101C0E9FFEA6EEFCF56F655C6EAFFCD
:103F800054C6E9FF56C6EFFF512BD8D7060E866FF1
:103F9000450E856F00015FDF01C053F606015351E6
:103FA000FF0834E10301AC2B030EAC17ACC353F68E
:103FB0000601526B53C683F60C0E846F000174DF4A
:103FC00001500601556B546F036A52515425016E1E
:103FD000555103220150340F016E030E032201C01C
:103FE00054F603C055F6036A5251450FE96E060EAA
:103FF0000320EA6EEFCF56F655C6EAFF01C0E9FF8F
:1040000056C6EFFF565302E0522BD4D7526B53C61D
:1040100083F60C0E846F000147DF01500601556BDB
:10402000546F036A52515425016E555103220150B9
:10403000640F016E030E032201C054F603C055F64F
:1040400051514325566F000E4421576F5251562748
:10405000000E5723010E5625016E000E5721036EE8
:1040600001C0E9FFEA6EEFCF56F655C6EAFF54C627
:10407000E9FF56C6EFFF565302E0522BC8D70001A6
:104080004BEF20F04EDE015201E18FD6020132AF3C
:1040900004D0000130D70201329F000174EF32F0EA
:1040A000020132A105D03291330E016E21D020D011
:1040B00056C203F05551552BD8B4562B0601556FF7
:1040C000E80E0324F2CF57F6F29EF86AF76E55C653
:1040D000F6FF0900F5500800F5CF03F0F86A57BF66
:1040E000F28E536F03C054F6546B53C601F00201B5
:1040F00000011200196AF2BE198EF29E2CEC08F033
:1041000019BEF28E43EC08F0640E0601896F0001BF
:104110003CEC0FF043EC08F012002B5210E02B06A1
:10412000D8902B34036A2D0FE96E000E0320EA6E3F
:10413000EFCF01F0EE52EDCF02F003D002D02C828F
:10414000D9DF120001012D517F0812E32D512D2BD3
:10415000006ED89000360050036A2E0FE96E010EF3
:104160000320EA6E54C6ECFFED5253C6EFFF04D0B5
:104170000001C0DF2C840101000112002B507F08D8
:1041800012E32B502B2A006ED89000360050036AA1
:104190002D0FE96E000E0320EA6E88C6ECFFED528B
:1041A00087C6EFFF02D0A6DF2C80120001012D533D
:1041B00010E02D07D8902D35036A2E0FE96E010E01
:1041C0000320EA6EEFCF01F0EE52EDCF02F005D002
:1041D00004D02C8600018EDF0101000112000601CF
:1041E000876B886B010E896FDA6AD96A060E8C6F4D
:1041F0007F0E8B6F060EEA6E830EE96E8CC6E2FFB1
:104200008BC6E1FF89C68AF6D890E550EE02F350DE
:104210008723F45088238A2FF7D787C6DEFF88C606
:1042200087F6886BD8B0882B8B2BD8B48C2B892B36
:1042300089510508DFE1000131EF21F05EC282F60D
:104240005DC281F65CC280F65BC27FF6410E06015C
:10425000866FC60E856F4E0E846F6D0E836F0001E4
:10426000BED7390E0601002402015B6F300E060135
:10427000012002015C6F000E0601022002015D6F49
:10428000000E0601032002015E6F5DC200F05EC2F7
:1042900001F0026A036A5EC281F65DC280F6196AA5
:1042A000F2BE198EF29E5EC20FFB5DC20EFB7F0E48
:1042B0000B01116F10690001F1EC09F019BEF28ECB
:1042C00000C001F003C002F0FAEF28F00601816B94
:1042D0008151030824E3C4C300F08151016E04E05E
:1042E000D8900032012EFCD70050010B16E0036A73
:1042F0008151830F016E050E032203C083F6036A0A
:104300008151830FE96E050E0320EA6E8051EF2480
:1043100083C6EAFF01C0E9FFEF6E812BD9D7030105
:10432000AD8900011200196AF2BE198EF29E86C68E
:104330000FFB85C60EFB0B01116B0A0E106F0001FF
:10434000F1EC09F019BEF28E02C089F601C088F6C0
:10435000196AF2BE198EF29E02C015FB01C014FB51
:104360000B01176B0A0E166F00017DEC01F019BEF0
:10437000F28E01500601855D876F196AF2BE198EB3
:10438000F29E87C60EFB000188EC08F019BEF28E83
:1043900001C066F2196AF2BE198EF29E86C60FFB44
:1043A00085C60EFB0B01116B0A0E106F0001F1ECBC
:1043B00009F019BEF28E02C086F601C085F606012C
:1043C000855306E1865304E10201676B39D006018B
:1043D000196AF2BE198EF29E86C60FFB85C60EFBC9
:1043E0000B01116B0A0E106F0001F1EC09F019BE00
:1043F000F28E02C089F601C088F6196AF2BE198EE3
:10440000F29E02C015FB01C014FB0B01176B0A0ED4
:10441000166F00017DEC01F019BEF28E015006010D
:10442000855D876F196AF2BE198EF29E87C60EFBF4
:10443000000188EC08F019BEF28E01C067F202019B
:10444000196AF2BE198EF29E86C60FFB85C60EFB58
:104450000B01116B0A0E106F0001F1EC09F019BE8F
:10446000F28E02C086F601C085F60601855306E18C
:10447000865304E10201686B39D00601196AF2BE65
:10448000198EF29E86C60FFB85C60EFB0B01116BC3
:104490000A0E106F0001F1EC09F019BEF28E02C095
:1044A00089F601C088F6196AF2BE198EF29E02C022
:1044B00015FB01C014FB0B01176B0A0E166F0001F0
:1044C0007DEC01F019BEF28E01500601855D876F0B
:1044D000196AF2BE198EF29E87C60EFB000188ECA7
:1044E00008F019BEF28E01C068F20201196AF2BE2C
:1044F000198EF29E86C60FFB85C60EFB0B01116B53
:104500000A0E106F0001F1EC09F019BEF28E02C024
:1045100086F601C085F60601855306E1865304E15F
:104520000201696B39D00601196AF2BE198EF29E3A
:1045300086C60FFB85C60EFB0B01116B0A0E106FB2
:104540000001F1EC09F019BEF28E02C089F601C03B
:1045500088F6196AF2BE198EF29E02C015FB01C0E0
:1045600014FB0B01176B0A0E166F00017DEC01F0B6
:1045700019BEF28E01500601855D876F196AF2BE81
:10458000198EF29E87C60EFB000188EC08F019BE5A
:10459000F28E01C069F2020132850001D5EF22F0EE
:1045A00082C686F681C685F6BED6C580C5B0FED762
:1045B000AEC5F1F671EC16F0015001E01CD0020E10
:1045C0000601F16F000171EC16F006018251036AD9
:1045D000856FF16F000171EC16F0060181C600F0E5
:1045E000036A81C685F681C6F1F6000171EC16F00A
:1045F000C584C5B4FED786EF2CF006017F6BC5805D
:10460000C5B0FED70501AE5101090601806FF16FFB
:10461000000171EC16F0006A97EC16F001C07FF60D
:1046200006017F2BC584C5B4FED77FC601F000010B
:10463000DFEF2CF0C580C5B0FED7AEC5F1F671EC4A
:1046400016F0080E0601F16F000171EC16F081C63C
:10465000F1F671EC16F0C584C5B4FED7F4EF2CF07A
:10466000020132AB0DD0036A06018451F00FE96EEE
:10467000020E0320EA6EEFCF01F00CD00BD0020146
:10468000036A06018451B10FE96E020E0320EA6E3F
:10469000EFCF01F000011200120E0601846F00013D
:1046A000DFDF0601839101B08381000E83B1010E2B
:1046B000016E000104EF25F0120E0601846F000167
:1046C000CFDF0601839101B28381000E83B1010E19
:1046D000016E00011DEF25F0120E0601846F00012E
:1046E000BFDF0601839101B48381000E83B1010E07
:1046F000016E000128EF25F010DD01C083F6010EE8
:104700000601846F8451835D0DE3000106DD02C064
:1047100086F601C085F601C0E8F6DCEC19F006016A
:10472000842BF0D700011200F3EC19F0140E0601EF
:10473000E86F0001DCEC19F084C6E8F6DCEC19F057
:1047400085C6E8F6DCEC19F0F9EC19F0CDEF23F0B2
:10475000036A06018451F00FE96E020E0320EA6E2F
:1047600085C6EFFF036A8451B10FE96E020E032084
:10477000EA6E85C6EFFF0001D3EF23F0140E0601A9
:10478000846F00016DDF01C083F6060183530CE0E6
:10479000140E846F856B0001C7D7140E0601846F59
:1047A000856B0001D5D7060183C601F00001A0EF9B
:1047B00025F006018A6B8B6B8C6B8D6B8E6B8F6B10
:1047C000196AF2BE198EF29E88C60FFB87C60EFBD1
:1047D0000B01116B0A0E106F0001F1EC09F019BE0C
:1047E000F28E02C091F601C090F6196AF2BE198EDF
:1047F000F29E02C015FB01C014FB0B01176B0A0EE1
:10480000166F00017DEC01F019BEF28E0150060119
:10481000875D896F196AF2BE198EF29E88C60FFBFA
:1048200087C60EFB0B01116B0A0E106F0001F1EC35
:1048300009F019BEF28E02C088F601C087F60601A3
:104840008F518F2B036A8A0FE96E060E0320EA6EE2
:1048500089C6EFFF8753B4E18853B2E18F07036A3B
:104860008F518A0FE96E060E0320EA6EEF50300F6B
:10487000906FE86F0001DCEC19F006018F53EEE158
:10488000000148EF24F086C688F685C687F691D7E2
:1048900012001D0E0601846F0001E2DE015020EFC0
:1048A00026F01C0E0601846F0001DADE01C083F6DB
:1048B000000E060101B2010E016E00013EEF26F06E
:1048C0001C0E0601846F0001CBDE01C083F6000ED2
:1048D000060101B0010E016E000149EF26F084C609
:1048E00086F683C685F62BEC1FF0015012000601F8
:1048F0007F51020A0001D8B46AD0030AD8B46ED03E
:10490000C90AD8B472D0010AD8B476D0070AD8B48C
:104910007AD0040AD8B482D0010AD8B486D0040A66
:10492000D8B48AD0030AD8B492D0010AD8B49AD0A5
:104930001D0AD8B49ED0020AD8B4A1D0010AD8B4B6
:10494000A5D0070AD8B4B5D0010AD8B4CCD0030A90
:10495000D8B4CAD0010AD8B4D3D03D0AD8B4D7D07D
:10496000320AD8B4E0D0010AD8B4E9D0030AD8B4E6
:10497000F1D0010AD8B401D1050AD8B405D1010A91
:10498000D8B40ED13F0AD8B428D1030AD8B442D142
:10499000070AD8B446D1010AD8B44AD1030AD8B418
:1049A0004ED1010AD8B456D10F0AD8B466D1010A43
:1049B000D8B46ED1020AD8B476D1060AD8B4AAD136
:1049C000010AD8B413D2020AD8B47AD29DD2020E08
:1049D0000601E76F000104EC1AF098D2010E0601FF
:1049E000E76F000104EC1AF091D2C80E0601E76FE0
:1049F000000104EC1AF08AD2C90E0601E76F00012B
:104A000004EC1AF083D248D601C083F60601886B05
:104A100001C087F60001BEEC20F078D2CA0E060174
:104A2000E76F000104EC1AF071D2CB0E0601E76FBC
:104A3000000104EC1AF06AD23FD601C083F60601E9
:104A4000886B01C087F60001BEEC20F05FD244D62F
:104A500001C083F60601886B01C087F60001BEEC39
:104A600020F054D2CD0E0601E76F000104EC1AF0DD
:104A70004DD2D00E0601E76F000104EC1AF0D20E01
:104A80000601E76F000104EC1AF040D2F3EC19F0D4
:104A9000D30E0601E86F0001DCEC19F02DDE2C0EC0
:104AA0000601E86F0001DCEC19F026DEF9EC19F0E4
:104AB0002DD2F3EC19F0D40E0601E86F0001DCEC06
:104AC00019F01ADE2C0E0601E86F0001DCEC19F07B
:104AD00013DE2C0E0601E86F0001DCEC19F00CDE91
:104AE000F9EC19F013D212D2F3EC19F0D60E06013C
:104AF000E86F0001DCEC19F0FFDDF9EC19F006D2EB
:104B0000D70E0601E76F000104EC1AF0FFD1F3ECB9
:104B100019F0EA0E0601E86F0001DCEC19F0ECDD9B
:104B2000F9EC19F0F3D1F3EC19F0D80E0601E86FA7
:104B30000001DCEC19F0E0DDF9EC19F0E7D11ED64C
:104B400001C083F60601886B01C087F60001BEEC48
:104B500020F0DCD1F3EC19F0DA0E0601E86F000169
:104B6000DCEC19F0C9DD2C0E0601E86F0001DCEC6D
:104B700019F0C2DDF9EC19F0C9D1DB0E0601E76FBF
:104B8000000104EC1AF0C2D1F3EC19F0DE0E0601BC
:104B9000E86F0001DCEC19F0AFDDF9EC19F0B6D1EB
:104BA000F3EC19F0DF0E0601E86F0001DCEC19F000
:104BB000A3DD2C0E0601E86F0001DCEC19F08DEC92
:104BC00020F002C084F601C083F602C086F601C060
:104BD00085F659DEF9EC19F099D1F3EC19F0E00EF5
:104BE0000601E86F0001DCEC19F086DD3B0E0601E2
:104BF000E86F0001DCEC19F08DEC20F002C084F6C7
:104C000001C083F602C086F601C085F63CDEF9ECF1
:104C100019F07CD1E30E0601E76F000104EC1AF0F5
:104C200075D1E40E0601E76F000104EC1AF06ED1B5
:104C3000E50E0601E76F000104EC1AF067D129D6F2
:104C400001C083F60601886B01C087F60001BEEC47
:104C500020F05CD1F3EC19F0E70E0601E86F0001DB
:104C6000DCEC19F08DEC20F001C083F601C0E8F611
:104C7000DCEC19F0F9EC19F049D113D601C083F638
:104C80000601886B01C087F60001BEEC20F03ED122
:104C900017D601C083F60601886B01C087F60001B4
:104CA000BEEC20F033D18DEC20F001C080F606017F
:104CB000816B8051815D16E2036A8151940F016E10
:104CC000030E032201C083F603C084F600018DECBD
:104CD00020F084C6EAFF83C6E9FF01C0EFFF0601AA
:104CE000812BE7D7036A8151940FE96E030E0320ED
:104CF000EA6EEF6A030E846F940E836F0001EFDD9E
:104D000001C083F60601886B01C087F60001BEEC86
:104D100020F0FCD08DEC20F001C080F60601816B04
:104D20008051815D16E2036A8151940F016E030E7A
:104D3000032201C083F603C084F600018DEC20F04D
:104D400084C6EAFF83C6E9FF01C0EFFF0601812B9D
:104D5000E7D7036A8151940FE96E030E0320EA6ED0
:104D6000EF6A030E846F940E836F0001B8DD01C0FB
:104D700082F606018251FF0806E188698769000111
:104D8000BEEC20F00601036A8251A00FE96E030E0B
:104D90000320EA6EEFCF83F683C6E9FFEA6AECCF21
:104DA00085F6ED52EFCF84F684C685F6846B036AF0
:104DB0008251A00FE96E030E0320EA6EEFCF86F654
:104DC000010E8625E96EEA6AD8B0EA2AEF508425FA
:104DD000016E000E8521036E01C084F6856F886F19
:104DE00001C087F60001BEEC20F090D08DEC20F0E1
:104DF00001C080F60601816B8051815D16E2036A75
:104E00008151A00F016E030E032201C083F603C07F
:104E100084F600018DEC20F084C6EAFF83C6E9FF2A
:104E200001C0EFFF0601812BE7D7036A8151A00F74
:104E3000E96E030E0320EA6EEF6A00018DEC20F0AC
:104E400001C082F606018251FF0805E082BF0AD048
:104E50008251040807E2886B876B0001BEEC20F0EA
:104E600055D0060182C683F60C0E846F000154EC07
:104E70001FF00150036A640F016E030E032201C08C
:104E800083F6060103C084F603C08BF601C08AF6E0
:104E9000030E8D6FA00E8C6F0001EFEC1EF001521F
:104EA00008E10601886B010E876F0001BEEC20F05F
:104EB00006D00601886B876B0001BEEC20F026D07F
:104EC0000601816B815103081DE381510C0DF350E4
:104ED000846B836F340E8325E96E030E8421EA6EA2
:104EE000EF6A81510C0DF350846B836F640E832540
:104EF000E96E030E8421EA6EEF6A0301AC6B0601D2
:104F0000812BE0D7000102D07AEC20F065EF2DF084
:104F10000601526B5A6B596B5151140A0001D8B4F7
:104F200014D1010AD8B429D14A0AD8B434D13F0ADD
:104F3000D8B450D1760AD8B45BD1010AD8B467D1BD
:104F40000F0AD8B464D1010AD8B461D1030AD8B425
:104F50005ED1010AD8B45BD1070AD8B458D1010A8E
:104F6000D8B455D1030AD8B452D1010AD8B44FD11C
:104F70003F0AD8B44CD1010AD8B449D11F0AD8B4D9
:104F800046D1030AD8B443D11F0AD8B413D2010AB8
:104F9000D8B420D2070AD8B43AD2080AD8B451D229
:104FA000010AD8B450D2030AD8B44FD2010AD8B4F7
:104FB00051D21C0AD8B453D2060AD8B453D2010A2B
:104FC000D8B453D2020AD8B453D20A0AD8B453D2AE
:104FD0000D0AD8B453D2030AD8B450D2090AD8B4AF
:104FE00061D2040AD8B46AD27F0AD8B46BD2010A5B
:104FF000D8B486D2030AD8B4A1D2010AD8B4BCD29C
:10500000180AD8B4D7D21F0AD8B430D3010AD8B4FA
:1050100037D3030AD8B452D3010AD8B469D30F0ADC
:10502000D8B475D37F0AD8B481D30F0AD8B47ED34D
:10503000710AD8B47BD3030AD8B478D3010AD8B4A0
:1050400075D3070AD8B472D3010AD8B46FD3030A50
:10505000D8B46CD3770AD8B4B9EF2BF0030AD8B41C
:1050600088D3750AD8B485D31F0AD8B482D3010A6D
:10507000D8B47FD3030AD8B47CD3010AD8B479D387
:10508000070AD8B476D3010AD8B4E3EF2BF0030AA9
:10509000D8B4E6EF2BF0010AD8B4E9EF2BF00F0AF1
:1050A000D8B4E9EF2BF0010AD8B4E9EF2BF0030AEA
:1050B000D8B421EF2CF0060AD8B42DEF2CF0010A59
:1050C000D8B433EF2CF0030AD8B43FEF2CF03F0AEA
:1050D000D8B454EF2CF0030AD8B458EF2CF0010ADE
:1050E000D8B46DEF2CF0070AD8B4D9EF2CF0010A30
:1050F000D8B4DDEF2CF0030AD8B4EAEF2CF0010AA3
:10510000D8B4F6EF2CF00F0AD8B4FBEF2CF0010A5C
:10511000D8B400EF2DF0030AD8B405EF2DF0010A42
:10512000D8B40AEF2DF0070AD8B426EF2DF01C0AE8
:10513000D8B446EF2DF0010AD8B452EF2DF0030A8F
:10514000D8B45AEF2DF061EF2DF00501BDB10AD0B2
:105150009EA108D0010E0601896F00013CEC0FF002
:10516000F4D70501B4C588F6B3C587F60001BEECD7
:1051700020F00501BD9166EF2DF0000E0501BDB1D7
:10518000010E06017F6F886B876F0001BEEC20F077
:10519000050166EF2DF005019D5310E19EA10ED093
:1051A000020E06017F6FFA0EF06F000184EC16F01C
:1051B00006017F2FF8D70001EED705010601886BA5
:1051C0009DC587F60001BEEC20F00301AD9F0501EF
:1051D00066EF2DF0000E0301ADBF010E06017F6FDB
:1051E000886B876F0001BEEC20F0050166EF2DF0A3
:1051F0001EEF21F002C080F601C07FF602C088F6E3
:1052000001C087F6BEEC20F0050166EF2DF08DECB5
:1052100020F002C056F601C055F68DEC20F002C019
:1052200054F601C053F6170E0601515DD80FD8B0E1
:10523000B8D0280F000169EF2DF006015551532712
:1052400056515423AED006015551535F5651545B0D
:10525000A8D0196AF2BE198EF29E54C615FB53C629
:1052600014FB56C617FB55C616FB7DEC01F019BEA4
:10527000F28E02C054F601C053F6060192D0196AAC
:10528000F2BE198EF29E54C60FFB53C60EFB56C6D5
:1052900011FB55C610FBF1EC09F019BEF28E02C0ED
:1052A00054F601C053F606017CD0196AF2BE198E7D
:1052B000F29E54C60FFB53C60EFB56C611FB55C6D5
:1052C00010FBF1EC09F019BEF28E00C053F6060196
:1052D00003C054F666D006015551535D03E15651A3
:1052E000545D02E0000E01D0010E546B536F59D093
:1052F00006015651545D04E305E15351555D02E347
:10530000000E01D0010E546B536F4BD00601545167
:10531000565D04E305E15551535D02E3000E01D0F3
:10532000010E546B536F3DD006015351541103E0ED
:105330005551561102E1000E01D0010E546B536F0E
:1053400030D006015351541105E15551561102E177
:10535000000E01D0010E546B536F23D0060155513E
:10536000531B5651541B1DD006015451565D04E386
:1053700005E15351555D02E2000E01D0010E546B60
:10538000536F0FD006015651545D04E305E15551AA
:10539000535D02E2000E01D0010E546B536F01D039
:1053A000060154C688F653C687F60001BEEC20F00D
:1053B00005018CD38DEC20F001500210000ED8B402
:1053C000010E06017F6F886B876F0001BEEC20F035
:1053D00005017CD38DEC20F002C05AF601C059F6CD
:1053E0008DEC20F002C080F6D89006010134026EE8
:1053F0008035036E0250330FE96E020E0320EA6E11
:105400005AC6ECFFED5259C6EFFF05015FD38DEC94
:1054100020F002C080F6D89006010134026E80357B
:10542000036E0250330FE96E020E0320EA6EECCFDA
:1054300088F6ED52EFCF87F60001BEEC20F00501B3
:1054400045D3050143D3050141D3010E0301C46FC8
:1054500005013CD3020E0301C46F050137D30601D9
:10546000522B00010601522B00010601522B0001B4
:105470000601522B00010601522B000152C6E7F62D
:1054800062EC12F00601515132080AE100018DEC84
:1054900020F002C0A0F501C09FF502013281060193
:1054A000050114D38DEC20F002C080F601C07FF618
:1054B00001C0E8F64BEC14F0050108D38DEC20F0A8
:1054C000050104D38DEC20F002C054F601C053F660
:1054D0000601535105018215006E036A0050060152
:1054E000535D03E10350545D02E0000E01D0010E54
:1054F0007F6F886B876F0001BEEC20F00501E6D25C
:105500008DEC20F002C054F601C053F60501825123
:10551000FF0A06015315006E036A0050535D03E154
:105520000350545D02E0000E01D0010E7F6F886BC6
:10553000876F0001BEEC20F00501C8D28DEC20F091
:1055400002C054F601C053F60601535105018115FE
:10555000006E036A00500601535D03E10350545D81
:1055600002E0000E01D0010E7F6F886B876F000193
:10557000BEEC20F00501AAD28DEC20F002C054F65A
:1055800001C053F605018151FF0A06015315006E53
:10559000036A0050535D03E10350545D02E0000EC6
:1055A00001D0010E7F6F886B876F0001BEEC20F089
:1055B00005018CD28DEC20F002C080F601C07FF690
:1055C000830E06010124E96E050E0220EA6EEF50FB
:1055D000EA6BE96F0001B4EC12F003C084F602C07C
:1055E00083F601C082F600C081F603C0F0F602C067
:1055F000EFF601C0EEF600C0EDF60601F46BF36BBA
:105600007F0EF26F860EF16F0001CFEC12F003C037
:1056100084F602C083F601C082F600C081F603C0A2
:10562000F0F602C0EFF601C0EEF600C0EDF606019E
:10563000F46BF36B480EF26F850EF16F00017EEC98
:1056400013F003C0ECF602C0EBF601C0EAF600C0AE
:10565000E9F6F9EC13F001C081F60601886B01C090
:1056600087F60001BEEC20F0050130D2196AF2BEC7
:10567000198EF29E2CEC08F019BEF28E050126D28E
:105680008DEC20F0F2CF81F6F29EF86A02C0F7FFAF
:1056900001C0F6FF0900F5500800F5CF03F0F86AE5
:1056A000060181BFF28E7F6F03C080F603C088F6CB
:1056B000876F0001BEEC20F0050108D28DEC20F0D0
:1056C00002C054F601C053F68DEC20F002C056F62D
:1056D00001C055F656C6F0F655C6EFF6BFEC14F00D
:1056E00054C6EAF653C6E9F64CEC16F00501EED1C5
:1056F0008DEC20F001C07FF60601806B80C688F635
:1057000001C087F60001BEEC20F00501DFD18DEC71
:1057100020F002C07FF60601806B80C688F602C0CA
:1057200087F60001BEEC20F00501D0D106015151F1
:10573000480804E3370E515D526F04D0490E515DA5
:10574000020F526F196AF2BE198EF29E52C60AFB00
:105750000001D0EC09F019BEF28E02C080F601C043
:105760007FF602C088F601C087F6BEEC20F0050186
:10577000ADD1060151514E0804E3390E515D526F0F
:1057800004D04F0E515D020F526F196AF2BE198E8E
:10579000F29E52C60AFB0001D0EC09F019BEF28E4F
:1057A00002C080F6D890036A06010230026E031030
:1057B000000ED8B4010E7F6F886B876F0001BEECBE
:1057C00020F0050183D18B80050180D18B900501EC
:1057D0007DD10601E76B000162EC12F0030E0601B9
:1057E000E76F000162EC12F0010E0601E96F0001A3
:1057F00061EC11F08DEC20F001C052F60601515120
:10580000570807E152C6E9F6000117EC14F017D06B
:1058100006015151580807E152C680F6000166ECB6
:1058200021F00DD00601836952C684F6000154ECC4
:105830001FF001C07FF601C080F666EC21F0050183
:1058400045D18DEC20F002C054F601C053F653C68A
:10585000E7F692EC14F0050139D1C584C5B4FED742
:1058600005019E9B33D18DEC20F002C080F601C073
:105870007FF601C0F1F671EC16F0050127D18DEC31
:1058800020F002C080F601C07FF601C000F097EC66
:1058900016F001C07FF60601886B01C087F6000193
:1058A000BEEC20F0050112D105EC17F005010ED178
:1058B0008DEC20F002C080F601C07FF601C0E9F651
:1058C00084EC17F001C07FF60601886B01C087F6F3
:1058D0000001BEEC20F00501F9D08DEC20F002C0F3
:1058E00054F601C053F60601535102081BE154530C
:1058F00019E100018DEC20F002C080F601C07FF6B6
:1059000002C082F601C081F6D0EF22F0020E06013D
:105910007F6F960EF06F000184EC16F006017F2F6A
:10592000F8D745D05351030802E1545302E0000E6A
:1059300001D0010E7F6F5351050802E1545302E07C
:10594000000E01D0010E7F1132E000018DEC20F03D
:1059500001C05DF60601526B5D51525D16E2036AAD
:1059600052515E0F016E060E032201C07FF603C086
:1059700080F600018DEC20F080C6EAFF7FC6E9FFCB
:1059800001C0EFFF0601522BE7D7036A5D515E0F9E
:10599000E96E060E0320EA6EEF6A53C6E7F6060EBE
:1059A000E96F5E0EE86F0001F8EC17F006010501E3
:1059B0008DD0C7EC18F0050189D0FDEF22F001C0B1
:1059C0007FF60601886B01C087F60001BEEC20F06F
:1059D00005017CD08DEC20F002C080F601C07FF67E
:1059E00001C081F61AEF23F0050170D005019E99E0
:1059F000B00EAE6F6BD005019E99B20EAE6F66D041
:105A000005019E99B40EAE6F61D005019E99B60E48
:105A1000AE6F5CD08DEC20F002C080F601C07FF646
:105A20008DEC20F002C082F601C081F68DEC20F0F2
:105A300002C084F601C083F67FC6EBF681C6ECF6A1
:105A400001C0EDF6EAEC16F0050140D08DEC20F037
:105A500002C080F601C07FF68DEC20F002C082F615
:105A600001C081F67FC6EBF601C0ECF6060E06011A
:105A7000EE6F590EED6F0001AFEC16F05AC688F6C6
:105A800059C687F6BEEC20F0050120D08DEC20F041
:105A900002C0AAF501C0A9F50501A86BA76BA66B0A
:105AA000A56B14D0A8C588F6A7C587F6BEEC20F074
:105AB00005010CD00501A86BA76BA66BA56B06D0E2
:105AC000000151C67FF677EF24F00501000157EF82
:105AD00031F0E824F76AF736ED0FF66E5A0EF7222A
:105AE0000A00F550FA6E0800F550F96E3A52465227
:105AF00052527E52AA52D652F0520C53285342535D
:105B00005C53A053A053A053A053A053A053A05341
:105B1000A053A053A053A053A053A053A053A053ED
:105B2000A053A053A053A053A053A053A053A053DD
:105B3000A053A053A053A0538453685306014D6B48
:105B40004C6B44516E085EE1020E020155250601C0
:105B50004C6F000E0201562106014D6F000150EC02
:105B600020F0060101C052F6516B000150EC20F00C
:105B70000150060151250201556F000E0601522108
:105B80000201566F000150EC20F00601476B01C086
:105B900046F6456B475303E14651455D10E200016F
:105BA0008DEC20F002C052F601C051F602C054F64E
:105BB00001C053F6A2EC20F00601452BEBD7546B45
:105BC0002BC053F60001A2EC20F04DC654F64CC693
:105BD00053F6A2EC20F0020E06014625016E000EDF
:105BE0004721036E015001012D5D0601516F000E2A
:105BF0000354526F546F51C653F60001A2EC20F0CB
:105C000056D306014451000A000141E0010A48E070
:105C1000030A53E06D0AD8B467D06C0AD8B4B6D082
:105C20006E0AD8B4CBD0690AD8B4EED0010AD8B481
:105C300032D1030AD8B450D1010AD8B47CD10F0AAA
:105C4000D8B479D1010AD8B4B9D1030AD8B4F3D100
:105C5000010AD8B40ED23B0AD8B432D23C0AD8B426
:105C6000BBD2010AD8B4BCD2030AD8B4BBD2010A51
:105C7000D8B4D0D21F0AD8B4E8D2010AD8B4EDD231
:105C8000030AD8B4F2D2010AD8B4F4D20CD3050175
:105C90009E918B9202012F6B2E6B316B306B08D370
:105CA00050EC20F001C051F60601886B01C087F668
:105CB0000001BEEC20F00201FBD250EC20F0060106
:105CC00001C052F6516B000150EC20F0015006016A
:105CD0005127000E522352C688F651C687F600019E
:105CE000BEEC20F00201E4D250EC20F00601476B3C
:105CF00001C046F64651020155250601516F475134
:105D0000020156210601526F010E515D4E6F000EC9
:105D100052594F6F010E4E250201556F000E0601BC
:105D20004F210201566F0601456B475303E146516F
:105D3000455D23E24EC651F6E80E4F25526F4551A0
:105D4000515F000E525BF2CF53F6F29EF86A52C6D4
:105D5000F7FF51C6F6FF0900F5500800F5CF03F034
:105D6000F86A53BFF28E506F886B50C687F60001F9
:105D7000BEEC20F00601452BD8D747C688F646C6AC
:105D800087F60001BEEC20F0020192D2010E020162
:105D900055250601516F000E020156210601526F72
:105DA000886F51C687F60001BEEC20F050EC20F061
:105DB000015002015527000E56237AD2020E02012D
:105DC00055250601516F000E020156210601526F42
:105DD000886F51C687F60001BEEC20F050EC20F031
:105DE000060101C052F6516B000150EC20F0015049
:105DF00006015125016E000E5221036E0150020171
:105E000055270350562354D28DEC20F002C04DF696
:105E100001C04CF60201565106014D5D0EE308E14A
:105E20004C510201555DD8A002D0060106D00601F2
:105E30004DC656F24CC655F228D04DC656F24CC649
:105E400055F200018DEC20F002C031F201C030F2B9
:105E50000201315303E13051010804E23051D8B45A
:105E600031073007302D02D031530EE031C288F6B1
:105E700030C287F60001BEEC20F056C288F655C24B
:105E800087F6BEEC20F0020106010501A26B050EAB
:105E9000A16F02010DD28DEC20F00150021009E03B
:105EA0008DEC20F08DEC20F002C056F201C055F2CE
:105EB00011D08DEC20F002C056F201C055F256C24E
:105EC00088F655C287F6BEEC20F00501A26B050EE0
:105ED000A16F00010201ECD150EC20F006014D6BE6
:105EE00001C04CF60001D6EC20F002C047F601C01C
:105EF00046F647C654F646C653F6A2EC20F0060115
:105F00004C514625516F4D514721526FD890513514
:105F1000026E5235036E02502E0FE96E010E032001
:105F2000EA6EECCF88F6ED52EFCF87F60001BEECBB
:105F300020F00201BDD106014451080808E100012A
:105F40008DEC20F002C04DF601C04CF606010001B8
:105F5000D6EC20F002C047F601C046F6D6EC20F0A1
:105F600002C056F201C055F2D6EC20F002C049F64C
:105F700001C048F60601495308E12B50485D05E28F
:105F800000018DEC20F0F6D7060147530AE101012C
:105F90002D510601465D05E20001D6EC20F0060118
:105FA000F4D74451080808E14DC688F64CC687F678
:105FB0000001BEEC20F0060102017AD18DEC20F048
:105FC00002C02FF201C02EF28DEC20F002C031F29F
:105FD00001C030F256C288F655C287F6BEEC20F0FA
:105FE0000201315303E13051010813E231C288F656
:105FF00030C287F60001BEEC20F02FC288F62EC218
:1060000087F6BEEC20F02FC256F22EC255F211D008
:106010000201302D07D0315305E12FC256F22EC2B6
:1060200055F208D000018DEC20F002C056F201C0FC
:1060300055F202013DD18DEC20F002C047F601C0BF
:1060400046F68DEC20F002C049F601C048F6060184
:10605000485149110CE056C288F655C287F6000136
:10606000BEEC20F047C656F246C655F206010201C4
:106070001FD18DEC20F002C047F601C046F68DEC32
:1060800020F002C049F601C048F68DEC20F002C0B5
:106090004BF601C04AF656C288F655C287F6BEECEA
:1060A00020F006014A514B1105E049C656F248C698
:1060B00055F204D047C656F246C655F20201F8D052
:1060C0008DEC20F002C047F601C046F68DEC20F0C2
:1060D00002C049F601C048F68DEC20F002C04BF634
:1060E00001C04AF60601485149114EE04B31526F4A
:1060F0004A31516F52335133523351331F0E5217BD
:10610000290E5125E96E060E5221EA6EEFCF00F0FE
:106110004A51070B546F556B5451016E04E0D890EF
:106120000032012EFCD700B02FD056C288F655C2DF
:1061300087F60001BEEC20F047C656F246C655F27F
:1061400006014B31526F4A31516F52335133523342
:1061500051331F0E5217290E5125016E060E522182
:10616000036E01C0E9FFEA6E4A51070B536F546B8F
:10617000010E006E5351016E04E0D8900036012EDE
:10618000FCD70050EF1226D04851491123E14B3182
:10619000526F4A31516F52335133523351331F0EC4
:1061A0005217290E5125016E060E5221036E01C0B1
:1061B000E9FFEA6E4A51070B536F546B010E006EF4
:1061C0005351016E04E0D8900036012EFCD70050E8
:1061D000FF0AEF1602016CD043EC08F0020168D010
:1061E000020166D08DEC20F002C02FF201C02EF229
:1061F00056C288F655C287F6BEEC20F02FC288F64C
:106200002EC287F6BEEC20F02FC256F22EC255F2F7
:1062100002014ED08DEC20F002C02FF201C02EF210
:106220000201316B306B0601886B876B0001BEEC9D
:1062300020F02FC288F62EC287F6BEEC20F02FC2C7
:1062400056F22EC255F2020133D08DEC20F002C07E
:10625000A0F501C09FF502012BD0A4C588F6A3C507
:1062600087F6BEEC20F0020123D00501A46BA36BDE
:1062700002011ED08DEC20F002C04DF601C04CF69C
:106280004DC651F60601526B4CC653F6546B4DC6C3
:10629000EDF6000195EC19F053C6EDF695EC19F00A
:1062A000020106D0000144C651F688EF27F0020132
:1062B0000001C5EF32F0F86AD09E078E948694886C
:1062C000770EC86E280EC66EC78EC79C2A6A7E9649
:1062D000190EB06EA60EAD6E900EAC6E02012F6B55
:1062E0002E6B316B306B329132835F6B606B616B05
:1062F000626B636B656B646B3285666B676B686B37
:10630000696B32876A6B6B6B6C6B6D6B280E6E6F93
:106310003299AF6BB06B328B03012F6B010E306F74
:10632000316B0201329D0301326B336B0201329FEC
:106330000301AC6BAD91020EED6FAD9305017D6B6A
:106340000301AD95AD9705017F6B816B826B0301F6
:10635000AD99AD9BAD9D0501996B690E9B6F9A69D7
:106360009C6B0301AD9F05019E919E939E95A06B32
:106370009F6BA26BA16BA46BA36BA66BA56BA86BA9
:10638000A76BAA6B0A0EA96FAB6BAC6B9E97AD6B3C
:10639000B40EAE6F9E899E9BB46BB36BB66BB56B40
:1063A0009E8DB86BB76BB96B9E8FBC6BBD91BE6B8E
:1063B000BD93BF6BBD95C06B0601026B016B066B95
:1063C000056B020E076F286B0501BD970601396B3F
:1063D000C088FF0EC16EC098C29CC29EC088C26EAB
:1063E000C098D26AD16A26D003001E00040C204255
:1063F00033000202590000784334003F43AE0008E6
:1064000005740B0A0703020100043F451000100346
:10641000EE187C1A7C0A7C0D7C197C1B7C0B7C0C96
:106420007C0A4583FF0CC0000405AFB0B2B4B610BF
:1064300046290000000EF86E630EF76EE80EF66E49
:106440000900F550006E000A13E00900F550016ED6
:10645000E8BE05D00F0BEA6E0900F5CFE9FF01BCDD
:10646000090001AC0900F5CFEEFF004EE9D7F9D7DE
:10647000F86AF19E9B8C010E896F00013CEC0FF0D5
:1064800051EF0FF0FCEF0FF04BEF10F0F2CF43F6AF
:10649000F29EF86AF90EF76EF20EF66E0900F550EC
:1064A0000800F5CF03F0F86A060143BFF28E436F90
:1064B000446B432D0CD044530AE1196AF2BE198E85
:1064C000F29E000139EC08F019BEF28E06010001BF
:1064D0000AEF1AF046EF1DF092EF1DF06DEF1EF07F
:1064E00079EF1EF042EF20F00501BDA511D0010E9D
:1064F0000601EF6F030EF16FAE0EF06FF36B3F0E00
:10650000F26F020EF46F000106EC19F00501BD9563
:10651000C0532AE002016E51270802E2B26BF16B10
:1065200032AB11D0010E0601EF6F020EF16FF00ECB
:10653000F06FF36B3F0EF26F020EF46F000106EC8A
:1065400019F010D00201010E0601EF6F020EF16F7B
:10655000B10EF06FF36B3F0EF26F020EF46F00019D
:1065600006EC19F00501C06B9EA111D09F51A0113E
:106570000DE1A151A2110AE1000150EC20F001C08F
:1065800043F601C044F69EEF2DF005010BD0030148
:10659000ADAD07D00501826B00017BEC0FF003016C
:0E65A000AD9D05010001EFEC18F092D703004D
:026A0000120082
:06FFF800A6F745F7F8FA38
:00000001FF
;PIC18F66J50
;CRC=7E55  CREATED="16-Nov-15 15:40"
